20250627 12:59:37.495 - 8=FIX.4.4|9=84|35=A|34=131|49=ConnectToGateway1|56=EchoServer|52=20250627-05:59:37.395|98=0|108=30|10=002|
20250627 12:59:37.513 - 8=FIX.4.4|9=122|35=5|34=132|49=ConnectToGateway1|56=EchoServer|52=20250627-05:59:37.512|58=Incoming seq number 1 is less then expected 90|10=221|
20250627 12:59:45.087 - 8=FIX.4.4|9=84|35=A|34=133|49=ConnectToGateway1|56=EchoServer|52=20250627-05:59:45.071|98=0|108=30|10=250|
20250627 12:59:45.094 - 8=FIX.4.4|9=122|35=5|34=134|49=ConnectToGateway1|56=EchoServer|52=20250627-05:59:45.093|58=Incoming seq number 4 is less then expected 90|10=229|
20250627 13:15:06.375 - 8=FIX.4.4|9=84|35=A|34=140|49=ConnectToGateway1|56=EchoServer|52=20250627-06:15:06.278|98=0|108=30|10=247|
20250627 13:15:06.390 - 8=FIX.4.4|9=122|35=5|34=141|49=ConnectToGateway1|56=EchoServer|52=20250627-06:15:06.389|58=Incoming seq number 7 is less then expected 92|10=230|
