20250627 12:01:21.463 - 8=FIX.4.4|9=81|35=A|34=8|49=ConnectToGateway|56=EchoServer|52=20250627-05:01:21.457|98=0|108=30|10=092|
20250627 12:01:21.474 - 8=FIX.4.4|9=111|35=4|34=1|49=ConnectToGateway|56=EchoServer|52=20250627-05:01:21.473|43=Y|122=20250627-05:01:21.457|123=Y|36=9|10=101|
20250627 12:01:21.515 - 8=FIX.4.4|9=111|35=B|34=9|49=ConnectToGateway|56=EchoServer|52=20250627-05:01:21.474|148=Hello there|33=3|58=line1|line2|line3|10=125|
20250627 12:01:21.515 - 8=FIX.4.4|9=112|35=B|34=10|49=ConnectToGateway|56=EchoServer|52=20250627-05:01:21.474|148=Hello there|33=3|58=line1|line2|line3|10=166|
20250627 12:01:21.515 - 8=FIX.4.4|9=112|35=B|34=11|49=ConnectToGateway|56=EchoServer|52=20250627-05:01:21.474|148=Hello there|33=3|58=line1|line2|line3|10=167|
20250627 12:01:21.515 - 8=FIX.4.4|9=112|35=B|34=12|49=ConnectToGateway|56=EchoServer|52=20250627-05:01:21.474|148=Hello there|33=3|58=line1|line2|line3|10=168|
20250627 12:01:21.515 - 8=FIX.4.4|9=118|35=B|34=13|49=ConnectToGateway|56=EchoServer|52=20250627-05:01:21.474|148=Hello there|33=3|58=line1|58=line2|58=line3|10=013|
20250627 12:01:21.516 - 8=FIX.4.4|9=118|35=B|34=14|49=ConnectToGateway|56=EchoServer|52=20250627-05:01:21.474|148=Hello there|33=3|58=line1|58=line2|58=line3|10=014|
20250627 12:01:23.234 - 8=FIX.4.4|9=90|35=5|34=15|49=ConnectToGateway|56=EchoServer|52=20250627-05:01:23.233|58=Shutting down...|10=194|
20250627 12:01:30.210 - 8=FIX.4.4|9=83|35=A|34=114|49=ConnectToGateway|56=EchoServer|52=20250627-05:01:30.202|98=0|108=30|10=176|
20250627 12:01:30.217 - 8=FIX.4.4|9=122|35=5|34=115|49=ConnectToGateway|56=EchoServer|52=20250627-05:01:30.216|58=Incoming seq number 10 is less then expected 90|10=202|
20250627 12:01:37.674 - 8=FIX.4.4|9=83|35=A|34=116|49=ConnectToGateway|56=EchoServer|52=20250627-05:01:37.664|98=0|108=30|10=197|
20250627 12:01:37.680 - 8=FIX.4.4|9=122|35=5|34=117|49=ConnectToGateway|56=EchoServer|52=20250627-05:01:37.679|58=Incoming seq number 13 is less then expected 90|10=227|
20250627 12:01:55.372 - 8=FIX.4.4|9=83|35=A|34=118|49=ConnectToGateway|56=EchoServer|52=20250627-05:01:55.281|98=0|108=30|10=194|20250627 12:01:55.392 - 8=FIX.4.4|9=79|35=2|34=19|49=ConnectToGateway|56=EchoServer|52=20250627-05:01:55.388|7=9|16=0|10=250|
20250627 12:01:55.396 - 8=FIX.4.4|9=113|35=4|34=16|49=ConnectToGateway|56=EchoServer|52=20250627-05:01:55.394|43=Y|122=20250627-05:01:55.388|123=Y|36=20|10=217|
20250627 12:01:55.397 - 8=FIX.4.4|9=118|35=B|34=20|49=ConnectToGateway|56=EchoServer|52=20250627-05:01:55.394|148=Hello there|33=3|58=line1|58=line2|58=line3|10=019|
20250627 12:01:55.397 - 8=FIX.4.4|9=118|35=B|34=21|49=ConnectToGateway|56=EchoServer|52=20250627-05:01:55.394|148=Hello there|33=3|58=line1|58=line2|58=line3|10=020|
20250627 12:01:55.397 - 8=FIX.4.4|9=118|35=B|34=22|49=ConnectToGateway|56=EchoServer|52=20250627-05:01:55.394|148=Hello there|33=3|58=line1|58=line2|58=line3|10=021|
20250627 12:01:55.398 - 8=FIX.4.4|9=79|35=2|34=23|49=ConnectToGateway|56=EchoServer|52=20250627-05:01:55.394|7=9|16=0|10=242|
20250627 12:01:55.399 - 8=FIX.4.4|9=113|35=4|34=16|49=ConnectToGateway|56=EchoServer|52=20250627-05:01:55.396|43=Y|122=20250627-05:01:55.388|123=Y|36=20|10=219|
20250627 12:01:55.399 - 8=FIX.4.4|9=149|35=B|34=20|49=ConnectToGateway|56=EchoServer|43=Y|122=20250627-05:01:55.394|52=20250627-05:01:55.396|148=Hello there|33=3|58=line1|58=line2|58=line3|10=033|
20250627 12:01:55.399 - 8=FIX.4.4|9=149|35=B|34=21|49=ConnectToGateway|56=EchoServer|43=Y|122=20250627-05:01:55.394|52=20250627-05:01:55.397|148=Hello there|33=3|58=line1|58=line2|58=line3|10=035|
20250627 12:01:55.400 - 8=FIX.4.4|9=149|35=B|34=22|49=ConnectToGateway|56=EchoServer|43=Y|122=20250627-05:01:55.394|52=20250627-05:01:55.397|148=Hello there|33=3|58=line1|58=line2|58=line3|10=036|
20250627 12:01:55.400 - 8=FIX.4.4|9=113|35=4|34=23|49=ConnectToGateway|56=EchoServer|52=20250627-05:01:55.397|43=Y|122=20250627-05:01:55.394|123=Y|36=24|10=219|
20250627 12:01:57.385 - 8=FIX.4.4|9=90|35=5|34=24|49=ConnectToGateway|56=EchoServer|52=20250627-05:01:57.384|58=Shutting down...|10=208|
20250627 12:04:33.366 - 8=FIX.4.4|9=82|35=A|34=25|49=ConnectToGateway|56=EchoServer|52=20250627-05:04:33.278|98=0|108=30|10=147|
20250627 12:04:33.384 - 8=FIX.4.4|9=80|35=2|34=26|49=ConnectToGateway|56=EchoServer|52=20250627-05:04:33.381|7=22|16=0|10=019|
20250627 12:04:33.386 - 8=FIX.4.4|9=118|35=B|34=27|49=ConnectToGateway|56=EchoServer|52=20250627-05:04:33.385|148=Hello there|33=3|58=line1|58=line2|58=line3|10=025|
20250627 12:04:41.987 - 8=FIX.4.4|9=90|35=5|34=28|49=ConnectToGateway|56=EchoServer|52=20250627-05:04:41.986|58=Shutting down...|10=216|
20250627 12:04:57.468 - 8=FIX.4.4|9=82|35=A|34=30|49=ConnectToGateway|56=EchoServer|52=20250627-05:04:57.377|98=0|108=30|10=149|
20250627 12:04:57.487 - 8=FIX.4.4|9=80|35=2|34=31|49=ConnectToGateway|56=EchoServer|52=20250627-05:04:57.483|7=25|16=0|10=027|
20250627 12:04:57.491 - 8=FIX.4.4|9=113|35=4|34=25|49=ConnectToGateway|56=EchoServer|52=20250627-05:04:57.489|43=Y|122=20250627-05:04:33.381|123=Y|36=27|10=226|
20250627 12:04:57.492 - 8=FIX.4.4|9=149|35=B|34=27|49=ConnectToGateway|56=EchoServer|43=Y|122=20250627-05:04:33.385|52=20250627-05:04:57.490|148=Hello there|33=3|58=line1|58=line2|58=line3|10=039|
20250627 12:04:57.492 - 8=FIX.4.4|9=113|35=4|34=28|49=ConnectToGateway|56=EchoServer|52=20250627-05:04:57.490|43=Y|122=20250627-05:04:57.483|123=Y|36=32|10=226|
20250627 12:04:57.493 - 8=FIX.4.4|9=118|35=B|34=32|49=ConnectToGateway|56=EchoServer|52=20250627-05:04:57.490|148=Hello there|33=3|58=line1|58=line2|58=line3|10=024|
20250627 12:04:57.493 - 8=FIX.4.4|9=118|35=B|34=33|49=ConnectToGateway|56=EchoServer|52=20250627-05:04:57.490|148=Hello there|33=3|58=line1|58=line2|58=line3|10=025|
20250627 12:04:57.494 - 8=FIX.4.4|9=80|35=2|34=34|49=ConnectToGateway|56=EchoServer|52=20250627-05:04:57.490|7=25|16=0|10=028|
20250627 12:04:57.495 - 8=FIX.4.4|9=113|35=4|34=25|49=ConnectToGateway|56=EchoServer|52=20250627-05:04:57.492|43=Y|122=20250627-05:04:33.381|123=Y|36=27|10=220|
20250627 12:04:57.495 - 8=FIX.4.4|9=149|35=B|34=27|49=ConnectToGateway|56=EchoServer|43=Y|122=20250627-05:04:33.385|52=20250627-05:04:57.492|148=Hello there|33=3|58=line1|58=line2|58=line3|10=041|
20250627 12:04:57.495 - 8=FIX.4.4|9=113|35=4|34=28|49=ConnectToGateway|56=EchoServer|52=20250627-05:04:57.492|43=Y|122=20250627-05:04:57.483|123=Y|36=32|10=228|
20250627 12:04:57.495 - 8=FIX.4.4|9=149|35=B|34=32|49=ConnectToGateway|56=EchoServer|43=Y|122=20250627-05:04:57.490|52=20250627-05:04:57.492|148=Hello there|33=3|58=line1|58=line2|58=line3|10=040|
20250627 12:04:57.495 - 8=FIX.4.4|9=149|35=B|34=33|49=ConnectToGateway|56=EchoServer|43=Y|122=20250627-05:04:57.490|52=20250627-05:04:57.492|148=Hello there|33=3|58=line1|58=line2|58=line3|10=041|
20250627 12:04:57.495 - 8=FIX.4.4|9=113|35=4|34=34|49=ConnectToGateway|56=EchoServer|52=20250627-05:04:57.492|43=Y|122=20250627-05:04:57.490|123=Y|36=35|10=226|
20250627 12:05:27.493 - 8=FIX.4.4|9=70|35=0|34=35|49=ConnectToGateway|56=EchoServer|52=20250627-05:05:27.492|10=105|
20250627 12:05:57.493 - 8=FIX.4.4|9=70|35=0|34=36|49=ConnectToGateway|56=EchoServer|52=20250627-05:05:57.493|10=110|
20250627 12:06:27.494 - 8=FIX.4.4|9=70|35=0|34=37|49=ConnectToGateway|56=EchoServer|52=20250627-05:06:27.493|10=109|
20250627 12:06:40.098 - 8=FIX.4.4|9=90|35=5|34=38|49=ConnectToGateway|56=EchoServer|52=20250627-05:06:40.097|58=Shutting down...|10=211|
20250627 12:07:01.185 - 8=FIX.4.4|9=83|35=A|34=127|49=ConnectToGateway|56=EchoServer|52=20250627-05:07:01.096|98=0|108=30|10=195|20250627 12:07:01.205 - 8=FIX.4.4|9=80|35=2|34=42|49=ConnectToGateway|56=EchoServer|52=20250627-05:07:01.202|7=35|16=0|10=011|
20250627 12:07:01.209 - 8=FIX.4.4|9=113|35=4|34=39|49=ConnectToGateway|56=EchoServer|52=20250627-05:07:01.207|43=Y|122=20250627-05:07:01.202|123=Y|36=43|10=199|
20250627 12:07:01.210 - 8=FIX.4.4|9=118|35=B|34=43|49=ConnectToGateway|56=EchoServer|52=20250627-05:07:01.207|148=Hello there|33=3|58=line1|58=line2|58=line3|10=014|
20250627 12:07:01.210 - 8=FIX.4.4|9=118|35=B|34=44|49=ConnectToGateway|56=EchoServer|52=20250627-05:07:01.207|148=Hello there|33=3|58=line1|58=line2|58=line3|10=015|
20250627 12:07:01.210 - 8=FIX.4.4|9=118|35=B|34=45|49=ConnectToGateway|56=EchoServer|52=20250627-05:07:01.207|148=Hello there|33=3|58=line1|58=line2|58=line3|10=016|
20250627 12:07:01.211 - 8=FIX.4.4|9=80|35=2|34=46|49=ConnectToGateway|56=EchoServer|52=20250627-05:07:01.208|7=35|16=0|10=021|
20250627 12:07:01.212 - 8=FIX.4.4|9=113|35=4|34=39|49=ConnectToGateway|56=EchoServer|52=20250627-05:07:01.209|43=Y|122=20250627-05:07:01.202|123=Y|36=43|10=201|
20250627 12:07:01.212 - 8=FIX.4.4|9=149|35=B|34=43|49=ConnectToGateway|56=EchoServer|43=Y|122=20250627-05:07:01.207|52=20250627-05:07:01.209|148=Hello there|33=3|58=line1|58=line2|58=line3|10=018|
20250627 12:07:01.212 - 8=FIX.4.4|9=149|35=B|34=44|49=ConnectToGateway|56=EchoServer|43=Y|122=20250627-05:07:01.207|52=20250627-05:07:01.210|148=Hello there|33=3|58=line1|58=line2|58=line3|10=011|
20250627 12:07:01.213 - 8=FIX.4.4|9=149|35=B|34=45|49=ConnectToGateway|56=EchoServer|43=Y|122=20250627-05:07:01.207|52=20250627-05:07:01.210|148=Hello there|33=3|58=line1|58=line2|58=line3|10=012|
20250627 12:07:01.213 - 8=FIX.4.4|9=113|35=4|34=46|49=ConnectToGateway|56=EchoServer|52=20250627-05:07:01.210|43=Y|122=20250627-05:07:01.208|123=Y|36=47|10=201|
20250627 12:07:25.096 - 8=FIX.4.4|9=90|35=5|34=47|49=ConnectToGateway|56=EchoServer|52=20250627-05:07:25.096|58=Shutting down...|10=214|
20250627 12:08:50.482 - 8=FIX.4.4|9=82|35=A|34=48|49=ConnectToGateway|56=EchoServer|52=20250627-05:08:50.390|98=0|108=30|10=150|
20250627 12:08:50.501 - 8=FIX.4.4|9=80|35=2|34=49|49=ConnectToGateway|56=EchoServer|52=20250627-05:08:50.497|7=42|16=0|10=037|
20250627 12:08:50.504 - 8=FIX.4.4|9=118|35=B|34=50|49=ConnectToGateway|56=EchoServer|52=20250627-05:08:50.502|148=Hello there|33=3|58=line1|58=line2|58=line3|10=015|
20250627 12:09:20.503 - 8=FIX.4.4|9=70|35=0|34=51|49=ConnectToGateway|56=EchoServer|52=20250627-05:09:20.503|10=093|
20250627 12:09:35.516 - 8=FIX.4.4|9=90|35=5|34=52|49=ConnectToGateway|56=EchoServer|52=20250627-05:09:35.515|58=Shutting down...|10=209|
20250627 13:15:25.761 - 8=FIX.4.4|9=83|35=A|34=142|49=ConnectToGateway|56=EchoServer|52=20250627-06:15:25.748|98=0|108=30|10=202|
20250627 13:15:25.767 - 8=FIX.4.4|9=122|35=5|34=143|49=ConnectToGateway|56=EchoServer|52=20250627-06:15:25.766|58=Incoming seq number 47 is less then expected 92|10=235|
20250627 13:15:34.719 - 8=FIX.4.4|9=83|35=A|34=144|49=ConnectToGateway|56=EchoServer|52=20250627-06:15:34.713|98=0|108=30|10=196|
20250627 13:15:34.725 - 8=FIX.4.4|9=122|35=5|34=145|49=ConnectToGateway|56=EchoServer|52=20250627-06:15:34.724|58=Incoming seq number 50 is less then expected 92|10=225|
20250627 13:15:48.282 - 8=FIX.4.4|9=83|35=A|34=146|49=ConnectToGateway|56=EchoServer|52=20250627-06:15:48.190|98=0|108=30|10=202|20250627 13:15:48.301 - 8=FIX.4.4|9=80|35=2|34=67|49=ConnectToGateway|56=EchoServer|52=20250627-06:15:48.298|7=46|16=0|10=046|
20250627 13:15:48.306 - 8=FIX.4.4|9=113|35=4|34=48|49=ConnectToGateway|56=EchoServer|52=20250627-06:15:48.304|43=Y|122=20250627-05:08:50.497|123=Y|36=50|10=227|
20250627 13:15:48.307 - 8=FIX.4.4|9=149|35=B|34=50|49=ConnectToGateway|56=EchoServer|43=Y|122=20250627-05:08:50.502|52=20250627-06:15:48.305|148=Hello there|33=3|58=line1|58=line2|58=line3|10=027|
20250627 13:15:48.308 - 8=FIX.4.4|9=113|35=4|34=51|49=ConnectToGateway|56=EchoServer|52=20250627-06:15:48.306|43=Y|122=20250627-06:15:48.298|123=Y|36=68|10=237|
20250627 13:15:48.308 - 8=FIX.4.4|9=118|35=B|34=68|49=ConnectToGateway|56=EchoServer|52=20250627-06:15:48.306|148=Hello there|33=3|58=line1|58=line2|58=line3|10=032|
20250627 13:15:48.308 - 8=FIX.4.4|9=118|35=B|34=69|49=ConnectToGateway|56=EchoServer|52=20250627-06:15:48.306|148=Hello there|33=3|58=line1|58=line2|58=line3|10=033|
20250627 13:15:48.308 - 8=FIX.4.4|9=118|35=B|34=70|49=ConnectToGateway|56=EchoServer|52=20250627-06:15:48.306|148=Hello there|33=3|58=line1|58=line2|58=line3|10=025|
20250627 13:15:48.308 - 8=FIX.4.4|9=118|35=B|34=71|49=ConnectToGateway|56=EchoServer|52=20250627-06:15:48.306|148=Hello there|33=3|58=line1|58=line2|58=line3|10=026|
20250627 13:15:48.308 - 8=FIX.4.4|9=118|35=B|34=72|49=ConnectToGateway|56=EchoServer|52=20250627-06:15:48.306|148=Hello there|33=3|58=line1|58=line2|58=line3|10=027|
20250627 13:15:48.308 - 8=FIX.4.4|9=118|35=B|34=73|49=ConnectToGateway|56=EchoServer|52=20250627-06:15:48.306|148=Hello there|33=3|58=line1|58=line2|58=line3|10=028|
20250627 13:15:48.308 - 8=FIX.4.4|9=118|35=B|34=74|49=ConnectToGateway|56=EchoServer|52=20250627-06:15:48.306|148=Hello there|33=3|58=line1|58=line2|58=line3|10=029|
20250627 13:15:48.308 - 8=FIX.4.4|9=118|35=B|34=75|49=ConnectToGateway|56=EchoServer|52=20250627-06:15:48.306|148=Hello there|33=3|58=line1|58=line2|58=line3|10=030|
20250627 13:15:48.310 - 8=FIX.4.4|9=80|35=2|34=76|49=ConnectToGateway|56=EchoServer|52=20250627-06:15:48.306|7=46|16=0|10=036|
20250627 13:15:48.311 - 8=FIX.4.4|9=113|35=4|34=48|49=ConnectToGateway|56=EchoServer|52=20250627-06:15:48.308|43=Y|122=20250627-05:08:50.497|123=Y|36=50|10=231|
20250627 13:15:48.311 - 8=FIX.4.4|9=149|35=B|34=50|49=ConnectToGateway|56=EchoServer|43=Y|122=20250627-05:08:50.502|52=20250627-06:15:48.308|148=Hello there|33=3|58=line1|58=line2|58=line3|10=030|
20250627 13:15:48.311 - 8=FIX.4.4|9=113|35=4|34=51|49=ConnectToGateway|56=EchoServer|52=20250627-06:15:48.308|43=Y|122=20250627-06:15:48.298|123=Y|36=68|10=239|
20250627 13:15:48.311 - 8=FIX.4.4|9=149|35=B|34=68|49=ConnectToGateway|56=EchoServer|43=Y|122=20250627-06:15:48.306|52=20250627-06:15:48.308|148=Hello there|33=3|58=line1|58=line2|58=line3|10=047|
20250627 13:15:48.311 - 8=FIX.4.4|9=149|35=B|34=69|49=ConnectToGateway|56=EchoServer|43=Y|122=20250627-06:15:48.306|52=20250627-06:15:48.308|148=Hello there|33=3|58=line1|58=line2|58=line3|10=048|
20250627 13:15:48.311 - 8=FIX.4.4|9=149|35=B|34=70|49=ConnectToGateway|56=EchoServer|43=Y|122=20250627-06:15:48.306|52=20250627-06:15:48.308|148=Hello there|33=3|58=line1|58=line2|58=line3|10=040|
20250627 13:15:48.311 - 8=FIX.4.4|9=149|35=B|34=71|49=ConnectToGateway|56=EchoServer|43=Y|122=20250627-06:15:48.306|52=20250627-06:15:48.308|148=Hello there|33=3|58=line1|58=line2|58=line3|10=041|
20250627 13:15:48.311 - 8=FIX.4.4|9=149|35=B|34=72|49=ConnectToGateway|56=EchoServer|43=Y|122=20250627-06:15:48.306|52=20250627-06:15:48.308|148=Hello there|33=3|58=line1|58=line2|58=line3|10=042|
20250627 13:15:48.311 - 8=FIX.4.4|9=149|35=B|34=73|49=ConnectToGateway|56=EchoServer|43=Y|122=20250627-06:15:48.306|52=20250627-06:15:48.308|148=Hello there|33=3|58=line1|58=line2|58=line3|10=043|
20250627 13:15:48.311 - 8=FIX.4.4|9=149|35=B|34=74|49=ConnectToGateway|56=EchoServer|43=Y|122=20250627-06:15:48.306|52=20250627-06:15:48.308|148=Hello there|33=3|58=line1|58=line2|58=line3|10=044|
20250627 13:15:48.311 - 8=FIX.4.4|9=149|35=B|34=75|49=ConnectToGateway|56=EchoServer|43=Y|122=20250627-06:15:48.306|52=20250627-06:15:48.308|148=Hello there|33=3|58=line1|58=line2|58=line3|10=045|
20250627 13:15:48.311 - 8=FIX.4.4|9=113|35=4|34=76|49=ConnectToGateway|56=EchoServer|52=20250627-06:15:48.308|43=Y|122=20250627-06:15:48.306|123=Y|36=77|10=236|
20250627 13:16:18.309 - 8=FIX.4.4|9=70|35=0|34=77|49=ConnectToGateway|56=EchoServer|52=20250627-06:16:18.308|10=110|
20250627 13:16:48.309 - 8=FIX.4.4|9=70|35=0|34=78|49=ConnectToGateway|56=EchoServer|52=20250627-06:16:48.309|10=115|
20250627 13:17:18.310 - 8=FIX.4.4|9=70|35=0|34=79|49=ConnectToGateway|56=EchoServer|52=20250627-06:17:18.309|10=114|
20250627 13:17:48.310 - 8=FIX.4.4|9=70|35=0|34=80|49=ConnectToGateway|56=EchoServer|52=20250627-06:17:48.310|10=101|
20250627 13:18:18.310 - 8=FIX.4.4|9=70|35=0|34=81|49=ConnectToGateway|56=EchoServer|52=20250627-06:18:18.310|10=100|
20250627 13:18:48.311 - 8=FIX.4.4|9=70|35=0|34=82|49=ConnectToGateway|56=EchoServer|52=20250627-06:18:48.311|10=105|
20250627 13:19:18.311 - 8=FIX.4.4|9=70|35=0|34=83|49=ConnectToGateway|56=EchoServer|52=20250627-06:19:18.311|10=104|
20250627 13:19:48.312 - 8=FIX.4.4|9=70|35=0|34=84|49=ConnectToGateway|56=EchoServer|52=20250627-06:19:48.311|10=108|
20250627 13:20:18.312 - 8=FIX.4.4|9=70|35=0|34=85|49=ConnectToGateway|56=EchoServer|52=20250627-06:20:18.312|10=099|
20250627 13:20:21.190 - 8=FIX.4.4|9=90|35=5|34=86|49=ConnectToGateway|56=EchoServer|52=20250627-06:20:21.190|58=Shutting down...|10=204|
20250627 13:20:31.319 - 8=FIX.4.4|9=83|35=A|34=148|49=ConnectToGateway|56=EchoServer|52=20250627-06:20:31.231|98=0|108=30|10=188|20250627 13:20:31.337 - 8=FIX.4.4|9=80|35=2|34=88|49=ConnectToGateway|56=EchoServer|52=20250627-06:20:31.334|7=74|16=0|10=029|
20250627 13:20:31.340 - 8=FIX.4.4|9=118|35=B|34=89|49=ConnectToGateway|56=EchoServer|52=20250627-06:20:31.339|148=Hello there|33=3|58=line1|58=line2|58=line3|10=029|
20250627 13:21:01.339 - 8=FIX.4.4|9=70|35=0|34=90|49=ConnectToGateway|56=EchoServer|52=20250627-06:21:01.339|10=097|
20250627 13:21:31.340 - 8=FIX.4.4|9=70|35=0|34=91|49=ConnectToGateway|56=EchoServer|52=20250627-06:21:31.339|10=101|
20250627 13:21:58.145 - 8=FIX.4.4|9=82|35=A|34=92|49=ConnectToGateway|56=EchoServer|52=20250627-06:21:58.052|98=0|108=30|10=148|
20250627 13:21:58.165 - 8=FIX.4.4|9=113|35=4|34=87|49=ConnectToGateway|56=EchoServer|52=20250627-06:21:58.164|43=Y|122=20250627-06:20:31.334|123=Y|36=89|10=228|
20250627 13:21:58.167 - 8=FIX.4.4|9=149|35=B|34=89|49=ConnectToGateway|56=EchoServer|43=Y|122=20250627-06:20:31.339|52=20250627-06:21:58.165|148=Hello there|33=3|58=line1|58=line2|58=line3|10=043|
20250627 13:21:58.168 - 8=FIX.4.4|9=113|35=4|34=90|49=ConnectToGateway|56=EchoServer|52=20250627-06:21:58.165|43=Y|122=20250627-06:21:58.052|123=Y|36=93|10=225|
20250627 13:21:58.168 - 8=FIX.4.4|9=118|35=B|34=93|49=ConnectToGateway|56=EchoServer|52=20250627-06:21:58.165|148=Hello there|33=3|58=line1|58=line2|58=line3|10=031|
20250627 13:22:09.702 - 8=FIX.4.4|9=90|35=5|34=94|49=ConnectToGateway|56=EchoServer|52=20250627-06:22:09.702|58=Shutting down...|10=210|
20250627 13:23:37.806 - 8=FIX.4.4|9=82|35=A|34=95|49=ConnectToGateway|56=EchoServer|52=20250627-06:23:37.719|98=0|108=30|10=160|
20250627 13:23:37.825 - 8=FIX.4.4|9=80|35=2|34=96|49=ConnectToGateway|56=EchoServer|52=20250627-06:23:37.821|7=83|16=0|10=038|
20250627 13:23:37.827 - 8=FIX.4.4|9=118|35=B|34=97|49=ConnectToGateway|56=EchoServer|52=20250627-06:23:37.826|148=Hello there|33=3|58=line1|58=line2|58=line3|10=038|
20250627 13:24:07.827 - 8=FIX.4.4|9=70|35=0|34=98|49=ConnectToGateway|56=EchoServer|52=20250627-06:24:07.826|10=115|
20250627 13:24:37.827 - 8=FIX.4.4|9=70|35=0|34=99|49=ConnectToGateway|56=EchoServer|52=20250627-06:24:37.827|10=120|
20250627 13:25:07.828 - 8=FIX.4.4|9=71|35=0|34=100|49=ConnectToGateway|56=EchoServer|52=20250627-06:25:07.827|10=150|
20250627 13:25:37.828 - 8=FIX.4.4|9=71|35=0|34=101|49=ConnectToGateway|56=EchoServer|52=20250627-06:25:37.828|10=155|
20250627 13:26:07.829 - 8=FIX.4.4|9=71|35=0|34=102|49=ConnectToGateway|56=EchoServer|52=20250627-06:26:07.828|10=154|
20250627 13:26:38.662 - 8=FIX.4.4|9=83|35=A|34=103|49=ConnectToGateway|56=EchoServer|52=20250627-06:26:38.564|98=0|108=30|10=201|
20250627 13:26:38.683 - 8=FIX.4.4|9=113|35=4|34=95|49=ConnectToGateway|56=EchoServer|52=20250627-06:26:38.681|43=Y|122=20250627-06:23:37.821|123=Y|36=97|10=243|
20250627 13:26:38.685 - 8=FIX.4.4|9=149|35=B|34=97|49=ConnectToGateway|56=EchoServer|43=Y|122=20250627-06:23:37.826|52=20250627-06:26:38.682|148=Hello there|33=3|58=line1|58=line2|58=line3|10=059|
20250627 13:26:38.686 - 8=FIX.4.4|9=114|35=4|34=98|49=ConnectToGateway|56=EchoServer|52=20250627-06:26:38.683|43=Y|122=20250627-06:26:38.564|123=Y|36=104|10=038|
20250627 13:26:38.686 - 8=FIX.4.4|9=119|35=B|34=104|49=ConnectToGateway|56=EchoServer|52=20250627-06:26:38.683|148=Hello there|33=3|58=line1|58=line2|58=line3|10=081|
20250627 13:26:46.939 - 8=FIX.4.4|9=91|35=5|34=105|49=ConnectToGateway|56=EchoServer|52=20250627-06:26:46.939|58=Shutting down...|10=013|
20250627 13:26:49.981 - 8=FIX.4.4|9=83|35=A|34=156|49=ConnectToGateway|56=EchoServer|52=20250627-06:26:49.965|98=0|108=30|10=216|
20250627 13:29:20.096 - 8=FIX.4.4|9=83|35=A|34=108|49=ConnectToGateway|56=EchoServer|52=20250627-06:29:20.090|98=0|108=30|10=194|
20250627 13:29:47.902 - 8=FIX.4.4|9=83|35=A|34=109|49=ConnectToGateway|56=EchoServer|52=20250627-06:29:47.897|98=0|108=30|10=219|
