20250627 13:52:40.078 - 8=FIX.4.2|9=84|35=A|34=129|49=ConnectToGateway3|56=EchoServer|52=20250627-06:52:39.982|98=0|108=30|10=007|
20250627 13:52:40.089 - 8=FIX.4.2|9=122|35=5|34=130|49=ConnectToGateway3|56=EchoServer|52=20250627-06:52:40.088|58=Incoming seq number 1 is less then expected 95|10=220|
20250627 14:10:10.164 - 8=FIX.4.2|9=84|35=A|34=131|49=ConnectToGateway3|56=EchoServer|52=20250627-07:10:10.150|98=0|108=30|10=227|
20250627 14:10:10.168 - 8=FIX.4.2|9=122|35=5|34=132|49=ConnectToGateway3|56=EchoServer|52=20250627-07:10:10.168|58=Incoming seq number 4 is less then expected 95|10=216|
