20250627 12:01:21.464 - 8=FIX.4.4|9=81|35=A|34=1|49=EchoServer|56=ConnectToGateway|52=20250627-05:01:21.464|98=0|108=30|10=083|
20250627 12:01:21.464 - 8=FIX.4.4|9=78|35=2|34=2|49=EchoServer|56=ConnectToGateway|52=20250627-05:01:21.464|7=1|16=0|10=173|
20250627 12:01:21.515 - 8=FIX.4.4|9=99|35=8|34=3|49=EchoServer|56=ConnectToGateway|52=20250627-05:01:21.515|35=8|150=0|39=0|37=12345|17=1|10=115|
20250627 12:01:21.515 - 8=FIX.4.4|9=99|35=8|34=4|49=EchoServer|56=ConnectToGateway|52=20250627-05:01:21.515|35=8|150=0|39=0|37=12345|17=1|10=116|
20250627 12:01:21.515 - 8=FIX.4.4|9=99|35=8|34=5|49=EchoServer|56=ConnectToGateway|52=20250627-05:01:21.515|35=8|150=0|39=0|37=12345|17=1|10=117|
20250627 12:01:21.515 - 8=FIX.4.4|9=99|35=8|34=6|49=EchoServer|56=ConnectToGateway|52=20250627-05:01:21.515|35=8|150=0|39=0|37=12345|17=1|10=118|
20250627 12:01:21.515 - 8=FIX.4.4|9=99|35=8|34=7|49=EchoServer|56=ConnectToGateway|52=20250627-05:01:21.515|35=8|150=0|39=0|37=12345|17=1|10=119|
20250627 12:01:21.515 - 8=FIX.4.4|9=99|35=8|34=8|49=EchoServer|56=ConnectToGateway|52=20250627-05:01:21.515|35=8|150=0|39=0|37=12345|17=1|10=120|
20250627 12:01:23.234 - 8=FIX.4.4|9=90|35=5|34=9|49=EchoServer|56=ConnectToGateway|52=20250627-05:01:23.234|58=Confirming logout|10=164|
20250627 12:01:30.210 - 8=FIX.4.4|9=82|35=A|34=10|49=EchoServer|56=ConnectToGateway|52=20250627-05:01:30.210|98=0|108=30|10=121|
20250627 12:01:30.210 - 8=FIX.4.4|9=80|35=2|34=11|49=EchoServer|56=ConnectToGateway|52=20250627-05:01:30.210|7=16|16=0|10=001|
20250627 12:01:30.217 - 8=FIX.4.4|9=80|35=2|34=12|49=EchoServer|56=ConnectToGateway|52=20250627-05:01:30.217|7=16|16=0|10=009|
20250627 12:01:37.674 - 8=FIX.4.4|9=82|35=A|34=13|49=EchoServer|56=ConnectToGateway|52=20250627-05:01:37.674|98=0|108=30|10=145|
20250627 12:01:37.674 - 8=FIX.4.4|9=80|35=2|34=14|49=EchoServer|56=ConnectToGateway|52=20250627-05:01:37.674|7=16|16=0|10=025|
20250627 12:01:37.680 - 8=FIX.4.4|9=80|35=2|34=15|49=EchoServer|56=ConnectToGateway|52=20250627-05:01:37.680|7=16|16=0|10=023|
20250627 12:01:55.377 - 8=FIX.4.4|9=82|35=A|34=16|49=EchoServer|56=ConnectToGateway|52=20250627-05:01:55.376|98=0|108=30|10=147|
20250627 12:01:55.381 - 8=FIX.4.4|9=80|35=2|34=17|49=EchoServer|56=ConnectToGateway|52=20250627-05:01:55.381|7=16|16=0|10=023|
20250627 12:01:55.391 - 8=FIX.4.4|9=112|35=4|34=9|49=EchoServer|56=ConnectToGateway|52=20250627-05:01:55.391|43=Y|122=20250627-05:01:55.381|123=Y|36=18|10=167|
20250627 12:01:55.392 - 8=FIX.4.4|9=80|35=2|34=18|49=EchoServer|56=ConnectToGateway|52=20250627-05:01:55.392|7=16|16=0|10=026|
20250627 12:01:55.397 - 8=FIX.4.4|9=100|35=8|34=19|49=EchoServer|56=ConnectToGateway|52=20250627-05:01:55.397|35=8|150=0|39=0|37=12345|17=1|10=216|
20250627 12:01:55.397 - 8=FIX.4.4|9=100|35=8|34=20|49=EchoServer|56=ConnectToGateway|52=20250627-05:01:55.397|35=8|150=0|39=0|37=12345|17=1|10=208|
20250627 12:01:55.397 - 8=FIX.4.4|9=100|35=8|34=21|49=EchoServer|56=ConnectToGateway|52=20250627-05:01:55.397|35=8|150=0|39=0|37=12345|17=1|10=209|
20250627 12:01:55.397 - 8=FIX.4.4|9=112|35=4|34=9|49=EchoServer|56=ConnectToGateway|52=20250627-05:01:55.397|43=Y|122=20250627-05:01:55.392|123=Y|36=19|10=176|
20250627 12:01:55.398 - 8=FIX.4.4|9=131|35=8|34=19|49=EchoServer|56=ConnectToGateway|43=Y|122=20250627-05:01:55.397|52=20250627-05:01:55.398|35=8|150=0|39=0|37=12345|17=1|10=232|
20250627 12:01:55.398 - 8=FIX.4.4|9=131|35=8|34=20|49=EchoServer|56=ConnectToGateway|43=Y|122=20250627-05:01:55.397|52=20250627-05:01:55.398|35=8|150=0|39=0|37=12345|17=1|10=224|
20250627 12:01:55.398 - 8=FIX.4.4|9=131|35=8|34=21|49=EchoServer|56=ConnectToGateway|43=Y|122=20250627-05:01:55.397|52=20250627-05:01:55.398|35=8|150=0|39=0|37=12345|17=1|10=225|
20250627 12:01:57.385 - 8=FIX.4.4|9=91|35=5|34=22|49=EchoServer|56=ConnectToGateway|52=20250627-05:01:57.385|58=Confirming logout|10=222|
20250627 12:04:33.371 - 8=FIX.4.4|9=82|35=A|34=23|49=EchoServer|56=ConnectToGateway|52=20250627-05:04:33.370|98=0|108=30|10=138|
20250627 12:04:33.384 - 8=FIX.4.4|9=113|35=4|34=22|49=EchoServer|56=ConnectToGateway|52=20250627-05:04:33.384|43=Y|122=20250627-05:04:33.370|123=Y|36=24|10=206|
20250627 12:04:33.386 - 8=FIX.4.4|9=100|35=8|34=24|49=EchoServer|56=ConnectToGateway|52=20250627-05:04:33.386|35=8|150=0|39=0|37=12345|17=1|10=209|
20250627 12:04:41.986 - 8=FIX.4.4|9=91|35=5|34=25|49=EchoServer|56=ConnectToGateway|52=20250627-05:04:41.986|58=Confirming logout|10=228|
20250627 12:04:57.475 - 8=FIX.4.4|9=82|35=A|34=26|49=EchoServer|56=ConnectToGateway|52=20250627-05:04:57.474|98=0|108=30|10=152|
20250627 12:04:57.477 - 8=FIX.4.4|9=80|35=2|34=27|49=EchoServer|56=ConnectToGateway|52=20250627-05:04:57.476|7=25|16=0|10=034|
20250627 12:04:57.486 - 8=FIX.4.4|9=113|35=4|34=25|49=EchoServer|56=ConnectToGateway|52=20250627-05:04:57.486|43=Y|122=20250627-05:04:57.476|123=Y|36=28|10=235|
20250627 12:04:57.487 - 8=FIX.4.4|9=80|35=2|34=28|49=EchoServer|56=ConnectToGateway|52=20250627-05:04:57.487|7=25|16=0|10=037|
20250627 12:04:57.492 - 8=FIX.4.4|9=100|35=8|34=29|49=EchoServer|56=ConnectToGateway|52=20250627-05:04:57.492|35=8|150=0|39=0|37=12345|17=1|10=218|
20250627 12:04:57.492 - 8=FIX.4.4|9=100|35=8|34=30|49=EchoServer|56=ConnectToGateway|52=20250627-05:04:57.492|35=8|150=0|39=0|37=12345|17=1|10=210|
20250627 12:04:57.493 - 8=FIX.4.4|9=100|35=8|34=31|49=EchoServer|56=ConnectToGateway|52=20250627-05:04:57.493|35=8|150=0|39=0|37=12345|17=1|10=212|
20250627 12:04:57.493 - 8=FIX.4.4|9=113|35=4|34=25|49=EchoServer|56=ConnectToGateway|52=20250627-05:04:57.493|43=Y|122=20250627-05:04:57.487|123=Y|36=29|10=236|
20250627 12:04:57.494 - 8=FIX.4.4|9=131|35=8|34=29|49=EchoServer|56=ConnectToGateway|43=Y|122=20250627-05:04:57.492|52=20250627-05:04:57.493|35=8|150=0|39=0|37=12345|17=1|10=235|
20250627 12:04:57.494 - 8=FIX.4.4|9=131|35=8|34=30|49=EchoServer|56=ConnectToGateway|43=Y|122=20250627-05:04:57.492|52=20250627-05:04:57.494|35=8|150=0|39=0|37=12345|17=1|10=228|
20250627 12:04:57.494 - 8=FIX.4.4|9=131|35=8|34=31|49=EchoServer|56=ConnectToGateway|43=Y|122=20250627-05:04:57.493|52=20250627-05:04:57.494|35=8|150=0|39=0|37=12345|17=1|10=230|
20250627 12:05:27.494 - 8=FIX.4.4|9=70|35=0|34=32|49=EchoServer|56=ConnectToGateway|52=20250627-05:05:27.494|10=104|
20250627 12:05:57.494 - 8=FIX.4.4|9=70|35=0|34=33|49=EchoServer|56=ConnectToGateway|52=20250627-05:05:57.494|10=108|
20250627 12:06:27.494 - 8=FIX.4.4|9=70|35=0|34=34|49=EchoServer|56=ConnectToGateway|52=20250627-05:06:27.494|10=107|
20250627 12:06:40.098 - 8=FIX.4.4|9=91|35=5|34=35|49=EchoServer|56=ConnectToGateway|52=20250627-05:06:40.098|58=Confirming logout|10=224|
20250627 12:07:01.191 - 8=FIX.4.4|9=82|35=A|34=36|49=EchoServer|56=ConnectToGateway|52=20250627-05:07:01.190|98=0|108=30|10=140|
20250627 12:07:01.192 - 8=FIX.4.4|9=80|35=2|34=37|49=EchoServer|56=ConnectToGateway|52=20250627-05:07:01.192|7=39|16=0|10=027|
20250627 12:07:01.205 - 8=FIX.4.4|9=113|35=4|34=35|49=EchoServer|56=ConnectToGateway|52=20250627-05:07:01.205|43=Y|122=20250627-05:07:01.192|123=Y|36=38|10=205|
20250627 12:07:01.205 - 8=FIX.4.4|9=80|35=2|34=38|49=EchoServer|56=ConnectToGateway|52=20250627-05:07:01.205|7=39|16=0|10=023|
20250627 12:07:01.210 - 8=FIX.4.4|9=100|35=8|34=39|49=EchoServer|56=ConnectToGateway|52=20250627-05:07:01.210|35=8|150=0|39=0|37=12345|17=1|10=199|
20250627 12:07:01.210 - 8=FIX.4.4|9=100|35=8|34=40|49=EchoServer|56=ConnectToGateway|52=20250627-05:07:01.210|35=8|150=0|39=0|37=12345|17=1|10=191|
20250627 12:07:01.210 - 8=FIX.4.4|9=100|35=8|34=41|49=EchoServer|56=ConnectToGateway|52=20250627-05:07:01.210|35=8|150=0|39=0|37=12345|17=1|10=192|
20250627 12:07:01.210 - 8=FIX.4.4|9=113|35=4|34=35|49=EchoServer|56=ConnectToGateway|52=20250627-05:07:01.210|43=Y|122=20250627-05:07:01.205|123=Y|36=39|10=197|
20250627 12:07:01.211 - 8=FIX.4.4|9=131|35=8|34=39|49=EchoServer|56=ConnectToGateway|43=Y|122=20250627-05:07:01.210|52=20250627-05:07:01.211|35=8|150=0|39=0|37=12345|17=1|10=196|
20250627 12:07:01.211 - 8=FIX.4.4|9=131|35=8|34=40|49=EchoServer|56=ConnectToGateway|43=Y|122=20250627-05:07:01.210|52=20250627-05:07:01.211|35=8|150=0|39=0|37=12345|17=1|10=188|
20250627 12:07:01.211 - 8=FIX.4.4|9=131|35=8|34=41|49=EchoServer|56=ConnectToGateway|43=Y|122=20250627-05:07:01.210|52=20250627-05:07:01.211|35=8|150=0|39=0|37=12345|17=1|10=189|
20250627 12:07:25.096 - 8=FIX.4.4|9=91|35=5|34=42|49=EchoServer|56=ConnectToGateway|52=20250627-05:07:25.096|58=Confirming logout|10=224|
20250627 12:08:50.489 - 8=FIX.4.4|9=82|35=A|34=43|49=EchoServer|56=ConnectToGateway|52=20250627-05:08:50.488|98=0|108=30|10=153|
20250627 12:08:50.501 - 8=FIX.4.4|9=113|35=4|34=42|49=EchoServer|56=ConnectToGateway|52=20250627-05:08:50.500|43=Y|122=20250627-05:08:50.488|123=Y|36=44|10=216|
20250627 12:08:50.504 - 8=FIX.4.4|9=100|35=8|34=44|49=EchoServer|56=ConnectToGateway|52=20250627-05:08:50.504|35=8|150=0|39=0|37=12345|17=1|10=206|
20250627 12:09:20.504 - 8=FIX.4.4|9=70|35=0|34=45|49=EchoServer|56=ConnectToGateway|52=20250627-05:09:20.504|10=097|
20250627 12:09:35.516 - 8=FIX.4.4|9=91|35=5|34=46|49=EchoServer|56=ConnectToGateway|52=20250627-05:09:35.516|58=Confirming logout|10=228|
20250627 13:15:25.761 - 8=FIX.4.4|9=82|35=A|34=47|49=EchoServer|56=ConnectToGateway|52=20250627-06:15:25.761|98=0|108=30|10=152|
20250627 13:15:25.761 - 8=FIX.4.4|9=80|35=2|34=48|49=EchoServer|56=ConnectToGateway|52=20250627-06:15:25.761|7=48|16=0|10=037|
20250627 13:15:25.767 - 8=FIX.4.4|9=80|35=2|34=49|49=EchoServer|56=ConnectToGateway|52=20250627-06:15:25.767|7=48|16=0|10=044|
20250627 13:15:34.719 - 8=FIX.4.4|9=82|35=A|34=50|49=EchoServer|56=ConnectToGateway|52=20250627-06:15:34.719|98=0|108=30|10=149|
20250627 13:15:34.719 - 8=FIX.4.4|9=80|35=2|34=51|49=EchoServer|56=ConnectToGateway|52=20250627-06:15:34.719|7=48|16=0|10=034|
20250627 13:15:34.725 - 8=FIX.4.4|9=80|35=2|34=52|49=EchoServer|56=ConnectToGateway|52=20250627-06:15:34.725|7=48|16=0|10=032|
20250627 13:15:48.287 - 8=FIX.4.4|9=82|35=A|34=53|49=EchoServer|56=ConnectToGateway|52=20250627-06:15:48.286|98=0|108=30|10=156|
20250627 13:15:48.290 - 8=FIX.4.4|9=80|35=2|34=54|49=EchoServer|56=ConnectToGateway|52=20250627-06:15:48.290|7=48|16=0|10=036|
20250627 13:15:48.301 - 8=FIX.4.4|9=113|35=4|34=46|49=EchoServer|56=ConnectToGateway|52=20250627-06:15:48.301|43=Y|122=20250627-06:15:48.290|123=Y|36=55|10=224|
20250627 13:15:48.301 - 8=FIX.4.4|9=80|35=2|34=55|49=EchoServer|56=ConnectToGateway|52=20250627-06:15:48.301|7=48|16=0|10=030|
20250627 13:15:48.307 - 8=FIX.4.4|9=100|35=8|34=56|49=EchoServer|56=ConnectToGateway|52=20250627-06:15:48.307|35=8|150=0|39=0|37=12345|17=1|10=216|
20250627 13:15:48.308 - 8=FIX.4.4|9=100|35=8|34=57|49=EchoServer|56=ConnectToGateway|52=20250627-06:15:48.308|35=8|150=0|39=0|37=12345|17=1|10=218|
20250627 13:15:48.308 - 8=FIX.4.4|9=100|35=8|34=58|49=EchoServer|56=ConnectToGateway|52=20250627-06:15:48.308|35=8|150=0|39=0|37=12345|17=1|10=219|
20250627 13:15:48.308 - 8=FIX.4.4|9=100|35=8|34=59|49=EchoServer|56=ConnectToGateway|52=20250627-06:15:48.308|35=8|150=0|39=0|37=12345|17=1|10=220|
20250627 13:15:48.308 - 8=FIX.4.4|9=100|35=8|34=60|49=EchoServer|56=ConnectToGateway|52=20250627-06:15:48.308|35=8|150=0|39=0|37=12345|17=1|10=212|
20250627 13:15:48.308 - 8=FIX.4.4|9=100|35=8|34=61|49=EchoServer|56=ConnectToGateway|52=20250627-06:15:48.308|35=8|150=0|39=0|37=12345|17=1|10=213|
20250627 13:15:48.308 - 8=FIX.4.4|9=100|35=8|34=62|49=EchoServer|56=ConnectToGateway|52=20250627-06:15:48.308|35=8|150=0|39=0|37=12345|17=1|10=214|
20250627 13:15:48.308 - 8=FIX.4.4|9=100|35=8|34=63|49=EchoServer|56=ConnectToGateway|52=20250627-06:15:48.308|35=8|150=0|39=0|37=12345|17=1|10=215|
20250627 13:15:48.308 - 8=FIX.4.4|9=100|35=8|34=64|49=EchoServer|56=ConnectToGateway|52=20250627-06:15:48.308|35=8|150=0|39=0|37=12345|17=1|10=216|
20250627 13:15:48.308 - 8=FIX.4.4|9=113|35=4|34=46|49=EchoServer|56=ConnectToGateway|52=20250627-06:15:48.308|43=Y|122=20250627-06:15:48.301|123=Y|36=56|10=225|
20250627 13:15:48.309 - 8=FIX.4.4|9=131|35=8|34=56|49=EchoServer|56=ConnectToGateway|43=Y|122=20250627-06:15:48.307|52=20250627-06:15:48.309|35=8|150=0|39=0|37=12345|17=1|10=232|
20250627 13:15:48.309 - 8=FIX.4.4|9=131|35=8|34=57|49=EchoServer|56=ConnectToGateway|43=Y|122=20250627-06:15:48.308|52=20250627-06:15:48.309|35=8|150=0|39=0|37=12345|17=1|10=234|
20250627 13:15:48.309 - 8=FIX.4.4|9=131|35=8|34=58|49=EchoServer|56=ConnectToGateway|43=Y|122=20250627-06:15:48.308|52=20250627-06:15:48.309|35=8|150=0|39=0|37=12345|17=1|10=235|
20250627 13:15:48.310 - 8=FIX.4.4|9=131|35=8|34=59|49=EchoServer|56=ConnectToGateway|43=Y|122=20250627-06:15:48.308|52=20250627-06:15:48.309|35=8|150=0|39=0|37=12345|17=1|10=236|
20250627 13:15:48.310 - 8=FIX.4.4|9=131|35=8|34=60|49=EchoServer|56=ConnectToGateway|43=Y|122=20250627-06:15:48.308|52=20250627-06:15:48.310|35=8|150=0|39=0|37=12345|17=1|10=220|
20250627 13:15:48.310 - 8=FIX.4.4|9=131|35=8|34=61|49=EchoServer|56=ConnectToGateway|43=Y|122=20250627-06:15:48.308|52=20250627-06:15:48.310|35=8|150=0|39=0|37=12345|17=1|10=221|
20250627 13:15:48.310 - 8=FIX.4.4|9=131|35=8|34=62|49=EchoServer|56=ConnectToGateway|43=Y|122=20250627-06:15:48.308|52=20250627-06:15:48.310|35=8|150=0|39=0|37=12345|17=1|10=222|
20250627 13:15:48.310 - 8=FIX.4.4|9=131|35=8|34=63|49=EchoServer|56=ConnectToGateway|43=Y|122=20250627-06:15:48.308|52=20250627-06:15:48.310|35=8|150=0|39=0|37=12345|17=1|10=223|
20250627 13:15:48.310 - 8=FIX.4.4|9=131|35=8|34=64|49=EchoServer|56=ConnectToGateway|43=Y|122=20250627-06:15:48.308|52=20250627-06:15:48.310|35=8|150=0|39=0|37=12345|17=1|10=224|
20250627 13:16:18.310 - 8=FIX.4.4|9=70|35=0|34=65|49=EchoServer|56=ConnectToGateway|52=20250627-06:16:18.310|10=100|
20250627 13:16:48.310 - 8=FIX.4.4|9=70|35=0|34=66|49=EchoServer|56=ConnectToGateway|52=20250627-06:16:48.310|10=104|
20250627 13:17:18.310 - 8=FIX.4.4|9=70|35=0|34=67|49=EchoServer|56=ConnectToGateway|52=20250627-06:17:18.310|10=103|
20250627 13:17:48.310 - 8=FIX.4.4|9=70|35=0|34=68|49=EchoServer|56=ConnectToGateway|52=20250627-06:17:48.310|10=107|
20250627 13:18:18.310 - 8=FIX.4.4|9=70|35=0|34=69|49=EchoServer|56=ConnectToGateway|52=20250627-06:18:18.310|10=106|
20250627 13:18:48.310 - 8=FIX.4.4|9=70|35=0|34=70|49=EchoServer|56=ConnectToGateway|52=20250627-06:18:48.310|10=101|
20250627 13:19:18.311 - 8=FIX.4.4|9=70|35=0|34=71|49=EchoServer|56=ConnectToGateway|52=20250627-06:19:18.311|10=101|
20250627 13:19:48.311 - 8=FIX.4.4|9=70|35=0|34=72|49=EchoServer|56=ConnectToGateway|52=20250627-06:19:48.311|10=105|
20250627 13:20:18.312 - 8=FIX.4.4|9=70|35=0|34=73|49=EchoServer|56=ConnectToGateway|52=20250627-06:20:18.312|10=096|
20250627 13:20:21.190 - 8=FIX.4.4|9=91|35=5|34=74|49=EchoServer|56=ConnectToGateway|52=20250627-06:20:21.190|58=Confirming logout|10=216|
20250627 13:20:31.324 - 8=FIX.4.4|9=82|35=A|34=75|49=EchoServer|56=ConnectToGateway|52=20250627-06:20:31.323|98=0|108=30|10=140|
20250627 13:20:31.337 - 8=FIX.4.4|9=113|35=4|34=74|49=EchoServer|56=ConnectToGateway|52=20250627-06:20:31.337|43=Y|122=20250627-06:20:31.323|123=Y|36=76|10=210|
20250627 13:20:31.340 - 8=FIX.4.4|9=100|35=8|34=76|49=EchoServer|56=ConnectToGateway|52=20250627-06:20:31.340|35=8|150=0|39=0|37=12345|17=1|10=203|
20250627 13:21:01.340 - 8=FIX.4.4|9=70|35=0|34=77|49=EchoServer|56=ConnectToGateway|52=20250627-06:21:01.340|10=094|
20250627 13:21:31.341 - 8=FIX.4.4|9=70|35=0|34=78|49=EchoServer|56=ConnectToGateway|52=20250627-06:21:31.341|10=099|
20250627 13:21:58.151 - 8=FIX.4.4|9=82|35=A|34=79|49=EchoServer|56=ConnectToGateway|52=20250627-06:21:58.150|98=0|108=30|10=152|
20250627 13:21:58.153 - 8=FIX.4.4|9=80|35=2|34=80|49=EchoServer|56=ConnectToGateway|52=20250627-06:21:58.153|7=87|16=0|10=034|
20250627 13:21:58.168 - 8=FIX.4.4|9=100|35=8|34=81|49=EchoServer|56=ConnectToGateway|52=20250627-06:21:58.168|35=8|150=0|39=0|37=12345|17=1|10=217|
20250627 13:21:58.168 - 8=FIX.4.4|9=100|35=8|34=82|49=EchoServer|56=ConnectToGateway|52=20250627-06:21:58.168|35=8|150=0|39=0|37=12345|17=1|10=218|
20250627 13:22:09.702 - 8=FIX.4.4|9=91|35=5|34=83|49=EchoServer|56=ConnectToGateway|52=20250627-06:22:09.702|58=Confirming logout|10=223|
20250627 13:23:37.811 - 8=FIX.4.4|9=82|35=A|34=84|49=EchoServer|56=ConnectToGateway|52=20250627-06:23:37.810|98=0|108=30|10=150|
20250627 13:23:37.825 - 8=FIX.4.4|9=113|35=4|34=83|49=EchoServer|56=ConnectToGateway|52=20250627-06:23:37.824|43=Y|122=20250627-06:23:37.810|123=Y|36=85|10=230|
20250627 13:23:37.827 - 8=FIX.4.4|9=100|35=8|34=85|49=EchoServer|56=ConnectToGateway|52=20250627-06:23:37.827|35=8|150=0|39=0|37=12345|17=1|10=222|
20250627 13:24:07.827 - 8=FIX.4.4|9=70|35=0|34=86|49=EchoServer|56=ConnectToGateway|52=20250627-06:24:07.827|10=113|
20250627 13:24:37.827 - 8=FIX.4.4|9=70|35=0|34=87|49=EchoServer|56=ConnectToGateway|52=20250627-06:24:37.827|10=117|
20250627 13:25:07.827 - 8=FIX.4.4|9=70|35=0|34=88|49=EchoServer|56=ConnectToGateway|52=20250627-06:25:07.827|10=116|
20250627 13:25:37.828 - 8=FIX.4.4|9=70|35=0|34=89|49=EchoServer|56=ConnectToGateway|52=20250627-06:25:37.828|10=121|
20250627 13:26:07.828 - 8=FIX.4.4|9=70|35=0|34=90|49=EchoServer|56=ConnectToGateway|52=20250627-06:26:07.828|10=111|
20250627 13:26:38.667 - 8=FIX.4.4|9=82|35=A|34=91|49=EchoServer|56=ConnectToGateway|52=20250627-06:26:38.666|98=0|108=30|10=161|
20250627 13:26:38.669 - 8=FIX.4.4|9=80|35=2|34=92|49=EchoServer|56=ConnectToGateway|52=20250627-06:26:38.669|7=95|16=0|10=051|
20250627 13:26:38.686 - 8=FIX.4.4|9=100|35=8|34=93|49=EchoServer|56=ConnectToGateway|52=20250627-06:26:38.686|35=8|150=0|39=0|37=12345|17=1|10=228|
20250627 13:26:38.686 - 8=FIX.4.4|9=100|35=8|34=94|49=EchoServer|56=ConnectToGateway|52=20250627-06:26:38.686|35=8|150=0|39=0|37=12345|17=1|10=229|
20250627 13:26:46.939 - 8=FIX.4.4|9=91|35=5|34=95|49=EchoServer|56=ConnectToGateway|52=20250627-06:26:46.939|58=Confirming logout|10=243|
20250627 13:26:49.982 - 8=FIX.4.4|9=82|35=A|34=94|49=EchoServer|56=ConnectToGateway|52=20250627-06:26:49.982|98=0|108=30|10=167|
20250627 13:26:49.982 - 8=FIX.4.4|9=80|35=2|34=95|49=EchoServer|56=ConnectToGateway|52=20250627-06:26:49.982|7=95|16=0|10=054|
20250627 13:29:20.096 - 8=FIX.4.4|9=82|35=A|34=96|49=EchoServer|56=ConnectToGateway|52=20250627-06:29:20.096|98=0|108=30|10=157|
20250627 13:29:20.096 - 8=FIX.4.4|9=80|35=2|34=97|49=EchoServer|56=ConnectToGateway|52=20250627-06:29:20.096|7=95|16=0|10=044|
20250627 13:29:47.903 - 8=FIX.4.4|9=82|35=A|34=98|49=EchoServer|56=ConnectToGateway|52=20250627-06:29:47.902|98=0|108=30|10=164|
20250627 13:29:47.903 - 8=FIX.4.4|9=80|35=2|34=99|49=EchoServer|56=ConnectToGateway|52=20250627-06:29:47.903|7=95|16=0|10=052|
