20250627 12:59:37.502 - 8=FIX.4.4|9=82|35=A|34=1|49=EchoServer|56=ConnectToGateway1|52=20250627-05:59:37.499|98=0|108=30|10=161|
20250627 12:59:37.504 - 8=FIX.4.4|9=79|35=2|34=2|49=EchoServer|56=ConnectToGateway1|52=20250627-05:59:37.504|7=1|16=0|10=238|
20250627 12:59:37.513 - 8=FIX.4.4|9=79|35=2|34=3|49=EchoServer|56=ConnectToGateway1|52=20250627-05:59:37.513|7=1|16=0|10=239|
20250627 12:59:45.088 - 8=FIX.4.4|9=82|35=A|34=4|49=EchoServer|56=ConnectToGateway1|52=20250627-05:59:45.088|98=0|108=30|10=157|
20250627 12:59:45.088 - 8=FIX.4.4|9=79|35=2|34=5|49=EchoServer|56=ConnectToGateway1|52=20250627-05:59:45.088|7=1|16=0|10=247|
20250627 12:59:45.094 - 8=FIX.4.4|9=79|35=2|34=6|49=EchoServer|56=ConnectToGateway1|52=20250627-05:59:45.094|7=1|16=0|10=245|
20250627 13:15:06.380 - 8=FIX.4.4|9=82|35=A|34=7|49=EchoServer|56=ConnectToGateway1|52=20250627-06:15:06.379|98=0|108=30|10=153|
20250627 13:15:06.382 - 8=FIX.4.4|9=79|35=2|34=8|49=EchoServer|56=ConnectToGateway1|52=20250627-06:15:06.382|7=1|16=0|10=237|
20250627 13:15:06.390 - 8=FIX.4.4|9=79|35=2|34=9|49=EchoServer|56=ConnectToGateway1|52=20250627-06:15:06.390|7=1|16=0|10=237|
