20250627 13:52:40.081 - 8=FIX.4.2|9=82|35=A|34=1|49=EchoServer|56=ConnectToGateway3|52=20250627-06:52:40.080|98=0|108=30|10=135|
20250627 13:52:40.081 - 8=FIX.4.2|9=79|35=2|34=2|49=EchoServer|56=ConnectToGateway3|52=20250627-06:52:40.081|7=1|16=0|10=226|
20250627 13:52:40.089 - 8=FIX.4.2|9=79|35=2|34=3|49=EchoServer|56=ConnectToGateway3|52=20250627-06:52:40.089|7=1|16=0|10=235|
20250627 14:10:10.165 - 8=FIX.4.2|9=82|35=A|34=4|49=EchoServer|56=ConnectToGateway3|52=20250627-07:10:10.165|98=0|108=30|10=134|
20250627 14:10:10.165 - 8=FIX.4.2|9=79|35=2|34=5|49=EchoServer|56=ConnectToGateway3|52=20250627-07:10:10.165|7=1|16=0|10=224|
20250627 14:10:10.168 - 8=FIX.4.2|9=79|35=2|34=6|49=EchoServer|56=ConnectToGateway3|52=20250627-07:10:10.168|7=1|16=0|10=228|
