20250627 11:57:45.097 - 8=FIX.4.4|9=67|35=A|34=1|49=Sender|56=Target|52=20250627-04:57:45.087|98=0|108=30|10=219|
20250627 11:57:45.158 - 8=FIX.4.4|9=103|35=B|34=2|49=Sender|56=Target|52=20250627-04:57:45.156|148=Hello there|33=3|58=line1|58=line2|58=line3|10=085|
20250627 11:57:45.188 - 8=FIX.4.4|9=71|35=5|34=3|49=Sender|56=Target|52=20250627-04:57:45.188|58=User request|10=040|
20250627 11:58:08.039 - 8=FIX.4.4|9=67|35=A|34=4|49=Sender|56=Target|52=20250627-04:58:08.032|98=0|108=30|10=212|
20250627 11:58:08.097 - 8=FIX.4.4|9=103|35=B|34=5|49=Sender|56=Target|52=20250627-04:58:08.097|148=Hello there|33=3|58=line1|58=line2|58=line3|10=092|
20250627 11:58:10.255 - 8=FIX.4.4|9=71|35=5|34=6|49=Sender|56=Target|52=20250627-04:58:10.255|58=User request|10=031|
20250627 12:00:51.712 - 8=FIX.4.4|9=67|35=A|34=9|49=Sender|56=Target|52=20250627-05:00:51.621|98=0|108=30|10=207|
20250627 12:00:51.732 - 8=FIX.4.4|9=98|35=4|34=7|49=Sender|56=Target|52=20250627-05:00:51.730|43=Y|122=20250627-05:00:51.621|123=Y|36=10|10=221|
20250627 12:00:51.734 - 8=FIX.4.4|9=104|35=B|34=10|49=Sender|56=Target|52=20250627-05:00:51.731|148=Hello there|33=3|58=line1|58=line2|58=line3|10=118|
20250627 12:00:51.734 - 8=FIX.4.4|9=104|35=B|34=11|49=Sender|56=Target|52=20250627-05:00:51.731|148=Hello there|33=3|58=line1|58=line2|58=line3|10=119|
20250627 12:00:51.734 - 8=FIX.4.4|9=104|35=B|34=12|49=Sender|56=Target|52=20250627-05:00:51.731|148=Hello there|33=3|58=line1|58=line2|58=line3|10=120|
20250627 12:00:57.965 - 8=FIX.4.4|9=72|35=5|34=13|49=Sender|56=Target|52=20250627-05:00:57.964|58=User request|10=084|
20250627 12:01:01.083 - 8=FIX.4.4|9=68|35=A|34=14|49=Sender|56=Target|52=20250627-05:01:01.070|98=0|108=30|10=246|
20250627 12:01:01.140 - 8=FIX.4.4|9=104|35=B|34=15|49=Sender|56=Target|52=20250627-05:01:01.139|148=Hello there|33=3|58=line1|58=line2|58=line3|10=121|
20250627 12:01:03.073 - 8=FIX.4.4|9=72|35=5|34=16|49=Sender|56=Target|52=20250627-05:01:03.073|58=User request|10=070|
