20250627 13:14:44.346 - 8=FIX.4.4|9=82|35=A|34=1|49=EchoServer|56=ConnectToGateway2|52=20250627-06:14:44.345|98=0|108=30|10=142|
20250627 13:14:44.348 - 8=FIX.4.4|9=79|35=2|34=2|49=EchoServer|56=ConnectToGateway2|52=20250627-06:14:44.348|7=1|16=0|10=235|
20250627 13:14:44.357 - 8=FIX.4.4|9=79|35=2|34=3|49=EchoServer|56=ConnectToGateway2|52=20250627-06:14:44.357|7=1|16=0|10=236|
20250627 13:14:51.813 - 8=FIX.4.4|9=82|35=A|34=4|49=EchoServer|56=ConnectToGateway2|52=20250627-06:14:51.812|98=0|108=30|10=142|
20250627 13:14:51.813 - 8=FIX.4.4|9=79|35=2|34=5|49=EchoServer|56=ConnectToGateway2|52=20250627-06:14:51.813|7=1|16=0|10=233|
20250627 13:14:51.819 - 8=FIX.4.4|9=79|35=2|34=6|49=EchoServer|56=ConnectToGateway2|52=20250627-06:14:51.819|7=1|16=0|10=240|
20250627 13:30:37.156 - 8=FIX.4.4|9=82|35=A|34=7|49=EchoServer|56=ConnectToGateway2|52=20250627-06:30:37.156|98=0|108=30|10=148|
20250627 13:30:37.156 - 8=FIX.4.4|9=79|35=2|34=8|49=EchoServer|56=ConnectToGateway2|52=20250627-06:30:37.156|7=1|16=0|10=238|
20250627 13:30:37.162 - 8=FIX.4.4|9=79|35=2|34=9|49=EchoServer|56=ConnectToGateway2|52=20250627-06:30:37.162|7=1|16=0|10=236|
20250627 13:31:13.868 - 8=FIX.4.4|9=83|35=A|34=10|49=EchoServer|56=ConnectToGateway2|52=20250627-06:31:13.868|98=0|108=30|10=196|
20250627 13:31:13.868 - 8=FIX.4.4|9=80|35=2|34=11|49=EchoServer|56=ConnectToGateway2|52=20250627-06:31:13.868|7=1|16=0|10=021|
20250627 13:31:13.875 - 8=FIX.4.4|9=80|35=2|34=12|49=EchoServer|56=ConnectToGateway2|52=20250627-06:31:13.875|7=1|16=0|10=020|
20250627 13:31:48.324 - 8=FIX.4.4|9=83|35=A|34=13|49=EchoServer|56=ConnectToGateway2|52=20250627-06:31:48.323|98=0|108=30|10=193|
20250627 13:31:48.325 - 8=FIX.4.4|9=80|35=2|34=14|49=EchoServer|56=ConnectToGateway2|52=20250627-06:31:48.324|7=1|16=0|10=019|
20250627 13:31:48.331 - 8=FIX.4.4|9=80|35=2|34=15|49=EchoServer|56=ConnectToGateway2|52=20250627-06:31:48.331|7=1|16=0|10=018|
20250627 13:31:58.010 - 8=FIX.4.4|9=83|35=A|34=16|49=EchoServer|56=ConnectToGateway2|52=20250627-06:31:58.010|98=0|108=30|10=190|
20250627 13:31:58.010 - 8=FIX.4.4|9=80|35=2|34=17|49=EchoServer|56=ConnectToGateway2|52=20250627-06:31:58.010|7=1|16=0|10=015|
20250627 13:31:58.014 - 8=FIX.4.4|9=80|35=2|34=18|49=EchoServer|56=ConnectToGateway2|52=20250627-06:31:58.014|7=1|16=0|10=020|
20250627 13:32:58.874 - 8=FIX.4.4|9=83|35=A|34=19|49=EchoServer|56=ConnectToGateway2|52=20250627-06:32:58.873|98=0|108=30|10=211|
20250627 13:32:58.874 - 8=FIX.4.4|9=80|35=2|34=20|49=EchoServer|56=ConnectToGateway2|52=20250627-06:32:58.874|7=1|16=0|10=028|
20250627 13:32:58.880 - 8=FIX.4.4|9=80|35=2|34=21|49=EchoServer|56=ConnectToGateway2|52=20250627-06:32:58.880|7=1|16=0|10=026|
20250627 13:35:16.966 - 8=FIX.4.2|9=83|35=A|34=22|49=EchoServer|56=ConnectToGateway2|52=20250627-06:35:16.966|98=0|108=30|10=203|
20250627 13:35:16.967 - 8=FIX.4.2|9=80|35=2|34=23|49=EchoServer|56=ConnectToGateway2|52=20250627-06:35:16.967|7=1|16=0|10=029|
20250627 13:35:16.972 - 8=FIX.4.2|9=80|35=2|34=24|49=EchoServer|56=ConnectToGateway2|52=20250627-06:35:16.972|7=1|16=0|10=026|
20250627 13:35:32.133 - 8=FIX.4.2|9=83|35=A|34=25|49=EchoServer|56=ConnectToGateway2|52=20250627-06:35:32.132|98=0|108=30|10=189|
20250627 13:35:32.134 - 8=FIX.4.2|9=80|35=2|34=26|49=EchoServer|56=ConnectToGateway2|52=20250627-06:35:32.134|7=1|16=0|10=016|
20250627 13:35:32.140 - 8=FIX.4.2|9=80|35=2|34=27|49=EchoServer|56=ConnectToGateway2|52=20250627-06:35:32.140|7=1|16=0|10=014|
20250627 13:50:28.899 - 8=FIX.4.2|9=83|35=A|34=28|49=EchoServer|56=ConnectToGateway2|52=20250627-06:50:28.898|98=0|108=30|10=213|
20250627 13:50:28.899 - 8=FIX.4.2|9=80|35=2|34=29|49=EchoServer|56=ConnectToGateway2|52=20250627-06:50:28.899|7=1|16=0|10=039|
20250627 13:50:28.906 - 8=FIX.4.2|9=80|35=2|34=30|49=EchoServer|56=ConnectToGateway2|52=20250627-06:50:28.906|7=1|16=0|10=020|
20250627 14:10:27.701 - 8=FIX.4.2|9=83|35=A|34=31|49=EchoServer|56=ConnectToGateway2|52=20250627-07:10:27.700|98=0|108=30|10=185|
20250627 14:10:27.703 - 8=FIX.4.2|9=80|35=2|34=32|49=EchoServer|56=ConnectToGateway2|52=20250627-07:10:27.702|7=1|16=0|10=012|
20250627 14:10:27.711 - 8=FIX.4.2|9=80|35=2|34=33|49=EchoServer|56=ConnectToGateway2|52=20250627-07:10:27.711|7=1|16=0|10=013|
20250627 14:12:10.635 - 8=FIX.4.4|9=83|35=A|34=34|49=EchoServer|56=ConnectToGateway2|52=20250627-07:12:10.634|98=0|108=30|10=190|
20250627 14:12:10.636 - 8=FIX.4.4|9=80|35=2|34=35|49=EchoServer|56=ConnectToGateway2|52=20250627-07:12:10.636|7=1|16=0|10=017|
20250627 14:12:10.645 - 8=FIX.4.4|9=80|35=2|34=36|49=EchoServer|56=ConnectToGateway2|52=20250627-07:12:10.645|7=1|16=0|10=018|
20250627 14:14:12.999 - 8=FIX.4.4|9=83|35=A|34=37|49=EchoServer|56=ConnectToGateway2|52=20250627-07:14:12.998|98=0|108=30|10=210|
20250627 14:14:13.000 - 8=FIX.4.4|9=80|35=2|34=38|49=EchoServer|56=ConnectToGateway2|52=20250627-07:14:13.000|7=1|16=0|10=010|
20250627 14:14:13.010 - 8=FIX.4.4|9=80|35=2|34=39|49=EchoServer|56=ConnectToGateway2|52=20250627-07:14:13.010|7=1|16=0|10=012|
20250627 14:15:31.604 - 8=FIX.4.4|9=83|35=A|34=40|49=EchoServer|56=ConnectToGateway2|52=20250627-07:15:31.603|98=0|108=30|10=189|
20250627 14:15:31.606 - 8=FIX.4.4|9=80|35=2|34=41|49=EchoServer|56=ConnectToGateway2|52=20250627-07:15:31.606|7=1|16=0|10=017|
20250627 14:15:31.613 - 8=FIX.4.4|9=80|35=2|34=42|49=EchoServer|56=ConnectToGateway2|52=20250627-07:15:31.613|7=1|16=0|10=016|
