20250626 18:20:28.678 - 8=FIX.4.4|9=81|35=A|34=1|49=EchoServer|56=ConnectToGateway|52=20250626-11:20:28.677|98=0|108=30|10=093|
20250626 18:20:28.679 - 8=FIX.4.4|9=78|35=2|34=2|49=EchoServer|56=ConnectToGateway|52=20250626-11:20:28.679|7=1|16=0|10=185|
20250626 18:20:45.227 - 8=FIX.4.4|9=90|35=5|34=3|49=EchoServer|56=ConnectToGateway|52=20250626-11:20:45.227|58=Confirming logout|10=161|
20250626 18:22:34.935 - 8=FIX.4.4|9=81|35=A|34=4|49=EchoServer|56=ConnectToGateway|52=20250626-11:22:34.934|98=0|108=30|10=091|
20250626 18:22:34.949 - 8=FIX.4.4|9=111|35=4|34=3|49=EchoServer|56=ConnectToGateway|52=20250626-11:22:34.949|43=Y|122=20250626-11:22:34.934|123=Y|36=5|10=113|
20250626 18:22:48.163 - 8=FIX.4.4|9=90|35=5|34=5|49=EchoServer|56=ConnectToGateway|52=20250626-11:22:48.163|58=Confirming logout|10=167|
20250626 18:22:53.345 - 8=FIX.4.4|9=81|35=A|34=6|49=EchoServer|56=ConnectToGateway|52=20250626-11:22:53.345|98=0|108=30|10=090|
20250626 18:22:53.352 - 8=FIX.4.4|9=111|35=4|34=4|49=EchoServer|56=ConnectToGateway|52=20250626-11:22:53.352|43=Y|122=20250626-11:22:53.345|123=Y|36=7|10=102|
20250626 18:23:23.352 - 8=FIX.4.4|9=69|35=0|34=7|49=EchoServer|56=ConnectToGateway|52=20250626-11:23:23.352|10=051|
20250626 18:23:53.353 - 8=FIX.4.4|9=69|35=0|34=8|49=EchoServer|56=ConnectToGateway|52=20250626-11:23:53.353|10=056|
20250626 18:24:04.591 - 8=FIX.4.4|9=90|35=5|34=9|49=EchoServer|56=ConnectToGateway|52=20250626-11:24:04.591|58=Confirming logout|10=170|
20250626 18:24:08.701 - 8=FIX.4.4|9=82|35=A|34=10|49=EchoServer|56=ConnectToGateway|52=20250626-11:24:08.701|98=0|108=30|10=132|
20250626 18:24:08.762 - 8=FIX.4.4|9=172|35=3|34=11|49=EchoServer|56=ConnectToGateway|52=20250626-11:24:08.762|45=18|371=55|372=D|373=1|58=Invalid message - required tag missing. [SeqNum: 18, MsgType: D, Tag: 55]|10=206|
20250626 18:24:08.763 - 8=FIX.4.4|9=172|35=3|34=12|49=EchoServer|56=ConnectToGateway|52=20250626-11:24:08.763|45=19|371=55|372=D|373=1|58=Invalid message - required tag missing. [SeqNum: 19, MsgType: D, Tag: 55]|10=210|
20250626 18:24:08.763 - 8=FIX.4.4|9=172|35=3|34=13|49=EchoServer|56=ConnectToGateway|52=20250626-11:24:08.763|45=20|371=55|372=D|373=1|58=Invalid message - required tag missing. [SeqNum: 20, MsgType: D, Tag: 55]|10=195|
20250626 18:24:26.751 - 8=FIX.4.4|9=91|35=5|34=14|49=EchoServer|56=ConnectToGateway|52=20250626-11:24:26.751|58=Confirming logout|10=217|
20250626 18:24:58.301 - 8=FIX.4.4|9=82|35=A|34=15|49=EchoServer|56=ConnectToGateway|52=20250626-11:24:58.301|98=0|108=30|10=138|
20250626 18:24:58.359 - 8=FIX.4.4|9=172|35=3|34=16|49=EchoServer|56=ConnectToGateway|52=20250626-11:24:58.359|45=23|371=55|372=D|373=1|58=Invalid message - required tag missing. [SeqNum: 23, MsgType: D, Tag: 55]|10=210|
20250626 18:24:58.360 - 8=FIX.4.4|9=172|35=3|34=17|49=EchoServer|56=ConnectToGateway|52=20250626-11:24:58.360|45=24|371=55|372=D|373=1|58=Invalid message - required tag missing. [SeqNum: 24, MsgType: D, Tag: 55]|10=205|
20250626 18:24:58.360 - 8=FIX.4.4|9=172|35=3|34=18|49=EchoServer|56=ConnectToGateway|52=20250626-11:24:58.360|45=25|371=55|372=D|373=1|58=Invalid message - required tag missing. [SeqNum: 25, MsgType: D, Tag: 55]|10=208|
20250626 18:24:58.360 - 8=FIX.4.4|9=172|35=3|34=19|49=EchoServer|56=ConnectToGateway|52=20250626-11:24:58.360|45=26|371=55|372=D|373=1|58=Invalid message - required tag missing. [SeqNum: 26, MsgType: D, Tag: 55]|10=211|
20250626 18:24:58.360 - 8=FIX.4.4|9=172|35=3|34=20|49=EchoServer|56=ConnectToGateway|52=20250626-11:24:58.360|45=27|371=55|372=D|373=1|58=Invalid message - required tag missing. [SeqNum: 27, MsgType: D, Tag: 55]|10=205|
20250626 18:25:01.649 - 8=FIX.4.4|9=91|35=5|34=21|49=EchoServer|56=ConnectToGateway|52=20250626-11:25:01.649|58=Confirming logout|10=215|
20250626 18:26:21.545 - 8=FIX.4.4|9=82|35=A|34=22|49=EchoServer|56=ConnectToGateway|52=20250626-11:26:21.542|98=0|108=30|10=135|
20250626 18:26:21.609 - 8=FIX.4.4|9=172|35=3|34=23|49=EchoServer|56=ConnectToGateway|52=20250626-11:26:21.609|45=30|371=55|372=D|373=1|58=Invalid message - required tag missing. [SeqNum: 30, MsgType: D, Tag: 55]|10=194|
20250626 18:26:21.609 - 8=FIX.4.4|9=172|35=3|34=24|49=EchoServer|56=ConnectToGateway|52=20250626-11:26:21.609|45=31|371=55|372=D|373=1|58=Invalid message - required tag missing. [SeqNum: 31, MsgType: D, Tag: 55]|10=197|
20250626 18:26:21.609 - 8=FIX.4.4|9=172|35=3|34=25|49=EchoServer|56=ConnectToGateway|52=20250626-11:26:21.609|45=32|371=55|372=D|373=1|58=Invalid message - required tag missing. [SeqNum: 32, MsgType: D, Tag: 55]|10=200|
20250626 18:26:21.610 - 8=FIX.4.4|9=172|35=3|34=26|49=EchoServer|56=ConnectToGateway|52=20250626-11:26:21.610|45=33|371=55|372=D|373=1|58=Invalid message - required tag missing. [SeqNum: 33, MsgType: D, Tag: 55]|10=195|
20250626 18:26:21.610 - 8=FIX.4.4|9=172|35=3|34=27|49=EchoServer|56=ConnectToGateway|52=20250626-11:26:21.610|45=34|371=55|372=D|373=1|58=Invalid message - required tag missing. [SeqNum: 34, MsgType: D, Tag: 55]|10=198|
20250626 18:26:25.986 - 8=FIX.4.4|9=91|35=5|34=28|49=EchoServer|56=ConnectToGateway|52=20250626-11:26:25.986|58=Confirming logout|10=233|
20250626 18:28:25.056 - 8=FIX.4.4|9=82|35=A|34=29|49=EchoServer|56=ConnectToGateway|52=20250626-11:28:25.056|98=0|108=30|10=148|
20250626 18:28:25.115 - 8=FIX.4.4|9=172|35=3|34=30|49=EchoServer|56=ConnectToGateway|52=20250626-11:28:25.115|45=37|371=55|372=D|373=1|58=Invalid message - required tag missing. [SeqNum: 37, MsgType: D, Tag: 55]|10=204|
20250626 18:28:25.115 - 8=FIX.4.4|9=172|35=3|34=31|49=EchoServer|56=ConnectToGateway|52=20250626-11:28:25.115|45=38|371=55|372=D|373=1|58=Invalid message - required tag missing. [SeqNum: 38, MsgType: D, Tag: 55]|10=207|
20250626 18:28:25.115 - 8=FIX.4.4|9=172|35=3|34=32|49=EchoServer|56=ConnectToGateway|52=20250626-11:28:25.115|45=39|371=55|372=D|373=1|58=Invalid message - required tag missing. [SeqNum: 39, MsgType: D, Tag: 55]|10=210|
20250626 18:28:25.115 - 8=FIX.4.4|9=172|35=3|34=33|49=EchoServer|56=ConnectToGateway|52=20250626-11:28:25.115|45=40|371=55|372=D|373=1|58=Invalid message - required tag missing. [SeqNum: 40, MsgType: D, Tag: 55]|10=195|
20250626 18:28:25.115 - 8=FIX.4.4|9=172|35=3|34=34|49=EchoServer|56=ConnectToGateway|52=20250626-11:28:25.115|45=41|371=55|372=D|373=1|58=Invalid message - required tag missing. [SeqNum: 41, MsgType: D, Tag: 55]|10=198|
20250626 18:28:55.116 - 8=FIX.4.4|9=70|35=0|34=35|49=EchoServer|56=ConnectToGateway|52=20250626-11:28:55.116|10=100|
20250626 18:29:25.116 - 8=FIX.4.4|9=70|35=0|34=36|49=EchoServer|56=ConnectToGateway|52=20250626-11:29:25.116|10=099|
20250626 18:29:55.116 - 8=FIX.4.4|9=70|35=0|34=37|49=EchoServer|56=ConnectToGateway|52=20250626-11:29:55.116|10=103|
20250626 18:30:10.548 - 8=FIX.4.4|9=94|35=5|34=38|49=EchoServer|56=ConnectToGateway|52=20250626-11:30:10.548|58=Application shutdown|10=038|
20250626 18:30:23.777 - 8=FIX.4.4|9=82|35=A|34=39|49=EchoServer|56=ConnectToGateway|52=20250626-11:30:23.776|98=0|108=30|10=149|
20250626 18:30:23.780 - 8=FIX.4.4|9=80|35=2|34=40|49=EchoServer|56=ConnectToGateway|52=20250626-11:30:23.780|7=45|16=0|10=017|
20250626 18:30:23.796 - 8=FIX.4.4|9=172|35=3|34=41|49=EchoServer|56=ConnectToGateway|52=20250626-11:30:23.796|45=47|371=55|372=D|373=1|58=Invalid message - required tag missing. [SeqNum: 47, MsgType: D, Tag: 55]|10=214|
20250626 18:30:23.797 - 8=FIX.4.4|9=172|35=3|34=42|49=EchoServer|56=ConnectToGateway|52=20250626-11:30:23.797|45=48|371=55|372=D|373=1|58=Invalid message - required tag missing. [SeqNum: 48, MsgType: D, Tag: 55]|10=218|
20250626 18:30:23.797 - 8=FIX.4.4|9=172|35=3|34=43|49=EchoServer|56=ConnectToGateway|52=20250626-11:30:23.797|45=49|371=55|372=D|373=1|58=Invalid message - required tag missing. [SeqNum: 49, MsgType: D, Tag: 55]|10=221|
20250626 18:30:23.797 - 8=FIX.4.4|9=172|35=3|34=44|49=EchoServer|56=ConnectToGateway|52=20250626-11:30:23.797|45=50|371=55|372=D|373=1|58=Invalid message - required tag missing. [SeqNum: 50, MsgType: D, Tag: 55]|10=206|
20250626 18:30:49.394 - 8=FIX.4.4|9=91|35=5|34=45|49=EchoServer|56=ConnectToGateway|52=20250626-11:30:49.394|58=Confirming logout|10=226|
20250627 09:48:16.782 - 8=FIX.4.4|9=82|35=A|34=46|49=EchoServer|56=ConnectToGateway|52=20250627-02:48:16.781|98=0|108=30|10=155|
20250627 09:48:16.847 - 8=FIX.4.4|9=172|35=3|34=47|49=EchoServer|56=ConnectToGateway|52=20250627-02:48:16.847|45=53|371=55|372=D|373=1|58=Invalid message - required tag missing. [SeqNum: 53, MsgType: D, Tag: 55]|10=223|
20250627 09:48:16.847 - 8=FIX.4.4|9=172|35=3|34=48|49=EchoServer|56=ConnectToGateway|52=20250627-02:48:16.847|45=54|371=55|372=D|373=1|58=Invalid message - required tag missing. [SeqNum: 54, MsgType: D, Tag: 55]|10=226|
20250627 09:48:16.847 - 8=FIX.4.4|9=172|35=3|34=49|49=EchoServer|56=ConnectToGateway|52=20250627-02:48:16.847|45=55|371=55|372=D|373=1|58=Invalid message - required tag missing. [SeqNum: 55, MsgType: D, Tag: 55]|10=229|
20250627 09:48:16.847 - 8=FIX.4.4|9=172|35=3|34=50|49=EchoServer|56=ConnectToGateway|52=20250627-02:48:16.847|45=56|371=55|372=D|373=1|58=Invalid message - required tag missing. [SeqNum: 56, MsgType: D, Tag: 55]|10=223|
20250627 09:48:16.848 - 8=FIX.4.4|9=172|35=3|34=51|49=EchoServer|56=ConnectToGateway|52=20250627-02:48:16.848|45=57|371=55|372=D|373=1|58=Invalid message - required tag missing. [SeqNum: 57, MsgType: D, Tag: 55]|10=227|
20250627 09:48:16.848 - 8=FIX.4.4|9=172|35=3|34=52|49=EchoServer|56=ConnectToGateway|52=20250627-02:48:16.848|45=58|371=55|372=D|373=1|58=Invalid message - required tag missing. [SeqNum: 58, MsgType: D, Tag: 55]|10=230|
20250627 09:48:16.848 - 8=FIX.4.4|9=172|35=3|34=53|49=EchoServer|56=ConnectToGateway|52=20250627-02:48:16.848|45=59|371=55|372=D|373=1|58=Invalid message - required tag missing. [SeqNum: 59, MsgType: D, Tag: 55]|10=233|
20250627 09:48:16.848 - 8=FIX.4.4|9=172|35=3|34=54|49=EchoServer|56=ConnectToGateway|52=20250627-02:48:16.848|45=60|371=55|372=D|373=1|58=Invalid message - required tag missing. [SeqNum: 60, MsgType: D, Tag: 55]|10=218|
20250627 09:48:16.848 - 8=FIX.4.4|9=172|35=3|34=55|49=EchoServer|56=ConnectToGateway|52=20250627-02:48:16.848|45=61|371=55|372=D|373=1|58=Invalid message - required tag missing. [SeqNum: 61, MsgType: D, Tag: 55]|10=221|
20250627 09:48:16.848 - 8=FIX.4.4|9=172|35=3|34=56|49=EchoServer|56=ConnectToGateway|52=20250627-02:48:16.848|45=62|371=55|372=D|373=1|58=Invalid message - required tag missing. [SeqNum: 62, MsgType: D, Tag: 55]|10=224|
20250627 09:48:16.849 - 8=FIX.4.4|9=172|35=3|34=57|49=EchoServer|56=ConnectToGateway|52=20250627-02:48:16.849|45=63|371=55|372=D|373=1|58=Invalid message - required tag missing. [SeqNum: 63, MsgType: D, Tag: 55]|10=228|
20250627 09:48:46.849 - 8=FIX.4.4|9=70|35=0|34=58|49=EchoServer|56=ConnectToGateway|52=20250627-02:48:46.849|10=121|
20250627 09:49:16.849 - 8=FIX.4.4|9=70|35=0|34=59|49=EchoServer|56=ConnectToGateway|52=20250627-02:49:16.849|10=120|
20250627 09:49:32.976 - 8=FIX.4.4|9=94|35=5|34=60|49=EchoServer|56=ConnectToGateway|52=20250627-02:49:32.976|58=Application shutdown|10=053|
20250627 09:50:45.168 - 8=FIX.4.4|9=82|35=A|34=61|49=EchoServer|56=ConnectToGateway|52=20250627-02:50:45.168|98=0|108=30|10=146|
20250627 09:50:45.234 - 8=FIX.4.4|9=172|35=3|34=62|49=EchoServer|56=ConnectToGateway|52=20250627-02:50:45.234|45=68|371=55|372=D|373=1|58=Invalid message - required tag missing. [SeqNum: 68, MsgType: D, Tag: 55]|10=217|
20250627 09:50:45.234 - 8=FIX.4.4|9=172|35=3|34=63|49=EchoServer|56=ConnectToGateway|52=20250627-02:50:45.234|45=69|371=55|372=D|373=1|58=Invalid message - required tag missing. [SeqNum: 69, MsgType: D, Tag: 55]|10=220|
20250627 09:50:45.234 - 8=FIX.4.4|9=172|35=3|34=64|49=EchoServer|56=ConnectToGateway|52=20250627-02:50:45.234|45=70|371=55|372=D|373=1|58=Invalid message - required tag missing. [SeqNum: 70, MsgType: D, Tag: 55]|10=205|
20250627 09:50:45.235 - 8=FIX.4.4|9=172|35=3|34=65|49=EchoServer|56=ConnectToGateway|52=20250627-02:50:45.235|45=71|371=55|372=D|373=1|58=Invalid message - required tag missing. [SeqNum: 71, MsgType: D, Tag: 55]|10=209|
20250627 09:50:45.235 - 8=FIX.4.4|9=172|35=3|34=66|49=EchoServer|56=ConnectToGateway|52=20250627-02:50:45.235|45=72|371=55|372=D|373=1|58=Invalid message - required tag missing. [SeqNum: 72, MsgType: D, Tag: 55]|10=212|
20250627 09:50:45.235 - 8=FIX.4.4|9=172|35=3|34=67|49=EchoServer|56=ConnectToGateway|52=20250627-02:50:45.235|45=73|371=55|372=D|373=1|58=Invalid message - required tag missing. [SeqNum: 73, MsgType: D, Tag: 55]|10=215|
20250627 09:51:15.235 - 8=FIX.4.4|9=70|35=0|34=68|49=EchoServer|56=ConnectToGateway|52=20250627-02:51:15.235|10=101|
20250627 09:51:45.235 - 8=FIX.4.4|9=70|35=0|34=69|49=EchoServer|56=ConnectToGateway|52=20250627-02:51:45.235|10=105|
20250627 09:52:15.236 - 8=FIX.4.4|9=70|35=0|34=70|49=EchoServer|56=ConnectToGateway|52=20250627-02:52:15.236|10=096|
20250627 09:52:43.025 - 8=FIX.4.4|9=94|35=5|34=71|49=EchoServer|56=ConnectToGateway|52=20250627-02:52:43.025|58=Application shutdown|10=036|
20250627 09:52:50.321 - 8=FIX.4.4|9=82|35=A|34=72|49=EchoServer|56=ConnectToGateway|52=20250627-02:52:50.319|98=0|108=30|10=144|
20250627 09:52:50.386 - 8=FIX.4.4|9=172|35=3|34=73|49=EchoServer|56=ConnectToGateway|52=20250627-02:52:50.386|45=79|371=55|372=D|373=1|58=Invalid message - required tag missing. [SeqNum: 79, MsgType: D, Tag: 55]|10=229|
20250627 09:52:50.386 - 8=FIX.4.4|9=172|35=3|34=74|49=EchoServer|56=ConnectToGateway|52=20250627-02:52:50.386|45=80|371=55|372=D|373=1|58=Invalid message - required tag missing. [SeqNum: 80, MsgType: D, Tag: 55]|10=214|
20250627 09:52:50.386 - 8=FIX.4.4|9=172|35=3|34=75|49=EchoServer|56=ConnectToGateway|52=20250627-02:52:50.386|45=81|371=55|372=D|373=1|58=Invalid message - required tag missing. [SeqNum: 81, MsgType: D, Tag: 55]|10=217|
20250627 09:52:50.387 - 8=FIX.4.4|9=172|35=3|34=76|49=EchoServer|56=ConnectToGateway|52=20250627-02:52:50.387|45=82|371=55|372=D|373=1|58=Invalid message - required tag missing. [SeqNum: 82, MsgType: D, Tag: 55]|10=221|
20250627 09:53:20.387 - 8=FIX.4.4|9=70|35=0|34=77|49=EchoServer|56=ConnectToGateway|52=20250627-02:53:20.387|10=107|
20250627 09:53:31.457 - 8=FIX.4.4|9=91|35=5|34=78|49=EchoServer|56=ConnectToGateway|52=20250627-02:53:31.457|58=Confirming logout|10=229|
20250627 10:13:17.079 - 8=FIX.4.4|9=82|35=A|34=79|49=EchoServer|56=ConnectToGateway|52=20250627-03:13:17.078|98=0|108=30|10=154|
20250627 10:13:17.080 - 8=FIX.4.4|9=80|35=2|34=80|49=EchoServer|56=ConnectToGateway|52=20250627-03:13:17.080|7=85|16=0|10=024|
20250627 10:13:17.095 - 35=1|112=TEST123|
20250627 10:34:29.017 - 8=FIX.4.4|9=82|35=A|34=81|49=EchoServer|56=ConnectToGateway|52=20250627-03:34:29.016|98=0|108=30|10=145|
20250627 10:34:29.018 - 8=FIX.4.4|9=80|35=2|34=82|49=EchoServer|56=ConnectToGateway|52=20250627-03:34:29.018|7=95|16=0|10=034|
20250627 10:34:29.035 - 8=FIX.4.4|9=172|35=3|34=83|49=EchoServer|56=ConnectToGateway|52=20250627-03:34:29.035|45=95|371=55|372=D|373=1|58=Invalid message - required tag missing. [SeqNum: 95, MsgType: D, Tag: 55]|10=224|
20250627 10:34:29.041 - 35=1|112=TEST123|
20250627 10:34:48.601 - 8=FIX.4.4|9=82|35=A|34=84|49=EchoServer|56=ConnectToGateway|52=20250627-03:34:48.601|98=0|108=30|10=149|
20250627 10:34:48.650 - 35=1|112=TEST123|
20250627 10:45:41.744 - 8=FIX.4.4|9=82|35=A|34=85|49=EchoServer|56=ConnectToGateway|52=20250627-03:45:41.744|98=0|108=30|10=153|
20250627 10:45:41.794 - 35=1|112=TEST123|
20250627 10:48:36.307 - 8=FIX.4.4|9=82|35=A|34=86|49=EchoServer|56=ConnectToGateway|52=20250627-03:48:36.306|98=0|108=30|10=155|
20250627 10:48:36.353 - 35=1|112=TEST123|
20250627 10:48:58.078 - 8=FIX.4.4|9=82|35=A|34=87|49=EchoServer|56=ConnectToGateway|52=20250627-03:48:58.078|98=0|108=30|10=166|
20250627 10:48:58.128 - 35=1|112=TEST123|
20250627 10:49:27.299 - 8=FIX.4.4|9=82|35=A|34=88|49=EchoServer|56=ConnectToGateway|52=20250627-03:49:27.298|98=0|108=30|10=168|
20250627 10:49:27.344 - 35=1|112=TEST123|
20250627 10:50:21.197 - 8=FIX.4.4|9=82|35=A|34=89|49=EchoServer|56=ConnectToGateway|52=20250627-03:50:21.196|98=0|108=30|10=152|
20250627 10:50:21.243 - 35=1|112=TEST123|
20250627 11:56:57.150 - 8=FIX.4.4|9=121|35=5|34=90|49=EchoServer|56=ConnectToGateway|52=20250627-04:56:57.149|58=Incoming seq number 3 is less then expected 105|10=177|
20250627 11:57:12.631 - 8=FIX.4.4|9=121|35=5|34=91|49=EchoServer|56=ConnectToGateway|52=20250627-04:57:12.631|58=Incoming seq number 6 is less then expected 105|10=169|
20250627 13:14:44.346 - 8=FIX.4.4|9=83|35=A|34=92|49=EchoServer|56=ConnectToGateway1|52=20250627-06:14:44.345|98=0|108=30|10=200|
20250627 13:14:44.348 - 8=FIX.4.4|9=82|35=2|34=93|49=EchoServer|56=ConnectToGateway1|52=20250627-06:14:44.348|7=105|16=0|10=131|
20250627 13:14:44.360 - 8=FIX.4.4|9=114|35=4|34=90|49=EchoServer|56=ConnectToGateway1|52=20250627-06:14:44.359|43=Y|122=20250627-06:14:44.348|123=Y|36=94|10=027|
20250627 13:14:44.360 - 35=1|112=TEST123|
20250627 13:14:51.813 - 8=FIX.4.4|9=83|35=A|34=95|49=EchoServer|56=ConnectToGateway1|52=20250627-06:14:51.812|98=0|108=30|10=200|
20250627 13:14:51.813 - 8=FIX.4.4|9=82|35=2|34=96|49=EchoServer|56=ConnectToGateway1|52=20250627-06:14:51.813|7=137|16=0|10=134|
20250627 13:14:51.819 - 8=FIX.4.4|9=114|35=4|34=91|49=EchoServer|56=ConnectToGateway1|52=20250627-06:14:51.819|43=Y|122=20250627-06:14:51.813|123=Y|36=97|10=025|
20250627 13:14:51.819 - 35=1|112=TEST123|
20250627 13:30:37.157 - 8=FIX.4.4|9=124|35=5|34=92|49=EchoServer|56=ConnectToGateway1|52=20250627-06:30:37.157|58=Incoming seq number 100 is less then expected 137|10=065|
20250627 13:31:13.868 - 8=FIX.4.4|9=124|35=5|34=93|49=EchoServer|56=ConnectToGateway1|52=20250627-06:31:13.868|58=Incoming seq number 102 is less then expected 137|10=072|
20250627 13:31:48.321 - 8=FIX.4.4|9=124|35=5|34=94|49=EchoServer|56=ConnectToGateway1|52=20250627-06:31:48.320|58=Incoming seq number 104 is less then expected 137|10=066|
20250627 13:31:58.008 - 8=FIX.4.4|9=124|35=5|34=95|49=EchoServer|56=ConnectToGateway1|52=20250627-06:31:58.008|58=Incoming seq number 106 is less then expected 137|10=073|
20250627 13:32:58.871 - 8=FIX.4.4|9=124|35=5|34=96|49=EchoServer|56=ConnectToGateway1|52=20250627-06:32:58.871|58=Incoming seq number 108 is less then expected 137|10=085|
20250627 13:35:16.962 - 8=FIX.4.2|9=124|35=5|34=97|49=EchoServer|56=ConnectToGateway1|52=20250627-06:35:16.961|58=Incoming seq number 111 is less then expected 137|10=075|
20250627 13:35:32.129 - 8=FIX.4.2|9=124|35=5|34=98|49=EchoServer|56=ConnectToGateway1|52=20250627-06:35:32.129|58=Incoming seq number 113 is less then expected 137|10=072|
20250627 13:50:28.896 - 8=FIX.4.2|9=124|35=5|34=99|49=EchoServer|56=ConnectToGateway1|52=20250627-06:50:28.896|58=Incoming seq number 117 is less then expected 137|10=090|
20250627 13:52:40.078 - 8=FIX.4.2|9=125|35=5|34=100|49=EchoServer|56=ConnectToGateway1|52=20250627-06:52:40.077|58=Incoming seq number 119 is less then expected 137|10=111|
20250627 13:54:01.764 - 8=FIX.4.2|9=125|35=5|34=101|49=EchoServer|56=ConnectToGateway1|52=20250627-06:54:01.763|58=Incoming seq number 121 is less then expected 137|10=106|
20250627 13:54:12.437 - 8=FIX.4.2|9=125|35=5|34=102|49=EchoServer|56=ConnectToGateway1|52=20250627-06:54:12.437|58=Incoming seq number 122 is less then expected 137|10=108|
20250627 13:54:37.418 - 8=FIX.4.2|9=125|35=5|34=103|49=EchoServer|56=ConnectToGateway1|52=20250627-06:54:37.418|58=Incoming seq number 124 is less then expected 137|10=117|
20250627 13:54:51.057 - 8=FIX.4.2|9=125|35=5|34=104|49=EchoServer|56=ConnectToGateway1|52=20250627-06:54:51.057|58=Incoming seq number 126 is less then expected 137|10=115|
20250627 13:57:04.758 - 8=FIX.4.2|9=125|35=5|34=105|49=EchoServer|56=ConnectToGateway1|52=20250627-06:57:04.758|58=Incoming seq number 130 is less then expected 137|10=120|
20250627 14:01:26.404 - 8=FIX.4.2|9=125|35=5|34=106|49=EchoServer|56=ConnectToGateway1|52=20250627-07:01:26.404|58=Incoming seq number 132 is less then expected 137|10=105|
20250627 14:03:05.526 - 8=FIX.4.2|9=125|35=5|34=107|49=EchoServer|56=ConnectToGateway1|52=20250627-07:03:05.525|58=Incoming seq number 134 is less then expected 137|10=111|
20250627 14:05:58.191 - 8=FIX.4.2|9=125|35=5|34=108|49=EchoServer|56=ConnectToGateway1|52=20250627-07:05:58.191|58=Incoming seq number 136 is less then expected 137|10=123|
20250627 14:09:27.017 - 8=FIX.4.2|9=84|35=A|34=109|49=EchoServer|56=ConnectToGateway1|52=20250627-07:09:27.016|98=0|108=30|10=247|
20250627 14:09:27.019 - 8=FIX.4.2|9=83|35=2|34=110|49=EchoServer|56=ConnectToGateway1|52=20250627-07:09:27.018|7=137|16=0|10=173|
20250627 14:09:27.029 - 8=FIX.4.2|9=116|35=4|34=101|49=EchoServer|56=ConnectToGateway1|52=20250627-07:09:27.029|43=Y|122=20250627-07:09:27.018|123=Y|36=111|10=106|
20250627 14:09:27.030 - 8=FIX.4.2|9=83|35=2|34=111|49=EchoServer|56=ConnectToGateway1|52=20250627-07:09:27.030|7=137|16=0|10=168|
20250627 14:09:27.034 - 8=FIX.4.2|9=102|35=8|34=112|49=EchoServer|56=ConnectToGateway1|52=20250627-07:09:27.034|35=8|150=0|39=0|37=12345|17=1|10=048|
20250627 14:09:27.034 - 8=FIX.4.2|9=102|35=8|34=113|49=EchoServer|56=ConnectToGateway1|52=20250627-07:09:27.034|35=8|150=0|39=0|37=12345|17=1|10=049|
20250627 14:09:27.034 - 8=FIX.4.2|9=102|35=8|34=114|49=EchoServer|56=ConnectToGateway1|52=20250627-07:09:27.034|35=8|150=0|39=0|37=12345|17=1|10=050|
20250627 14:09:27.034 - 8=FIX.4.2|9=102|35=8|34=115|49=EchoServer|56=ConnectToGateway1|52=20250627-07:09:27.034|35=8|150=0|39=0|37=12345|17=1|10=051|
20250627 14:09:27.034 - 8=FIX.4.2|9=102|35=8|34=116|49=EchoServer|56=ConnectToGateway1|52=20250627-07:09:27.034|35=8|150=0|39=0|37=12345|17=1|10=052|
20250627 14:09:27.034 - 8=FIX.4.2|9=102|35=8|34=117|49=EchoServer|56=ConnectToGateway1|52=20250627-07:09:27.034|35=8|150=0|39=0|37=12345|17=1|10=053|
20250627 14:09:27.035 - 8=FIX.4.2|9=102|35=8|34=118|49=EchoServer|56=ConnectToGateway1|52=20250627-07:09:27.035|35=8|150=0|39=0|37=12345|17=1|10=055|
20250627 14:09:27.035 - 8=FIX.4.2|9=102|35=8|34=119|49=EchoServer|56=ConnectToGateway1|52=20250627-07:09:27.035|35=8|150=0|39=0|37=12345|17=1|10=056|
20250627 14:09:27.035 - 8=FIX.4.2|9=102|35=8|34=120|49=EchoServer|56=ConnectToGateway1|52=20250627-07:09:27.035|35=8|150=0|39=0|37=12345|17=1|10=048|
20250627 14:09:27.035 - 8=FIX.4.2|9=102|35=8|34=121|49=EchoServer|56=ConnectToGateway1|52=20250627-07:09:27.035|35=8|150=0|39=0|37=12345|17=1|10=049|
20250627 14:09:27.035 - 8=FIX.4.2|9=116|35=4|34=101|49=EchoServer|56=ConnectToGateway1|52=20250627-07:09:27.035|43=Y|122=20250627-07:09:27.030|123=Y|36=112|10=098|
20250627 14:09:27.036 - 8=FIX.4.2|9=133|35=8|34=112|49=EchoServer|56=ConnectToGateway1|43=Y|122=20250627-07:09:27.034|52=20250627-07:09:27.036|35=8|150=0|39=0|37=12345|17=1|10=062|
20250627 14:09:27.036 - 8=FIX.4.2|9=133|35=8|34=113|49=EchoServer|56=ConnectToGateway1|43=Y|122=20250627-07:09:27.034|52=20250627-07:09:27.036|35=8|150=0|39=0|37=12345|17=1|10=063|
20250627 14:09:27.036 - 8=FIX.4.2|9=133|35=8|34=114|49=EchoServer|56=ConnectToGateway1|43=Y|122=20250627-07:09:27.034|52=20250627-07:09:27.036|35=8|150=0|39=0|37=12345|17=1|10=064|
20250627 14:09:27.036 - 8=FIX.4.2|9=133|35=8|34=115|49=EchoServer|56=ConnectToGateway1|43=Y|122=20250627-07:09:27.034|52=20250627-07:09:27.036|35=8|150=0|39=0|37=12345|17=1|10=065|
20250627 14:09:27.036 - 8=FIX.4.2|9=133|35=8|34=116|49=EchoServer|56=ConnectToGateway1|43=Y|122=20250627-07:09:27.034|52=20250627-07:09:27.036|35=8|150=0|39=0|37=12345|17=1|10=066|
20250627 14:09:27.036 - 8=FIX.4.2|9=133|35=8|34=117|49=EchoServer|56=ConnectToGateway1|43=Y|122=20250627-07:09:27.034|52=20250627-07:09:27.036|35=8|150=0|39=0|37=12345|17=1|10=067|
20250627 14:09:27.036 - 8=FIX.4.2|9=133|35=8|34=118|49=EchoServer|56=ConnectToGateway1|43=Y|122=20250627-07:09:27.035|52=20250627-07:09:27.036|35=8|150=0|39=0|37=12345|17=1|10=069|
20250627 14:09:27.036 - 8=FIX.4.2|9=133|35=8|34=119|49=EchoServer|56=ConnectToGateway1|43=Y|122=20250627-07:09:27.035|52=20250627-07:09:27.036|35=8|150=0|39=0|37=12345|17=1|10=070|
20250627 14:09:27.036 - 8=FIX.4.2|9=133|35=8|34=120|49=EchoServer|56=ConnectToGateway1|43=Y|122=20250627-07:09:27.035|52=20250627-07:09:27.036|35=8|150=0|39=0|37=12345|17=1|10=062|
20250627 14:09:27.036 - 8=FIX.4.2|9=133|35=8|34=121|49=EchoServer|56=ConnectToGateway1|43=Y|122=20250627-07:09:27.035|52=20250627-07:09:27.036|35=8|150=0|39=0|37=12345|17=1|10=063|
20250627 14:09:27.036 - 8=FIX.4.2|9=102|35=8|34=122|49=EchoServer|56=ConnectToGateway1|52=20250627-07:09:27.036|35=8|150=0|39=0|37=12345|17=1|10=051|
20250627 14:09:27.036 - 8=FIX.4.2|9=102|35=8|34=123|49=EchoServer|56=ConnectToGateway1|52=20250627-07:09:27.036|35=8|150=0|39=0|37=12345|17=1|10=052|
20250627 14:09:27.036 - 8=FIX.4.2|9=102|35=8|34=124|49=EchoServer|56=ConnectToGateway1|52=20250627-07:09:27.036|35=8|150=0|39=0|37=12345|17=1|10=053|
20250627 14:09:27.036 - 8=FIX.4.2|9=102|35=8|34=125|49=EchoServer|56=ConnectToGateway1|52=20250627-07:09:27.036|35=8|150=0|39=0|37=12345|17=1|10=054|
20250627 14:09:27.036 - 8=FIX.4.2|9=102|35=8|34=126|49=EchoServer|56=ConnectToGateway1|52=20250627-07:09:27.036|35=8|150=0|39=0|37=12345|17=1|10=055|
20250627 14:09:27.037 - 8=FIX.4.2|9=102|35=8|34=127|49=EchoServer|56=ConnectToGateway1|52=20250627-07:09:27.037|35=8|150=0|39=0|37=12345|17=1|10=057|
20250627 14:09:27.037 - 8=FIX.4.2|9=102|35=8|34=128|49=EchoServer|56=ConnectToGateway1|52=20250627-07:09:27.037|35=8|150=0|39=0|37=12345|17=1|10=058|
20250627 14:09:27.037 - 8=FIX.4.2|9=102|35=8|34=129|49=EchoServer|56=ConnectToGateway1|52=20250627-07:09:27.037|35=8|150=0|39=0|37=12345|17=1|10=059|
20250627 14:09:27.037 - 8=FIX.4.2|9=102|35=8|34=130|49=EchoServer|56=ConnectToGateway1|52=20250627-07:09:27.037|35=8|150=0|39=0|37=12345|17=1|10=051|
20250627 14:09:27.037 - 8=FIX.4.2|9=102|35=8|34=131|49=EchoServer|56=ConnectToGateway1|52=20250627-07:09:27.037|35=8|150=0|39=0|37=12345|17=1|10=052|
20250627 14:09:27.037 - 8=FIX.4.2|9=102|35=8|34=132|49=EchoServer|56=ConnectToGateway1|52=20250627-07:09:27.037|35=8|150=0|39=0|37=12345|17=1|10=053|
20250627 14:09:27.037 - 8=FIX.4.2|9=102|35=8|34=133|49=EchoServer|56=ConnectToGateway1|52=20250627-07:09:27.037|35=8|150=0|39=0|37=12345|17=1|10=054|
20250627 14:09:27.037 - 8=FIX.4.2|9=102|35=8|34=134|49=EchoServer|56=ConnectToGateway1|52=20250627-07:09:27.037|35=8|150=0|39=0|37=12345|17=1|10=055|
20250627 14:09:27.037 - 8=FIX.4.2|9=102|35=8|34=135|49=EchoServer|56=ConnectToGateway1|52=20250627-07:09:27.037|35=8|150=0|39=0|37=12345|17=1|10=056|
20250627 14:09:27.037 - 8=FIX.4.2|9=102|35=8|34=136|49=EchoServer|56=ConnectToGateway1|52=20250627-07:09:27.037|35=8|150=0|39=0|37=12345|17=1|10=057|
20250627 14:09:27.037 - 8=FIX.4.2|9=102|35=8|34=137|49=EchoServer|56=ConnectToGateway1|52=20250627-07:09:27.037|35=8|150=0|39=0|37=12345|17=1|10=058|
20250627 14:09:27.037 - 8=FIX.4.2|9=102|35=8|34=138|49=EchoServer|56=ConnectToGateway1|52=20250627-07:09:27.037|35=8|150=0|39=0|37=12345|17=1|10=059|
20250627 14:09:27.037 - 8=FIX.4.2|9=102|35=8|34=139|49=EchoServer|56=ConnectToGateway1|52=20250627-07:09:27.037|35=8|150=0|39=0|37=12345|17=1|10=060|
20250627 14:09:27.037 - 8=FIX.4.2|9=102|35=8|34=140|49=EchoServer|56=ConnectToGateway1|52=20250627-07:09:27.037|35=8|150=0|39=0|37=12345|17=1|10=052|
20250627 14:09:27.037 - 8=FIX.4.2|9=102|35=8|34=141|49=EchoServer|56=ConnectToGateway1|52=20250627-07:09:27.037|35=8|150=0|39=0|37=12345|17=1|10=053|
20250627 14:09:27.037 - 8=FIX.4.2|9=102|35=8|34=142|49=EchoServer|56=ConnectToGateway1|52=20250627-07:09:27.037|35=8|150=0|39=0|37=12345|17=1|10=054|
20250627 14:09:27.037 - 8=FIX.4.2|9=102|35=8|34=143|49=EchoServer|56=ConnectToGateway1|52=20250627-07:09:27.037|35=8|150=0|39=0|37=12345|17=1|10=055|
20250627 14:09:32.568 - 8=FIX.4.2|9=93|35=5|34=144|49=EchoServer|56=ConnectToGateway1|52=20250627-07:09:32.568|58=Confirming logout|10=074|
20250627 14:09:41.412 - 8=FIX.4.2|9=84|35=A|34=145|49=EchoServer|56=ConnectToGateway1|52=20250627-07:09:41.411|98=0|108=30|10=242|
20250627 14:09:41.476 - 8=FIX.4.2|9=102|35=8|34=146|49=EchoServer|56=ConnectToGateway1|52=20250627-07:09:41.476|35=8|150=0|39=0|37=12345|17=1|10=061|
20250627 14:10:07.963 - 8=FIX.4.2|9=93|35=5|34=147|49=EchoServer|56=ConnectToGateway1|52=20250627-07:10:07.963|58=Confirming logout|10=070|
20250627 14:10:10.162 - 8=FIX.4.2|9=84|35=A|34=148|49=EchoServer|56=ConnectToGateway1|52=20250627-07:10:10.162|98=0|108=30|10=236|
20250627 14:10:10.219 - 8=FIX.4.2|9=102|35=8|34=149|49=EchoServer|56=ConnectToGateway1|52=20250627-07:10:10.219|35=8|150=0|39=0|37=12345|17=1|10=047|
20250627 14:10:19.679 - 8=FIX.4.2|9=93|35=5|34=150|49=EchoServer|56=ConnectToGateway1|52=20250627-07:10:19.679|58=Confirming logout|10=071|
20250627 14:10:27.701 - 8=FIX.4.2|9=84|35=A|34=151|49=EchoServer|56=ConnectToGateway1|52=20250627-07:10:27.700|98=0|108=30|10=236|
20250627 14:10:27.714 - 8=FIX.4.2|9=116|35=4|34=150|49=EchoServer|56=ConnectToGateway1|52=20250627-07:10:27.714|43=Y|122=20250627-07:10:27.700|123=Y|36=152|10=098|
20250627 14:10:27.717 - 8=FIX.4.2|9=102|35=8|34=152|49=EchoServer|56=ConnectToGateway1|52=20250627-07:10:27.717|35=8|150=0|39=0|37=12345|17=1|10=052|
20250627 14:10:57.717 - 8=FIX.4.2|9=72|35=0|34=153|49=EchoServer|56=ConnectToGateway1|52=20250627-07:10:57.717|10=204|
20250627 14:11:27.718 - 8=FIX.4.2|9=72|35=0|34=154|49=EchoServer|56=ConnectToGateway1|52=20250627-07:11:27.718|10=204|
20250627 14:11:31.026 - 8=FIX.4.2|9=96|35=5|34=155|49=EchoServer|56=ConnectToGateway1|52=20250627-07:11:31.026|58=Application shutdown|10=134|
20250627 14:12:10.635 - 8=FIX.4.4|9=84|35=A|34=156|49=EchoServer|56=ConnectToGateway1|52=20250627-07:12:10.634|98=0|108=30|10=243|
20250627 14:12:10.636 - 8=FIX.4.4|9=83|35=2|34=157|49=EchoServer|56=ConnectToGateway1|52=20250627-07:12:10.636|7=185|16=0|10=181|
20250627 14:12:10.651 - 8=FIX.4.4|9=102|35=8|34=158|49=EchoServer|56=ConnectToGateway1|52=20250627-07:12:10.651|35=8|150=0|39=0|37=12345|17=1|10=051|
20250627 14:12:40.651 - 8=FIX.4.4|9=72|35=0|34=159|49=EchoServer|56=ConnectToGateway1|52=20250627-07:12:40.651|10=203|
20250627 14:13:10.651 - 8=FIX.4.4|9=72|35=0|34=160|49=EchoServer|56=ConnectToGateway1|52=20250627-07:13:10.651|10=193|
20250627 14:13:12.320 - 8=FIX.4.4|9=96|35=5|34=161|49=EchoServer|56=ConnectToGateway1|52=20250627-07:13:12.320|58=Application shutdown|10=131|
20250627 14:14:12.999 - 8=FIX.4.4|9=84|35=A|34=162|49=EchoServer|56=ConnectToGateway1|52=20250627-07:14:12.998|98=0|108=30|10=001|
20250627 14:14:13.000 - 8=FIX.4.4|9=83|35=2|34=163|49=EchoServer|56=ConnectToGateway1|52=20250627-07:14:13.000|7=190|16=0|10=164|
20250627 14:14:13.016 - 8=FIX.4.4|9=102|35=8|34=164|49=EchoServer|56=ConnectToGateway1|52=20250627-07:14:13.016|35=8|150=0|39=0|37=12345|17=1|10=048|
20250627 14:14:30.001 - 8=FIX.4.4|9=93|35=5|34=165|49=EchoServer|56=ConnectToGateway1|52=20250627-07:14:30.001|58=Confirming logout|10=055|
20250627 14:15:31.604 - 8=FIX.4.4|9=84|35=A|34=166|49=EchoServer|56=ConnectToGateway1|52=20250627-07:15:31.603|98=0|108=30|10=246|
20250627 14:15:31.616 - 8=FIX.4.4|9=116|35=4|34=165|49=EchoServer|56=ConnectToGateway1|52=20250627-07:15:31.616|43=Y|122=20250627-07:15:31.603|123=Y|36=167|10=115|
20250627 14:15:31.619 - 8=FIX.4.4|9=102|35=8|34=167|49=EchoServer|56=ConnectToGateway1|52=20250627-07:15:31.619|35=8|150=0|39=0|37=12345|17=1|10=061|
20250627 14:16:01.619 - 8=FIX.4.4|9=72|35=0|34=168|49=EchoServer|56=ConnectToGateway1|52=20250627-07:16:01.619|10=208|
20250627 14:16:31.619 - 8=FIX.4.4|9=72|35=0|34=169|49=EchoServer|56=ConnectToGateway1|52=20250627-07:16:31.619|10=212|
20250627 14:17:01.619 - 8=FIX.4.4|9=72|35=0|34=170|49=EchoServer|56=ConnectToGateway1|52=20250627-07:17:01.619|10=202|
20250627 14:17:31.620 - 8=FIX.4.4|9=72|35=0|34=171|49=EchoServer|56=ConnectToGateway1|52=20250627-07:17:31.620|10=198|
20250627 14:18:01.620 - 8=FIX.4.4|9=72|35=0|34=172|49=EchoServer|56=ConnectToGateway1|52=20250627-07:18:01.620|10=197|
20250627 14:18:31.620 - 8=FIX.4.4|9=72|35=0|34=173|49=EchoServer|56=ConnectToGateway1|52=20250627-07:18:31.620|10=201|
20250627 14:19:01.621 - 8=FIX.4.4|9=72|35=0|34=174|49=EchoServer|56=ConnectToGateway1|52=20250627-07:19:01.621|10=201|
20250627 14:19:31.621 - 8=FIX.4.4|9=72|35=0|34=175|49=EchoServer|56=ConnectToGateway1|52=20250627-07:19:31.621|10=205|
20250627 14:20:01.621 - 8=FIX.4.4|9=72|35=0|34=176|49=EchoServer|56=ConnectToGateway1|52=20250627-07:20:01.621|10=195|
20250627 14:20:31.621 - 8=FIX.4.4|9=72|35=0|34=177|49=EchoServer|56=ConnectToGateway1|52=20250627-07:20:31.621|10=199|
20250627 14:21:01.622 - 8=FIX.4.4|9=72|35=0|34=178|49=EchoServer|56=ConnectToGateway1|52=20250627-07:21:01.622|10=199|
20250627 14:21:31.622 - 8=FIX.4.4|9=72|35=0|34=179|49=EchoServer|56=ConnectToGateway1|52=20250627-07:21:31.622|10=203|
20250627 14:22:01.623 - 8=FIX.4.4|9=72|35=0|34=180|49=EchoServer|56=ConnectToGateway1|52=20250627-07:22:01.622|10=193|
20250627 14:22:26.753 - 8=FIX.4.4|9=93|35=5|34=181|49=EchoServer|56=ConnectToGateway1|52=20250627-07:22:26.753|58=Confirming logout|10=071|
