20250626 18:20:28.673 - 8=FIX.4.4|9=81|35=A|34=7|49=ConnectToGateway|56=EchoServer|52=20250626-11:20:28.471|98=0|108=30|10=091|
20250626 18:20:28.694 - 8=FIX.4.4|9=111|35=4|34=1|49=ConnectToGateway|56=EchoServer|52=20250626-11:20:28.691|43=Y|122=20250626-11:20:28.471|123=Y|36=8|10=106|
20250626 18:20:45.227 - 8=FIX.4.4|9=89|35=5|34=8|49=ConnectToGateway|56=EchoServer|52=20250626-11:20:45.226|58=Shutting down...|10=159|
20250626 18:22:34.931 - 8=FIX.4.4|9=81|35=A|34=9|49=ConnectToGateway|56=EchoServer|52=20250626-11:22:34.718|98=0|108=30|10=096|
20250626 18:22:34.949 - 8=FIX.4.4|9=79|35=2|34=10|49=ConnectToGateway|56=EchoServer|52=20250626-11:22:34.945|7=3|16=0|10=230|
20250626 18:22:48.162 - 8=FIX.4.4|9=90|35=5|34=11|49=ConnectToGateway|56=EchoServer|52=20250626-11:22:48.161|58=Shutting down...|10=196|
20250626 18:22:53.345 - 8=FIX.4.4|9=82|35=A|34=12|49=ConnectToGateway|56=EchoServer|52=20250626-11:22:53.333|98=0|108=30|10=133|
20250626 18:22:53.352 - 8=FIX.4.4|9=79|35=2|34=13|49=ConnectToGateway|56=EchoServer|52=20250626-11:22:53.351|7=4|16=0|10=226|
20250626 18:23:23.353 - 8=FIX.4.4|9=70|35=0|34=14|49=ConnectToGateway|56=EchoServer|52=20250626-11:23:23.352|10=089|
20250626 18:23:53.353 - 8=FIX.4.4|9=70|35=0|34=15|49=ConnectToGateway|56=EchoServer|52=20250626-11:23:53.352|10=093|
20250626 18:24:04.591 - 8=FIX.4.4|9=90|35=5|34=16|49=ConnectToGateway|56=EchoServer|52=20250626-11:24:04.590|58=Shutting down...|10=201|
20250626 18:24:08.701 - 8=FIX.4.4|9=82|35=A|34=17|49=ConnectToGateway|56=EchoServer|52=20250626-11:24:08.694|98=0|108=30|10=150|
20250626 18:24:08.763 - 8=FIX.4.4|9=77|35=D|34=18|49=ConnectToGateway|56=EchoServer|52=20250626-11:24:08.758|11=100|10=183|
20250626 18:24:08.763 - 8=FIX.4.4|9=77|35=D|34=19|49=ConnectToGateway|56=EchoServer|52=20250626-11:24:08.758|11=100|10=184|
20250626 18:24:08.763 - 8=FIX.4.4|9=77|35=D|34=20|49=ConnectToGateway|56=EchoServer|52=20250626-11:24:08.759|11=100|10=177|
20250626 18:24:26.752 - 8=FIX.4.4|9=90|35=5|34=21|49=ConnectToGateway|56=EchoServer|52=20250626-11:24:26.751|58=Shutting down...|10=200|
20250626 18:24:58.301 - 8=FIX.4.4|9=82|35=A|34=22|49=ConnectToGateway|56=EchoServer|52=20250626-11:24:58.294|98=0|108=30|10=147|
20250626 18:24:58.359 - 8=FIX.4.4|9=77|35=D|34=23|49=ConnectToGateway|56=EchoServer|52=20250626-11:24:58.359|11=100|10=181|
20250626 18:24:58.360 - 8=FIX.4.4|9=77|35=D|34=24|49=ConnectToGateway|56=EchoServer|52=20250626-11:24:58.359|11=100|10=182|
20250626 18:24:58.360 - 8=FIX.4.4|9=77|35=D|34=25|49=ConnectToGateway|56=EchoServer|52=20250626-11:24:58.359|11=100|10=183|
20250626 18:24:58.360 - 8=FIX.4.4|9=77|35=D|34=26|49=ConnectToGateway|56=EchoServer|52=20250626-11:24:58.359|11=100|10=184|
20250626 18:24:58.360 - 8=FIX.4.4|9=77|35=D|34=27|49=ConnectToGateway|56=EchoServer|52=20250626-11:24:58.359|11=100|10=185|
20250626 18:25:01.649 - 8=FIX.4.4|9=90|35=5|34=28|49=ConnectToGateway|56=EchoServer|52=20250626-11:25:01.649|58=Shutting down...|10=207|
20250626 18:26:21.538 - 8=FIX.4.4|9=82|35=A|34=29|49=ConnectToGateway|56=EchoServer|52=20250626-11:26:21.334|98=0|108=30|10=141|
20250626 18:26:21.609 - 8=FIX.4.4|9=77|35=D|34=30|49=ConnectToGateway|56=EchoServer|52=20250626-11:26:21.604|11=100|10=164|
20250626 18:26:21.609 - 8=FIX.4.4|9=77|35=D|34=31|49=ConnectToGateway|56=EchoServer|52=20250626-11:26:21.604|11=100|10=165|
20250626 18:26:21.609 - 8=FIX.4.4|9=77|35=D|34=32|49=ConnectToGateway|56=EchoServer|52=20250626-11:26:21.604|11=100|10=166|
20250626 18:26:21.610 - 8=FIX.4.4|9=77|35=D|34=33|49=ConnectToGateway|56=EchoServer|52=20250626-11:26:21.604|11=100|10=167|
20250626 18:26:21.610 - 8=FIX.4.4|9=77|35=D|34=34|49=ConnectToGateway|56=EchoServer|52=20250626-11:26:21.604|11=100|10=168|
20250626 18:26:25.986 - 8=FIX.4.4|9=90|35=5|34=35|49=ConnectToGateway|56=EchoServer|52=20250626-11:26:25.985|58=Shutting down...|10=215|
20250626 18:28:25.055 - 8=FIX.4.4|9=82|35=A|34=36|49=ConnectToGateway|56=EchoServer|52=20250626-11:28:25.039|98=0|108=30|10=147|
20250626 18:28:25.115 - 8=FIX.4.4|9=77|35=D|34=37|49=ConnectToGateway|56=EchoServer|52=20250626-11:28:25.114|11=100|10=173|
20250626 18:28:25.115 - 8=FIX.4.4|9=77|35=D|34=38|49=ConnectToGateway|56=EchoServer|52=20250626-11:28:25.114|11=100|10=174|
20250626 18:28:25.115 - 8=FIX.4.4|9=77|35=D|34=39|49=ConnectToGateway|56=EchoServer|52=20250626-11:28:25.114|11=100|10=175|
20250626 18:28:25.115 - 8=FIX.4.4|9=77|35=D|34=40|49=ConnectToGateway|56=EchoServer|52=20250626-11:28:25.114|11=100|10=167|
20250626 18:28:25.115 - 8=FIX.4.4|9=77|35=D|34=41|49=ConnectToGateway|56=EchoServer|52=20250626-11:28:25.114|11=100|10=168|
20250626 18:28:55.115 - 8=FIX.4.4|9=70|35=0|34=42|49=ConnectToGateway|56=EchoServer|52=20250626-11:28:55.114|10=096|
20250626 18:29:25.115 - 8=FIX.4.4|9=70|35=0|34=43|49=ConnectToGateway|56=EchoServer|52=20250626-11:29:25.115|10=096|
20250626 18:29:55.116 - 8=FIX.4.4|9=70|35=0|34=44|49=ConnectToGateway|56=EchoServer|52=20250626-11:29:55.115|10=100|
20250626 18:30:23.772 - 8=FIX.4.4|9=82|35=A|34=46|49=ConnectToGateway|56=EchoServer|52=20250626-11:30:23.562|98=0|108=30|10=140|
20250626 18:30:23.792 - 8=FIX.4.4|9=113|35=4|34=45|49=ConnectToGateway|56=EchoServer|52=20250626-11:30:23.790|43=Y|122=20250626-11:30:23.562|123=Y|36=47|10=208|
20250626 18:30:23.796 - 8=FIX.4.4|9=77|35=D|34=47|49=ConnectToGateway|56=EchoServer|52=20250626-11:30:23.791|11=100|10=176|
20250626 18:30:23.797 - 8=FIX.4.4|9=77|35=D|34=48|49=ConnectToGateway|56=EchoServer|52=20250626-11:30:23.791|11=100|10=177|
20250626 18:30:23.797 - 8=FIX.4.4|9=77|35=D|34=49|49=ConnectToGateway|56=EchoServer|52=20250626-11:30:23.791|11=100|10=178|
20250626 18:30:23.797 - 8=FIX.4.4|9=77|35=D|34=50|49=ConnectToGateway|56=EchoServer|52=20250626-11:30:23.791|11=100|10=170|
20250626 18:30:49.394 - 8=FIX.4.4|9=90|35=5|34=51|49=ConnectToGateway|56=EchoServer|52=20250626-11:30:49.393|58=Shutting down...|10=207|
20250627 09:48:16.777 - 8=FIX.4.4|9=82|35=A|34=52|49=ConnectToGateway|56=EchoServer|52=20250627-02:48:16.563|98=0|108=30|10=150|
20250627 09:48:16.847 - 8=FIX.4.4|9=77|35=D|34=53|49=ConnectToGateway|56=EchoServer|52=20250627-02:48:16.842|11=100|10=182|
20250627 09:48:16.847 - 8=FIX.4.4|9=77|35=D|34=54|49=ConnectToGateway|56=EchoServer|52=20250627-02:48:16.842|11=100|10=183|
20250627 09:48:16.847 - 8=FIX.4.4|9=77|35=D|34=55|49=ConnectToGateway|56=EchoServer|52=20250627-02:48:16.842|11=100|10=184|
20250627 09:48:16.847 - 8=FIX.4.4|9=77|35=D|34=56|49=ConnectToGateway|56=EchoServer|52=20250627-02:48:16.842|11=100|10=185|
20250627 09:48:16.848 - 8=FIX.4.4|9=77|35=D|34=57|49=ConnectToGateway|56=EchoServer|52=20250627-02:48:16.842|11=100|10=186|
20250627 09:48:16.848 - 8=FIX.4.4|9=77|35=D|34=58|49=ConnectToGateway|56=EchoServer|52=20250627-02:48:16.842|11=100|10=187|
20250627 09:48:16.848 - 8=FIX.4.4|9=77|35=D|34=59|49=ConnectToGateway|56=EchoServer|52=20250627-02:48:16.842|11=100|10=188|
20250627 09:48:16.848 - 8=FIX.4.4|9=77|35=D|34=60|49=ConnectToGateway|56=EchoServer|52=20250627-02:48:16.842|11=100|10=180|
20250627 09:48:16.848 - 8=FIX.4.4|9=77|35=D|34=61|49=ConnectToGateway|56=EchoServer|52=20250627-02:48:16.842|11=100|10=181|
20250627 09:48:16.848 - 8=FIX.4.4|9=77|35=D|34=62|49=ConnectToGateway|56=EchoServer|52=20250627-02:48:16.842|11=100|10=182|
20250627 09:48:16.849 - 8=FIX.4.4|9=77|35=D|34=63|49=ConnectToGateway|56=EchoServer|52=20250627-02:48:16.843|11=100|10=184|
20250627 09:48:46.844 - 8=FIX.4.4|9=70|35=0|34=64|49=ConnectToGateway|56=EchoServer|52=20250627-02:48:46.843|10=112|
20250627 09:49:16.844 - 8=FIX.4.4|9=70|35=0|34=65|49=ConnectToGateway|56=EchoServer|52=20250627-02:49:16.843|10=111|
20250627 09:49:32.977 - 8=FIX.4.4|9=91|35=5|34=66|49=ConnectToGateway|56=EchoServer|52=20250627-02:49:32.977|58=Confirming logout|10=239|
20250627 09:50:45.164 - 8=FIX.4.4|9=82|35=A|34=67|49=ConnectToGateway|56=EchoServer|52=20250627-02:50:44.969|98=0|108=30|10=160|
20250627 09:50:45.234 - 8=FIX.4.4|9=77|35=D|34=68|49=ConnectToGateway|56=EchoServer|52=20250627-02:50:45.229|11=100|10=182|
20250627 09:50:45.234 - 8=FIX.4.4|9=77|35=D|34=69|49=ConnectToGateway|56=EchoServer|52=20250627-02:50:45.229|11=100|10=183|
20250627 09:50:45.235 - 8=FIX.4.4|9=77|35=D|34=70|49=ConnectToGateway|56=EchoServer|52=20250627-02:50:45.229|11=100|10=175|
20250627 09:50:45.235 - 8=FIX.4.4|9=77|35=D|34=71|49=ConnectToGateway|56=EchoServer|52=20250627-02:50:45.229|11=100|10=176|
20250627 09:50:45.235 - 8=FIX.4.4|9=77|35=D|34=72|49=ConnectToGateway|56=EchoServer|52=20250627-02:50:45.229|11=100|10=177|
20250627 09:50:45.235 - 8=FIX.4.4|9=77|35=D|34=73|49=ConnectToGateway|56=EchoServer|52=20250627-02:50:45.230|11=100|10=170|
20250627 09:51:15.231 - 8=FIX.4.4|9=70|35=0|34=74|49=ConnectToGateway|56=EchoServer|52=20250627-02:51:15.230|10=093|
20250627 09:51:45.231 - 8=FIX.4.4|9=70|35=0|34=75|49=ConnectToGateway|56=EchoServer|52=20250627-02:51:45.231|10=098|
20250627 09:52:15.232 - 8=FIX.4.4|9=70|35=0|34=76|49=ConnectToGateway|56=EchoServer|52=20250627-02:52:15.231|10=097|
20250627 09:52:43.027 - 8=FIX.4.4|9=91|35=5|34=77|49=ConnectToGateway|56=EchoServer|52=20250627-02:52:43.026|58=Confirming logout|10=222|
20250627 09:52:50.315 - 8=FIX.4.4|9=82|35=A|34=78|49=ConnectToGateway|56=EchoServer|52=20250627-02:52:50.123|98=0|108=30|10=143|
20250627 09:52:50.386 - 8=FIX.4.4|9=77|35=D|34=79|49=ConnectToGateway|56=EchoServer|52=20250627-02:52:50.381|11=100|10=181|
20250627 09:52:50.386 - 8=FIX.4.4|9=77|35=D|34=80|49=ConnectToGateway|56=EchoServer|52=20250627-02:52:50.381|11=100|10=173|
20250627 09:52:50.386 - 8=FIX.4.4|9=77|35=D|34=81|49=ConnectToGateway|56=EchoServer|52=20250627-02:52:50.381|11=100|10=174|
20250627 09:52:50.387 - 8=FIX.4.4|9=77|35=D|34=82|49=ConnectToGateway|56=EchoServer|52=20250627-02:52:50.382|11=100|10=176|
20250627 09:53:20.384 - 8=FIX.4.4|9=70|35=0|34=83|49=ConnectToGateway|56=EchoServer|52=20250627-02:53:20.382|10=099|
20250627 09:53:31.457 - 8=FIX.4.4|9=90|35=5|34=84|49=ConnectToGateway|56=EchoServer|52=20250627-02:53:31.456|58=Shutting down...|10=210|
20250627 10:13:17.074 - 8=FIX.4.4|9=82|35=A|34=93|49=ConnectToGateway|56=EchoServer|52=20250627-03:13:16.857|98=0|108=30|10=154|
20250627 10:13:17.095 - 8=FIX.4.4|9=113|35=4|34=85|49=ConnectToGateway|56=EchoServer|52=20250627-03:13:17.092|43=Y|122=20250627-03:13:16.857|123=Y|36=94|10=227|
20250627 10:13:17.100 - 8=FIX.4.4|9=77|35=D|34=94|49=ConnectToGateway|56=EchoServer|52=20250627-03:13:17.093|11=100|10=179|
20250627 10:34:29.011 - 8=FIX.4.4|9=82|35=A|34=97|49=ConnectToGateway|56=EchoServer|52=20250627-03:34:28.806|98=0|108=30|10=158|
20250627 10:34:29.036 - 8=FIX.4.4|9=108|35=D|34=95|49=ConnectToGateway|56=EchoServer|43=Y|122=20250627-03:13:17.093|52=20250627-03:34:29.030|11=100|10=223|
20250627 10:34:29.039 - 8=FIX.4.4|9=159|35=D|34=96|49=ConnectToGateway|56=EchoServer|43=Y|122=20250627-03:13:17.093|52=20250627-03:34:29.031|11=100|21=1|55=BTCUSD|54=1|60=20250627-03:13:17|38=1|40=1|10=183|
20250627 10:34:29.041 - 8=FIX.4.4|9=113|35=4|34=97|49=ConnectToGateway|56=EchoServer|52=20250627-03:34:29.031|43=Y|122=20250627-03:34:28.806|123=Y|36=98|10=233|
20250627 10:34:29.041 - 8=FIX.4.4|9=128|35=D|34=98|49=ConnectToGateway|56=EchoServer|52=20250627-03:34:29.032|11=100|21=1|55=BTCUSD|54=1|60=20250627-03:34:29|38=1|40=1|10=185|
20250627 10:34:48.600 - 8=FIX.4.4|9=82|35=A|34=99|49=ConnectToGateway|56=EchoServer|52=20250627-03:34:48.584|98=0|108=30|10=165|
20250627 10:45:41.744 - 8=FIX.4.4|9=83|35=A|34=100|49=ConnectToGateway|56=EchoServer|52=20250627-03:45:41.737|98=0|108=30|10=192|
20250627 10:48:36.302 - 8=FIX.4.4|9=83|35=A|34=101|49=ConnectToGateway|56=EchoServer|52=20250627-03:48:36.079|98=0|108=30|10=199|
20250627 10:48:58.078 - 8=FIX.4.4|9=83|35=A|34=102|49=ConnectToGateway|56=EchoServer|52=20250627-03:48:58.061|98=0|108=30|10=195|
20250627 10:49:27.294 - 8=FIX.4.4|9=83|35=A|34=103|49=ConnectToGateway|56=EchoServer|52=20250627-03:49:27.074|98=0|108=30|10=197|
20250627 10:50:21.192 - 8=FIX.4.4|9=83|35=A|34=104|49=ConnectToGateway|56=EchoServer|52=20250627-03:50:20.969|98=0|108=30|10=196|
20250627 13:14:44.339 - 8=FIX.4.4|9=84|35=A|34=135|49=ConnectToGateway1|56=EchoServer|52=20250627-06:14:44.239|98=0|108=30|10=249|
20250627 13:14:44.360 - 8=FIX.4.4|9=82|35=2|34=136|49=ConnectToGateway1|56=EchoServer|52=20250627-06:14:44.356|7=90|16=0|10=131|
20250627 13:14:44.364 - 8=FIX.4.4|9=116|35=4|34=105|49=ConnectToGateway1|56=EchoServer|52=20250627-06:14:44.362|43=Y|122=20250627-06:14:44.356|123=Y|36=137|10=113|
20250627 13:14:51.812 - 8=FIX.4.4|9=84|35=A|34=165|49=ConnectToGateway1|56=EchoServer|52=20250627-06:14:51.796|98=0|108=30|10=002|
20250627 13:14:51.819 - 8=FIX.4.4|9=82|35=2|34=166|49=ConnectToGateway1|56=EchoServer|52=20250627-06:14:51.818|7=91|16=0|10=136|
20250627 14:09:27.012 - 8=FIX.4.2|9=84|35=A|34=138|49=ConnectToGateway1|56=EchoServer|52=20250627-07:09:26.916|98=0|108=30|10=001|
20250627 14:09:27.030 - 8=FIX.4.2|9=83|35=2|34=139|49=ConnectToGateway1|56=EchoServer|52=20250627-07:09:27.026|7=101|16=0|10=174|
20250627 14:09:27.033 - 8=FIX.4.2|9=116|35=4|34=137|49=ConnectToGateway1|56=EchoServer|52=20250627-07:09:27.031|43=Y|122=20250627-07:09:27.026|123=Y|36=140|10=109|
20250627 14:09:27.034 - 8=FIX.4.2|9=120|35=B|34=140|49=ConnectToGateway1|56=EchoServer|52=20250627-07:09:27.032|148=Hello there|33=3|58=line1|58=line2|58=line3|10=108|
20250627 14:09:27.034 - 8=FIX.4.2|9=120|35=B|34=141|49=ConnectToGateway1|56=EchoServer|52=20250627-07:09:27.032|148=Hello there|33=3|58=line1|58=line2|58=line3|10=109|
20250627 14:09:27.034 - 8=FIX.4.2|9=120|35=B|34=142|49=ConnectToGateway1|56=EchoServer|52=20250627-07:09:27.032|148=Hello there|33=3|58=line1|58=line2|58=line3|10=110|
20250627 14:09:27.034 - 8=FIX.4.2|9=120|35=B|34=143|49=ConnectToGateway1|56=EchoServer|52=20250627-07:09:27.032|148=Hello there|33=3|58=line1|58=line2|58=line3|10=111|
20250627 14:09:27.034 - 8=FIX.4.2|9=120|35=B|34=144|49=ConnectToGateway1|56=EchoServer|52=20250627-07:09:27.032|148=Hello there|33=3|58=line1|58=line2|58=line3|10=112|
20250627 14:09:27.034 - 8=FIX.4.2|9=120|35=B|34=145|49=ConnectToGateway1|56=EchoServer|52=20250627-07:09:27.032|148=Hello there|33=3|58=line1|58=line2|58=line3|10=113|
20250627 14:09:27.035 - 8=FIX.4.2|9=120|35=B|34=146|49=ConnectToGateway1|56=EchoServer|52=20250627-07:09:27.032|148=Hello there|33=3|58=line1|58=line2|58=line3|10=114|
20250627 14:09:27.035 - 8=FIX.4.2|9=120|35=B|34=147|49=ConnectToGateway1|56=EchoServer|52=20250627-07:09:27.032|148=Hello there|33=3|58=line1|58=line2|58=line3|10=115|
20250627 14:09:27.035 - 8=FIX.4.2|9=120|35=B|34=148|49=ConnectToGateway1|56=EchoServer|52=20250627-07:09:27.032|148=Hello there|33=3|58=line1|58=line2|58=line3|10=116|
20250627 14:09:27.035 - 8=FIX.4.2|9=120|35=B|34=149|49=ConnectToGateway1|56=EchoServer|52=20250627-07:09:27.032|148=Hello there|33=3|58=line1|58=line2|58=line3|10=117|
20250627 14:09:27.036 - 8=FIX.4.2|9=83|35=2|34=150|49=ConnectToGateway1|56=EchoServer|52=20250627-07:09:27.032|7=101|16=0|10=164|
20250627 14:09:27.036 - 8=FIX.4.2|9=120|35=B|34=151|49=ConnectToGateway1|56=EchoServer|52=20250627-07:09:27.032|148=Hello there|33=3|58=line1|58=line2|58=line3|10=110|
20250627 14:09:27.036 - 8=FIX.4.2|9=120|35=B|34=152|49=ConnectToGateway1|56=EchoServer|52=20250627-07:09:27.032|148=Hello there|33=3|58=line1|58=line2|58=line3|10=111|
20250627 14:09:27.036 - 8=FIX.4.2|9=120|35=B|34=153|49=ConnectToGateway1|56=EchoServer|52=20250627-07:09:27.032|148=Hello there|33=3|58=line1|58=line2|58=line3|10=112|
20250627 14:09:27.036 - 8=FIX.4.2|9=120|35=B|34=154|49=ConnectToGateway1|56=EchoServer|52=20250627-07:09:27.032|148=Hello there|33=3|58=line1|58=line2|58=line3|10=113|
20250627 14:09:27.036 - 8=FIX.4.2|9=120|35=B|34=155|49=ConnectToGateway1|56=EchoServer|52=20250627-07:09:27.032|148=Hello there|33=3|58=line1|58=line2|58=line3|10=114|
20250627 14:09:27.037 - 8=FIX.4.2|9=120|35=B|34=156|49=ConnectToGateway1|56=EchoServer|52=20250627-07:09:27.032|148=Hello there|33=3|58=line1|58=line2|58=line3|10=115|
20250627 14:09:27.037 - 8=FIX.4.2|9=120|35=B|34=157|49=ConnectToGateway1|56=EchoServer|52=20250627-07:09:27.032|148=Hello there|33=3|58=line1|58=line2|58=line3|10=116|
20250627 14:09:27.037 - 8=FIX.4.2|9=120|35=B|34=158|49=ConnectToGateway1|56=EchoServer|52=20250627-07:09:27.032|148=Hello there|33=3|58=line1|58=line2|58=line3|10=117|
20250627 14:09:27.037 - 8=FIX.4.2|9=120|35=B|34=159|49=ConnectToGateway1|56=EchoServer|52=20250627-07:09:27.032|148=Hello there|33=3|58=line1|58=line2|58=line3|10=118|
20250627 14:09:27.037 - 8=FIX.4.2|9=120|35=B|34=160|49=ConnectToGateway1|56=EchoServer|52=20250627-07:09:27.032|148=Hello there|33=3|58=line1|58=line2|58=line3|10=110|
20250627 14:09:27.037 - 8=FIX.4.2|9=120|35=B|34=161|49=ConnectToGateway1|56=EchoServer|52=20250627-07:09:27.032|148=Hello there|33=3|58=line1|58=line2|58=line3|10=111|
20250627 14:09:27.037 - 8=FIX.4.2|9=120|35=B|34=162|49=ConnectToGateway1|56=EchoServer|52=20250627-07:09:27.032|148=Hello there|33=3|58=line1|58=line2|58=line3|10=112|
20250627 14:09:27.037 - 8=FIX.4.2|9=120|35=B|34=163|49=ConnectToGateway1|56=EchoServer|52=20250627-07:09:27.032|148=Hello there|33=3|58=line1|58=line2|58=line3|10=113|
20250627 14:09:27.037 - 8=FIX.4.2|9=120|35=B|34=164|49=ConnectToGateway1|56=EchoServer|52=20250627-07:09:27.032|148=Hello there|33=3|58=line1|58=line2|58=line3|10=114|
20250627 14:09:27.037 - 8=FIX.4.2|9=120|35=B|34=165|49=ConnectToGateway1|56=EchoServer|52=20250627-07:09:27.032|148=Hello there|33=3|58=line1|58=line2|58=line3|10=115|
20250627 14:09:27.037 - 8=FIX.4.2|9=120|35=B|34=166|49=ConnectToGateway1|56=EchoServer|52=20250627-07:09:27.032|148=Hello there|33=3|58=line1|58=line2|58=line3|10=116|
20250627 14:09:27.037 - 8=FIX.4.2|9=120|35=B|34=167|49=ConnectToGateway1|56=EchoServer|52=20250627-07:09:27.032|148=Hello there|33=3|58=line1|58=line2|58=line3|10=117|
20250627 14:09:27.037 - 8=FIX.4.2|9=120|35=B|34=168|49=ConnectToGateway1|56=EchoServer|52=20250627-07:09:27.032|148=Hello there|33=3|58=line1|58=line2|58=line3|10=118|
20250627 14:09:27.037 - 8=FIX.4.2|9=120|35=B|34=169|49=ConnectToGateway1|56=EchoServer|52=20250627-07:09:27.032|148=Hello there|33=3|58=line1|58=line2|58=line3|10=119|
20250627 14:09:27.037 - 8=FIX.4.2|9=120|35=B|34=170|49=ConnectToGateway1|56=EchoServer|52=20250627-07:09:27.032|148=Hello there|33=3|58=line1|58=line2|58=line3|10=111|
20250627 14:09:27.037 - 8=FIX.4.2|9=120|35=B|34=171|49=ConnectToGateway1|56=EchoServer|52=20250627-07:09:27.032|148=Hello there|33=3|58=line1|58=line2|58=line3|10=112|
20250627 14:09:27.037 - 8=FIX.4.2|9=120|35=B|34=172|49=ConnectToGateway1|56=EchoServer|52=20250627-07:09:27.032|148=Hello there|33=3|58=line1|58=line2|58=line3|10=113|
20250627 14:09:27.038 - 8=FIX.4.2|9=116|35=4|34=137|49=ConnectToGateway1|56=EchoServer|52=20250627-07:09:27.034|43=Y|122=20250627-07:09:27.026|123=Y|36=140|10=112|
20250627 14:09:27.038 - 8=FIX.4.2|9=151|35=B|34=140|49=ConnectToGateway1|56=EchoServer|43=Y|122=20250627-07:09:27.032|52=20250627-07:09:27.035|148=Hello there|33=3|58=line1|58=line2|58=line3|10=121|
20250627 14:09:27.038 - 8=FIX.4.2|9=151|35=B|34=141|49=ConnectToGateway1|56=EchoServer|43=Y|122=20250627-07:09:27.032|52=20250627-07:09:27.035|148=Hello there|33=3|58=line1|58=line2|58=line3|10=122|
20250627 14:09:27.038 - 8=FIX.4.2|9=151|35=B|34=142|49=ConnectToGateway1|56=EchoServer|43=Y|122=20250627-07:09:27.032|52=20250627-07:09:27.035|148=Hello there|33=3|58=line1|58=line2|58=line3|10=123|
20250627 14:09:27.038 - 8=FIX.4.2|9=151|35=B|34=143|49=ConnectToGateway1|56=EchoServer|43=Y|122=20250627-07:09:27.032|52=20250627-07:09:27.035|148=Hello there|33=3|58=line1|58=line2|58=line3|10=124|
20250627 14:09:27.038 - 8=FIX.4.2|9=151|35=B|34=144|49=ConnectToGateway1|56=EchoServer|43=Y|122=20250627-07:09:27.032|52=20250627-07:09:27.035|148=Hello there|33=3|58=line1|58=line2|58=line3|10=125|
20250627 14:09:27.038 - 8=FIX.4.2|9=151|35=B|34=145|49=ConnectToGateway1|56=EchoServer|43=Y|122=20250627-07:09:27.032|52=20250627-07:09:27.035|148=Hello there|33=3|58=line1|58=line2|58=line3|10=126|
20250627 14:09:27.038 - 8=FIX.4.2|9=151|35=B|34=146|49=ConnectToGateway1|56=EchoServer|43=Y|122=20250627-07:09:27.032|52=20250627-07:09:27.035|148=Hello there|33=3|58=line1|58=line2|58=line3|10=127|
20250627 14:09:27.038 - 8=FIX.4.2|9=151|35=B|34=147|49=ConnectToGateway1|56=EchoServer|43=Y|122=20250627-07:09:27.032|52=20250627-07:09:27.035|148=Hello there|33=3|58=line1|58=line2|58=line3|10=128|
20250627 14:09:27.038 - 8=FIX.4.2|9=151|35=B|34=148|49=ConnectToGateway1|56=EchoServer|43=Y|122=20250627-07:09:27.032|52=20250627-07:09:27.035|148=Hello there|33=3|58=line1|58=line2|58=line3|10=129|
20250627 14:09:27.038 - 8=FIX.4.2|9=151|35=B|34=149|49=ConnectToGateway1|56=EchoServer|43=Y|122=20250627-07:09:27.032|52=20250627-07:09:27.035|148=Hello there|33=3|58=line1|58=line2|58=line3|10=130|
20250627 14:09:27.038 - 8=FIX.4.2|9=116|35=4|34=150|49=ConnectToGateway1|56=EchoServer|52=20250627-07:09:27.035|43=Y|122=20250627-07:09:27.032|123=Y|36=151|10=107|
20250627 14:09:27.039 - 8=FIX.4.2|9=151|35=B|34=151|49=ConnectToGateway1|56=EchoServer|43=Y|122=20250627-07:09:27.032|52=20250627-07:09:27.035|148=Hello there|33=3|58=line1|58=line2|58=line3|10=123|
20250627 14:09:27.039 - 8=FIX.4.2|9=151|35=B|34=152|49=ConnectToGateway1|56=EchoServer|43=Y|122=20250627-07:09:27.032|52=20250627-07:09:27.035|148=Hello there|33=3|58=line1|58=line2|58=line3|10=124|
20250627 14:09:27.039 - 8=FIX.4.2|9=151|35=B|34=153|49=ConnectToGateway1|56=EchoServer|43=Y|122=20250627-07:09:27.032|52=20250627-07:09:27.035|148=Hello there|33=3|58=line1|58=line2|58=line3|10=125|
20250627 14:09:27.039 - 8=FIX.4.2|9=151|35=B|34=154|49=ConnectToGateway1|56=EchoServer|43=Y|122=20250627-07:09:27.032|52=20250627-07:09:27.035|148=Hello there|33=3|58=line1|58=line2|58=line3|10=126|
20250627 14:09:27.039 - 8=FIX.4.2|9=151|35=B|34=155|49=ConnectToGateway1|56=EchoServer|43=Y|122=20250627-07:09:27.032|52=20250627-07:09:27.035|148=Hello there|33=3|58=line1|58=line2|58=line3|10=127|
20250627 14:09:27.039 - 8=FIX.4.2|9=151|35=B|34=156|49=ConnectToGateway1|56=EchoServer|43=Y|122=20250627-07:09:27.032|52=20250627-07:09:27.035|148=Hello there|33=3|58=line1|58=line2|58=line3|10=128|
20250627 14:09:27.039 - 8=FIX.4.2|9=151|35=B|34=157|49=ConnectToGateway1|56=EchoServer|43=Y|122=20250627-07:09:27.032|52=20250627-07:09:27.035|148=Hello there|33=3|58=line1|58=line2|58=line3|10=129|
20250627 14:09:27.039 - 8=FIX.4.2|9=151|35=B|34=158|49=ConnectToGateway1|56=EchoServer|43=Y|122=20250627-07:09:27.032|52=20250627-07:09:27.035|148=Hello there|33=3|58=line1|58=line2|58=line3|10=130|
20250627 14:09:27.039 - 8=FIX.4.2|9=151|35=B|34=159|49=ConnectToGateway1|56=EchoServer|43=Y|122=20250627-07:09:27.032|52=20250627-07:09:27.035|148=Hello there|33=3|58=line1|58=line2|58=line3|10=131|
20250627 14:09:27.039 - 8=FIX.4.2|9=151|35=B|34=160|49=ConnectToGateway1|56=EchoServer|43=Y|122=20250627-07:09:27.032|52=20250627-07:09:27.035|148=Hello there|33=3|58=line1|58=line2|58=line3|10=123|
20250627 14:09:27.039 - 8=FIX.4.2|9=151|35=B|34=161|49=ConnectToGateway1|56=EchoServer|43=Y|122=20250627-07:09:27.032|52=20250627-07:09:27.035|148=Hello there|33=3|58=line1|58=line2|58=line3|10=124|
20250627 14:09:27.039 - 8=FIX.4.2|9=151|35=B|34=162|49=ConnectToGateway1|56=EchoServer|43=Y|122=20250627-07:09:27.032|52=20250627-07:09:27.035|148=Hello there|33=3|58=line1|58=line2|58=line3|10=125|
20250627 14:09:27.039 - 8=FIX.4.2|9=151|35=B|34=163|49=ConnectToGateway1|56=EchoServer|43=Y|122=20250627-07:09:27.032|52=20250627-07:09:27.035|148=Hello there|33=3|58=line1|58=line2|58=line3|10=126|
20250627 14:09:27.039 - 8=FIX.4.2|9=151|35=B|34=164|49=ConnectToGateway1|56=EchoServer|43=Y|122=20250627-07:09:27.032|52=20250627-07:09:27.035|148=Hello there|33=3|58=line1|58=line2|58=line3|10=127|
20250627 14:09:27.039 - 8=FIX.4.2|9=151|35=B|34=165|49=ConnectToGateway1|56=EchoServer|43=Y|122=20250627-07:09:27.032|52=20250627-07:09:27.035|148=Hello there|33=3|58=line1|58=line2|58=line3|10=128|
20250627 14:09:27.039 - 8=FIX.4.2|9=151|35=B|34=166|49=ConnectToGateway1|56=EchoServer|43=Y|122=20250627-07:09:27.032|52=20250627-07:09:27.035|148=Hello there|33=3|58=line1|58=line2|58=line3|10=129|
20250627 14:09:27.039 - 8=FIX.4.2|9=151|35=B|34=167|49=ConnectToGateway1|56=EchoServer|43=Y|122=20250627-07:09:27.032|52=20250627-07:09:27.035|148=Hello there|33=3|58=line1|58=line2|58=line3|10=130|
20250627 14:09:27.039 - 8=FIX.4.2|9=151|35=B|34=168|49=ConnectToGateway1|56=EchoServer|43=Y|122=20250627-07:09:27.032|52=20250627-07:09:27.035|148=Hello there|33=3|58=line1|58=line2|58=line3|10=131|
20250627 14:09:27.039 - 8=FIX.4.2|9=151|35=B|34=169|49=ConnectToGateway1|56=EchoServer|43=Y|122=20250627-07:09:27.032|52=20250627-07:09:27.035|148=Hello there|33=3|58=line1|58=line2|58=line3|10=132|
20250627 14:09:27.039 - 8=FIX.4.2|9=151|35=B|34=170|49=ConnectToGateway1|56=EchoServer|43=Y|122=20250627-07:09:27.032|52=20250627-07:09:27.035|148=Hello there|33=3|58=line1|58=line2|58=line3|10=124|
20250627 14:09:27.039 - 8=FIX.4.2|9=151|35=B|34=171|49=ConnectToGateway1|56=EchoServer|43=Y|122=20250627-07:09:27.032|52=20250627-07:09:27.035|148=Hello there|33=3|58=line1|58=line2|58=line3|10=125|
20250627 14:09:27.039 - 8=FIX.4.2|9=151|35=B|34=172|49=ConnectToGateway1|56=EchoServer|43=Y|122=20250627-07:09:27.032|52=20250627-07:09:27.036|148=Hello there|33=3|58=line1|58=line2|58=line3|10=127|
20250627 14:09:32.568 - 8=FIX.4.2|9=92|35=5|34=173|49=ConnectToGateway1|56=EchoServer|52=20250627-07:09:32.567|58=Shutting down...|10=060|
20250627 14:09:41.407 - 8=FIX.4.2|9=84|35=A|34=174|49=ConnectToGateway1|56=EchoServer|52=20250627-07:09:41.321|98=0|108=30|10=244|
20250627 14:09:41.477 - 8=FIX.4.2|9=120|35=B|34=175|49=ConnectToGateway1|56=EchoServer|52=20250627-07:09:41.474|148=Hello there|33=3|58=line1|58=line2|58=line3|10=122|
20250627 14:10:07.963 - 8=FIX.4.2|9=92|35=5|34=176|49=ConnectToGateway1|56=EchoServer|52=20250627-07:10:07.961|58=Shutting down...|10=055|
20250627 14:10:10.162 - 8=FIX.4.2|9=84|35=A|34=177|49=ConnectToGateway1|56=EchoServer|52=20250627-07:10:10.147|98=0|108=30|10=241|
20250627 14:10:10.219 - 8=FIX.4.2|9=120|35=B|34=178|49=ConnectToGateway1|56=EchoServer|52=20250627-07:10:10.219|148=Hello there|33=3|58=line1|58=line2|58=line3|10=110|
20250627 14:10:19.679 - 8=FIX.4.2|9=92|35=5|34=179|49=ConnectToGateway1|56=EchoServer|52=20250627-07:10:19.679|58=Shutting down...|10=067|
20250627 14:10:27.696 - 8=FIX.4.2|9=84|35=A|34=180|49=ConnectToGateway1|56=EchoServer|52=20250627-07:10:27.604|98=0|108=30|10=241|
20250627 14:10:27.714 - 8=FIX.4.2|9=83|35=2|34=181|49=ConnectToGateway1|56=EchoServer|52=20250627-07:10:27.710|7=150|16=0|10=167|
20250627 14:10:27.717 - 8=FIX.4.2|9=120|35=B|34=182|49=ConnectToGateway1|56=EchoServer|52=20250627-07:10:27.716|148=Hello there|33=3|58=line1|58=line2|58=line3|10=115|
20250627 14:10:57.717 - 8=FIX.4.2|9=72|35=0|34=183|49=ConnectToGateway1|56=EchoServer|52=20250627-07:10:57.716|10=206|
20250627 14:11:27.717 - 8=FIX.4.2|9=72|35=0|34=184|49=ConnectToGateway1|56=EchoServer|52=20250627-07:11:27.716|10=205|
20250627 14:12:10.630 - 8=FIX.4.4|9=84|35=A|34=186|49=ConnectToGateway1|56=EchoServer|52=20250627-07:12:10.535|98=0|108=30|10=246|
20250627 14:12:10.650 - 8=FIX.4.4|9=116|35=4|34=185|49=ConnectToGateway1|56=EchoServer|52=20250627-07:12:10.648|43=Y|122=20250627-07:12:10.535|123=Y|36=187|10=116|
20250627 14:12:10.651 - 8=FIX.4.4|9=120|35=B|34=187|49=ConnectToGateway1|56=EchoServer|52=20250627-07:12:10.649|148=Hello there|33=3|58=line1|58=line2|58=line3|10=121|
20250627 14:12:40.649 - 8=FIX.4.4|9=72|35=0|34=188|49=ConnectToGateway1|56=EchoServer|52=20250627-07:12:40.649|10=212|
20250627 14:13:10.650 - 8=FIX.4.4|9=72|35=0|34=189|49=ConnectToGateway1|56=EchoServer|52=20250627-07:13:10.649|10=211|
20250627 14:14:12.994 - 8=FIX.4.4|9=84|35=A|34=191|49=ConnectToGateway1|56=EchoServer|52=20250627-07:14:12.903|98=0|108=30|10=245|
20250627 14:14:13.014 - 8=FIX.4.4|9=116|35=4|34=190|49=ConnectToGateway1|56=EchoServer|52=20250627-07:14:13.012|43=Y|122=20250627-07:14:12.903|123=Y|36=192|10=101|
20250627 14:14:13.016 - 8=FIX.4.4|9=120|35=B|34=192|49=ConnectToGateway1|56=EchoServer|52=20250627-07:14:13.013|148=Hello there|33=3|58=line1|58=line2|58=line3|10=107|
20250627 14:14:30.001 - 8=FIX.4.4|9=92|35=5|34=193|49=ConnectToGateway1|56=EchoServer|52=20250627-07:14:30.000|58=Shutting down...|10=040|
20250627 14:15:31.599 - 8=FIX.4.4|9=84|35=A|34=194|49=ConnectToGateway1|56=EchoServer|52=20250627-07:15:31.501|98=0|108=30|10=244|
20250627 14:15:31.616 - 8=FIX.4.4|9=83|35=2|34=195|49=ConnectToGateway1|56=EchoServer|52=20250627-07:15:31.612|7=165|16=0|10=181|
20250627 14:15:31.619 - 8=FIX.4.4|9=120|35=B|34=196|49=ConnectToGateway1|56=EchoServer|52=20250627-07:15:31.617|148=Hello there|33=3|58=line1|58=line2|58=line3|10=122|
20250627 14:16:01.618 - 8=FIX.4.4|9=72|35=0|34=197|49=ConnectToGateway1|56=EchoServer|52=20250627-07:16:01.618|10=209|
20250627 14:16:31.618 - 8=FIX.4.4|9=72|35=0|34=198|49=ConnectToGateway1|56=EchoServer|52=20250627-07:16:31.618|10=213|
20250627 14:17:01.619 - 8=FIX.4.4|9=72|35=0|34=199|49=ConnectToGateway1|56=EchoServer|52=20250627-07:17:01.618|10=212|
20250627 14:17:31.619 - 8=FIX.4.4|9=72|35=0|34=200|49=ConnectToGateway1|56=EchoServer|52=20250627-07:17:31.619|10=199|
20250627 14:18:01.620 - 8=FIX.4.4|9=72|35=0|34=201|49=ConnectToGateway1|56=EchoServer|52=20250627-07:18:01.619|10=198|
20250627 14:18:31.620 - 8=FIX.4.4|9=72|35=0|34=202|49=ConnectToGateway1|56=EchoServer|52=20250627-07:18:31.620|10=194|
20250627 14:19:01.621 - 8=FIX.4.4|9=72|35=0|34=203|49=ConnectToGateway1|56=EchoServer|52=20250627-07:19:01.620|10=193|
20250627 14:19:31.621 - 8=FIX.4.4|9=72|35=0|34=204|49=ConnectToGateway1|56=EchoServer|52=20250627-07:19:31.621|10=198|
20250627 14:20:01.621 - 8=FIX.4.4|9=72|35=0|34=205|49=ConnectToGateway1|56=EchoServer|52=20250627-07:20:01.621|10=188|
20250627 14:20:31.622 - 8=FIX.4.4|9=72|35=0|34=206|49=ConnectToGateway1|56=EchoServer|52=20250627-07:20:31.622|10=193|
20250627 14:21:01.622 - 8=FIX.4.4|9=72|35=0|34=207|49=ConnectToGateway1|56=EchoServer|52=20250627-07:21:01.622|10=192|
20250627 14:21:31.623 - 8=FIX.4.4|9=72|35=0|34=208|49=ConnectToGateway1|56=EchoServer|52=20250627-07:21:31.622|10=196|
20250627 14:22:01.623 - 8=FIX.4.4|9=72|35=0|34=209|49=ConnectToGateway1|56=EchoServer|52=20250627-07:22:01.623|10=196|
20250627 14:22:26.753 - 8=FIX.4.4|9=92|35=5|34=210|49=ConnectToGateway1|56=EchoServer|52=20250627-07:22:26.752|58=Shutting down...|10=048|
