20250627 13:14:44.339 - 8=FIX.4.4|9=83|35=A|34=57|49=ConnectToGateway2|56=EchoServer|52=20250627-06:14:44.241|98=0|108=30|10=197|
20250627 13:14:44.357 - 8=FIX.4.4|9=121|35=5|34=58|49=ConnectToGateway2|56=EchoServer|52=20250627-06:14:44.356|58=Incoming seq number 1 is less then expected 46|10=177|
20250627 13:14:51.812 - 8=FIX.4.4|9=83|35=A|34=59|49=ConnectToGateway2|56=EchoServer|52=20250627-06:14:51.798|98=0|108=30|10=214|
20250627 13:14:51.819 - 8=FIX.4.4|9=121|35=5|34=60|49=ConnectToGateway2|56=EchoServer|52=20250627-06:14:51.818|58=Incoming seq number 4 is less then expected 46|10=174|
20250627 13:30:37.156 - 8=FIX.4.4|9=84|35=A|34=110|49=ConnectToGateway2|56=EchoServer|52=20250627-06:30:37.148|98=0|108=30|10=242|
20250627 13:30:37.162 - 8=FIX.4.4|9=122|35=5|34=111|49=ConnectToGateway2|56=EchoServer|52=20250627-06:30:37.162|58=Incoming seq number 7 is less then expected 95|10=221|
20250627 13:31:13.868 - 8=FIX.4.4|9=84|35=A|34=112|49=ConnectToGateway2|56=EchoServer|52=20250627-06:31:13.860|98=0|108=30|10=240|
20250627 13:31:13.874 - 8=FIX.4.4|9=123|35=5|34=113|49=ConnectToGateway2|56=EchoServer|52=20250627-06:31:13.874|58=Incoming seq number 10 is less then expected 95|10=015|
20250627 13:31:48.321 - 8=FIX.4.4|9=84|35=A|34=114|49=ConnectToGateway2|56=EchoServer|52=20250627-06:31:48.223|98=0|108=30|10=243|
20250627 13:31:48.331 - 8=FIX.4.4|9=123|35=5|34=115|49=ConnectToGateway2|56=EchoServer|52=20250627-06:31:48.331|58=Incoming seq number 13 is less then expected 95|10=016|
20250627 13:31:58.009 - 8=FIX.4.4|9=84|35=A|34=116|49=ConnectToGateway2|56=EchoServer|52=20250627-06:31:57.994|98=0|108=30|10=004|
20250627 13:31:58.014 - 8=FIX.4.4|9=123|35=5|34=117|49=ConnectToGateway2|56=EchoServer|52=20250627-06:31:58.014|58=Incoming seq number 16 is less then expected 95|10=020|
20250627 13:32:58.871 - 8=FIX.4.4|9=84|35=A|34=118|49=ConnectToGateway2|56=EchoServer|52=20250627-06:32:58.780|98=0|108=30|10=001|
20250627 13:32:58.880 - 8=FIX.4.4|9=123|35=5|34=119|49=ConnectToGateway2|56=EchoServer|52=20250627-06:32:58.879|58=Incoming seq number 19 is less then expected 95|10=045|
20250627 13:35:16.962 - 8=FIX.4.2|9=84|35=A|34=121|49=ConnectToGateway2|56=EchoServer|52=20250627-06:35:16.867|98=0|108=30|10=252|
20250627 13:35:16.972 - 8=FIX.4.2|9=123|35=5|34=122|49=ConnectToGateway2|56=EchoServer|52=20250627-06:35:16.971|58=Incoming seq number 22 is less then expected 95|10=021|
20250627 13:35:32.129 - 8=FIX.4.2|9=84|35=A|34=123|49=ConnectToGateway2|56=EchoServer|52=20250627-06:35:32.027|98=0|108=30|10=240|
20250627 13:35:32.140 - 8=FIX.4.2|9=123|35=5|34=124|49=ConnectToGateway2|56=EchoServer|52=20250627-06:35:32.139|58=Incoming seq number 25 is less then expected 95|10=020|
20250627 13:50:28.896 - 8=FIX.4.2|9=84|35=A|34=127|49=ConnectToGateway2|56=EchoServer|52=20250627-06:50:28.795|98=0|108=30|10=002|
20250627 13:50:28.906 - 8=FIX.4.2|9=123|35=5|34=128|49=ConnectToGateway2|56=EchoServer|52=20250627-06:50:28.905|58=Incoming seq number 28 is less then expected 95|10=030|
20250627 14:10:27.696 - 8=FIX.4.2|9=84|35=A|34=133|49=ConnectToGateway2|56=EchoServer|52=20250627-07:10:27.607|98=0|108=30|10=243|
20250627 14:10:27.711 - 8=FIX.4.2|9=123|35=5|34=134|49=ConnectToGateway2|56=EchoServer|52=20250627-07:10:27.710|58=Incoming seq number 31 is less then expected 95|10=011|
20250627 14:12:10.630 - 8=FIX.4.4|9=84|35=A|34=135|49=ConnectToGateway2|56=EchoServer|52=20250627-07:12:10.537|98=0|108=30|10=243|
20250627 14:12:10.645 - 8=FIX.4.4|9=123|35=5|34=136|49=ConnectToGateway2|56=EchoServer|52=20250627-07:12:10.644|58=Incoming seq number 34 is less then expected 95|10=018|
20250627 14:14:12.994 - 8=FIX.4.4|9=84|35=A|34=137|49=ConnectToGateway2|56=EchoServer|52=20250627-07:14:12.905|98=0|108=30|10=248|
20250627 14:14:13.010 - 8=FIX.4.4|9=123|35=5|34=138|49=ConnectToGateway2|56=EchoServer|52=20250627-07:14:13.009|58=Incoming seq number 37 is less then expected 95|10=023|
20250627 14:15:31.599 - 8=FIX.4.4|9=84|35=A|34=139|49=ConnectToGateway2|56=EchoServer|52=20250627-07:15:31.503|98=0|108=30|10=246|
20250627 14:15:31.613 - 8=FIX.4.4|9=123|35=5|34=140|49=ConnectToGateway2|56=EchoServer|52=20250627-07:15:31.612|58=Incoming seq number 40 is less then expected 95|10=011|
