20250627 11:56:57.158 - 8=FIX.4.4|9=121|35=5|34=90|49=EchoServer|56=ConnectToGateway|52=20250627-04:56:57.149|58=Incoming seq number 3 is less then expected 105|10=177|
20250627 11:57:12.636 - 8=FIX.4.4|9=121|35=5|34=91|49=EchoServer|56=ConnectToGateway|52=20250627-04:57:12.631|58=Incoming seq number 6 is less then expected 105|10=169|
