20250627 11:56:07.565 - 8=FIX.4.2|9=81|35=A|34=1|49=ConnectToGateway|56=EchoServer|52=20250627-04:56:07.563|98=0|108=30|10=094|
20250627 11:56:17.683 - 8=FIX.4.4|9=81|35=A|34=2|49=ConnectToGateway|56=EchoServer|52=20250627-04:56:17.681|98=0|108=30|10=099|
20250627 11:56:57.063 - 8=FIX.4.4|9=81|35=A|34=3|49=ConnectToGateway|56=EchoServer|52=20250627-04:56:57.061|98=0|108=30|10=096|
20250627 11:56:57.159 - 8=FIX.4.4|9=78|35=2|34=4|49=ConnectToGateway|56=EchoServer|52=20250627-04:56:57.159|7=1|16=0|10=194|
20250627 11:56:57.161 - 8=FIX.4.4|9=85|35=5|34=5|49=ConnectToGateway|56=EchoServer|52=20250627-04:56:57.161|58=User request|10=181|
20250627 11:57:12.618 - 8=FIX.4.4|9=81|35=A|34=6|49=ConnectToGateway|56=EchoServer|52=20250627-04:57:12.616|98=0|108=30|10=097|
20250627 11:57:12.637 - 8=FIX.4.4|9=78|35=2|34=7|49=ConnectToGateway|56=EchoServer|52=20250627-04:57:12.637|7=1|16=0|10=190|
20250627 11:57:12.717 - 8=FIX.4.4|9=85|35=5|34=8|49=ConnectToGateway|56=EchoServer|52=20250627-04:57:12.717|58=User request|10=183|
