20250627 10:58:39.144 - 8=FIX.4.2|9=71|35=A|34=1|49=targetId|56=senderId|52=20250627-03:58:39.133|98=0|108=30|10=105|
20250627 10:58:39.145 - 8=FIX.4.2|9=80|35=5|34=2|49=targetId|56=senderId|52=20250627-03:58:39.136|58=Confirming logout|10=185|
20250627 10:59:25.642 - 8=FIX.4.2|9=71|35=A|34=3|49=targetId|56=senderId|52=20250627-03:59:25.635|98=0|108=30|10=110|
20250627 10:59:25.736 - 8=FIX.4.2|9=80|35=5|34=4|49=targetId|56=senderId|52=20250627-03:59:25.735|58=Confirming logout|10=188|
20250627 11:00:24.393 - 8=FIX.4.4|9=71|35=A|34=5|49=targetId|56=senderId|52=20250627-04:00:24.384|98=0|108=30|10=101|
20250627 11:00:24.394 - 8=FIX.4.4|9=80|35=5|34=6|49=targetId|56=senderId|52=20250627-04:00:24.384|58=Confirming logout|10=178|
20250627 11:00:31.353 - 8=FIX.4.4|9=71|35=A|34=7|49=targetId|56=senderId|52=20250627-04:00:31.347|98=0|108=30|10=100|
20250627 11:00:31.446 - 8=FIX.4.4|9=80|35=5|34=8|49=targetId|56=senderId|52=20250627-04:00:31.445|58=Confirming logout|10=176|
20250627 11:03:22.569 - 8=FIX.4.4|9=71|35=A|34=9|49=targetId|56=senderId|52=20250627-04:03:22.562|98=0|108=30|10=104|
20250627 11:03:22.662 - 8=FIX.4.4|9=81|35=5|34=10|49=targetId|56=senderId|52=20250627-04:03:22.661|58=Confirming logout|10=221|
20250627 11:04:40.414 - 8=FIX.4.4|9=72|35=A|34=11|49=targetId|56=senderId|52=20250627-04:04:40.407|98=0|108=30|10=145|
20250627 11:04:42.629 - 8=FIX.4.4|9=81|35=5|34=12|49=targetId|56=senderId|52=20250627-04:04:42.628|58=Confirming logout|10=229|
20250627 11:04:46.288 - 8=FIX.4.4|9=72|35=A|34=13|49=targetId|56=senderId|52=20250627-04:04:46.282|98=0|108=30|10=154|
20250627 11:04:47.673 - 8=FIX.4.4|9=81|35=5|34=14|49=targetId|56=senderId|52=20250627-04:04:47.672|58=Confirming logout|10=235|
20250627 11:06:22.794 - 8=FIX.4.4|9=72|35=A|34=15|49=targetId|56=senderId|52=20250627-04:06:22.783|98=0|108=30|10=158|
20250627 11:06:22.853 - 8=FIX.4.4|9=90|35=8|34=16|49=targetId|56=senderId|52=20250627-04:06:22.852|35=8|150=0|39=0|37=12345|17=1|10=180|
20250627 11:06:28.812 - 8=FIX.4.4|9=81|35=5|34=17|49=targetId|56=senderId|52=20250627-04:06:28.811|58=Confirming logout|10=234|
