20250627 11:57:45.105 - 8=FIX.4.4|9=67|35=A|34=1|49=Target|56=Sender|52=20250627-04:57:45.098|98=0|108=30|10=221|
20250627 11:57:45.158 - 8=FIX.4.4|9=85|35=8|34=2|49=Target|56=Sender|52=20250627-04:57:45.158|35=8|150=0|39=0|37=12345|17=1|10=243|
20250627 11:57:45.189 - 8=FIX.4.4|9=76|35=5|34=3|49=Target|56=Sender|52=20250627-04:57:45.188|58=Confirming logout|10=043|
20250627 11:58:08.046 - 8=FIX.4.4|9=67|35=A|34=4|49=Target|56=Sender|52=20250627-04:58:08.039|98=0|108=30|10=219|
20250627 11:58:08.098 - 8=FIX.4.4|9=85|35=8|34=5|49=Target|56=Sender|52=20250627-04:58:08.097|35=8|150=0|39=0|37=12345|17=1|10=248|
20250627 11:58:10.256 - 8=FIX.4.4|9=76|35=5|34=6|49=Target|56=Sender|52=20250627-04:58:10.255|58=Confirming logout|10=034|
20250627 12:00:51.727 - 8=FIX.4.4|9=67|35=A|34=7|49=Target|56=Sender|52=20250627-05:00:51.717|98=0|108=30|10=211|
20250627 12:00:51.731 - 8=FIX.4.4|9=64|35=2|34=8|49=Target|56=Sender|52=20250627-05:00:51.719|7=7|16=0|10=044|
20250627 12:00:51.734 - 8=FIX.4.4|9=85|35=8|34=9|49=Target|56=Sender|52=20250627-05:00:51.734|35=8|150=0|39=0|37=12345|17=1|10=236|
20250627 12:00:51.774 - 8=FIX.4.4|9=86|35=8|34=10|49=Target|56=Sender|52=20250627-05:00:51.734|35=8|150=0|39=0|37=12345|17=1|10=021|
20250627 12:00:51.774 - 8=FIX.4.4|9=86|35=8|34=11|49=Target|56=Sender|52=20250627-05:00:51.734|35=8|150=0|39=0|37=12345|17=1|10=022|
20250627 12:00:57.966 - 8=FIX.4.4|9=77|35=5|34=12|49=Target|56=Sender|52=20250627-05:00:57.965|58=Confirming logout|10=087|
20250627 12:01:01.089 - 8=FIX.4.4|9=68|35=A|34=13|49=Target|56=Sender|52=20250627-05:01:01.083|98=0|108=30|10=249|
20250627 12:01:01.140 - 8=FIX.4.4|9=86|35=8|34=14|49=Target|56=Sender|52=20250627-05:01:01.140|35=8|150=0|39=0|37=12345|17=1|10=012|
20250627 12:01:03.073 - 8=FIX.4.4|9=77|35=5|34=15|49=Target|56=Sender|52=20250627-05:01:03.073|58=Confirming logout|10=072|
