20250627 10:58:38.952 - 8=FIX.4.2|9=71|35=A|34=1|49=senderId|56=targetId|52=20250627-03:58:38.950|98=0|108=30|10=111|
20250627 10:58:39.050 - 8=FIX.4.2|9=75|35=5|34=2|49=senderId|56=targetId|52=20250627-03:58:39.050|58=User request|10=186|
20250627 10:59:25.620 - 8=FIX.4.2|9=71|35=A|34=3|49=senderId|56=targetId|52=20250627-03:59:25.618|98=0|108=30|10=111|
20250627 10:59:25.694 - 8=FIX.4.2|9=107|35=B|34=4|49=senderId|56=targetId|52=20250627-03:59:25.693|148=Hello there|33=3|58=line1|58=line2|58=line3|10=248|
20250627 10:59:25.694 - 8=FIX.4.2|9=107|35=B|34=5|49=senderId|56=targetId|52=20250627-03:59:25.694|148=Hello there|33=3|58=line1|58=line2|58=line3|10=250|
20250627 10:59:25.718 - 8=FIX.4.2|9=75|35=5|34=6|49=senderId|56=targetId|52=20250627-03:59:25.718|58=User request|10=197|
20250627 11:00:24.281 - 8=FIX.4.4|9=71|35=A|34=7|49=senderId|56=targetId|52=20250627-04:00:24.279|98=0|108=30|10=106|
20250627 11:00:24.379 - 8=FIX.4.4|9=75|35=5|34=8|49=senderId|56=targetId|52=20250627-04:00:24.379|58=User request|10=190|
20250627 11:00:31.341 - 8=FIX.4.4|9=71|35=A|34=9|49=senderId|56=targetId|52=20250627-04:00:31.339|98=0|108=30|10=103|
20250627 11:00:31.404 - 8=FIX.4.4|9=108|35=B|34=10|49=senderId|56=targetId|52=20250627-04:00:31.404|148=Hello there|33=3|58=line1|58=line2|58=line3|10=014|
20250627 11:00:31.405 - 8=FIX.4.4|9=108|35=B|34=11|49=senderId|56=targetId|52=20250627-04:00:31.405|148=Hello there|33=3|58=line1|58=line2|58=line3|10=016|
20250627 11:00:31.440 - 8=FIX.4.4|9=76|35=5|34=12|49=senderId|56=targetId|52=20250627-04:00:31.440|58=User request|10=221|
20250627 11:03:22.557 - 8=FIX.4.4|9=72|35=A|34=13|49=senderId|56=targetId|52=20250627-04:03:22.555|98=0|108=30|10=150|
20250627 11:03:22.620 - 8=FIX.4.4|9=108|35=B|34=14|49=senderId|56=targetId|52=20250627-04:03:22.620|148=Hello there|33=3|58=line1|58=line2|58=line3|10=021|
20250627 11:03:22.655 - 8=FIX.4.4|9=76|35=5|34=15|49=senderId|56=targetId|52=20250627-04:03:22.655|58=User request|10=235|
20250627 11:04:40.402 - 8=FIX.4.4|9=72|35=A|34=16|49=senderId|56=targetId|52=20250627-04:04:40.401|98=0|108=30|10=144|
20250627 11:04:40.465 - 8=FIX.4.4|9=108|35=B|34=17|49=senderId|56=targetId|52=20250627-04:04:40.465|148=Hello there|33=3|58=line1|58=line2|58=line3|10=032|
20250627 11:04:42.628 - 8=FIX.4.4|9=76|35=5|34=18|49=senderId|56=targetId|52=20250627-04:04:42.628|58=User request|10=241|
20250627 11:04:46.277 - 8=FIX.4.4|9=72|35=A|34=19|49=senderId|56=targetId|52=20250627-04:04:46.276|98=0|108=30|10=163|
20250627 11:04:46.339 - 8=FIX.4.4|9=108|35=B|34=20|49=senderId|56=targetId|52=20250627-04:04:46.339|148=Hello there|33=3|58=line1|58=line2|58=line3|10=032|
20250627 11:04:47.672 - 8=FIX.4.4|9=76|35=5|34=21|49=senderId|56=targetId|52=20250627-04:04:47.672|58=User request|10=239|
20250627 11:06:22.573 - 8=FIX.4.4|9=72|35=A|34=22|49=senderId|56=targetId|52=20250627-04:06:22.571|98=0|108=30|10=151|
20250627 11:06:22.844 - 8=FIX.4.4|9=108|35=B|34=23|49=senderId|56=targetId|52=20250627-04:06:22.844|148=Hello there|33=3|58=line1|58=line2|58=line3|10=032|
20250627 11:06:28.810 - 8=FIX.4.4|9=76|35=5|34=24|49=senderId|56=targetId|52=20250627-04:06:28.810|58=User request|10=237|
