20250626 18:12:42.276 - 8=FIX.4.4|9=81|35=A|34=1|49=ConnectToGateway|56=EchoServer|52=20250626-11:12:42.275|98=0|108=30|10=084|
20250626 18:12:47.272 - 8=FIX.4.4|9=118|35=5|34=2|49=ConnectToGateway|56=EchoServer|52=20250626-11:12:47.272|58=Logon response wasn't received during 5000 ms|10=005|
20250626 18:13:25.585 - 8=FIX.4.4|9=81|35=A|34=3|49=ConnectToGateway|56=EchoServer|52=20250626-11:13:25.583|98=0|108=30|10=090|
20250626 18:13:30.136 - 8=FIX.4.4|9=89|35=5|34=4|49=ConnectToGateway|56=EchoServer|52=20250626-11:13:30.136|58=Shutting down...|10=151|
20250626 18:19:54.559 - 8=FIX.4.4|9=81|35=A|34=5|49=ConnectToGateway|56=EchoServer|52=20250626-11:19:54.558|98=0|108=30|10=102|
20250626 18:19:59.555 - 8=FIX.4.4|9=118|35=5|34=6|49=ConnectToGateway|56=EchoServer|52=20250626-11:19:59.555|58=Logon response wasn't received during 5000 ms|10=023|
20250626 18:20:28.472 - 8=FIX.4.4|9=81|35=A|34=7|49=ConnectToGateway|56=EchoServer|52=20250626-11:20:28.471|98=0|108=30|10=091|
20250626 18:20:28.692 - 8=FIX.4.4|9=111|35=4|34=1|49=ConnectToGateway|56=EchoServer|52=20250626-11:20:28.691|43=Y|122=20250626-11:20:28.471|123=Y|36=8|10=106|
20250626 18:20:45.226 - 8=FIX.4.4|9=89|35=5|34=8|49=ConnectToGateway|56=EchoServer|52=20250626-11:20:45.226|58=Shutting down...|10=159|
20250626 18:22:34.720 - 8=FIX.4.4|9=81|35=A|34=9|49=ConnectToGateway|56=EchoServer|52=20250626-11:22:34.718|98=0|108=30|10=096|
20250626 18:22:34.945 - 8=FIX.4.4|9=79|35=2|34=10|49=ConnectToGateway|56=EchoServer|52=20250626-11:22:34.945|7=3|16=0|10=230|
20250626 18:22:48.161 - 8=FIX.4.4|9=90|35=5|34=11|49=ConnectToGateway|56=EchoServer|52=20250626-11:22:48.161|58=Shutting down...|10=196|
20250626 18:22:53.334 - 8=FIX.4.4|9=82|35=A|34=12|49=ConnectToGateway|56=EchoServer|52=20250626-11:22:53.333|98=0|108=30|10=133|
20250626 18:22:53.352 - 8=FIX.4.4|9=79|35=2|34=13|49=ConnectToGateway|56=EchoServer|52=20250626-11:22:53.351|7=4|16=0|10=226|
20250626 18:23:23.352 - 8=FIX.4.4|9=70|35=0|34=14|49=ConnectToGateway|56=EchoServer|52=20250626-11:23:23.352|10=089|
20250626 18:23:53.352 - 8=FIX.4.4|9=70|35=0|34=15|49=ConnectToGateway|56=EchoServer|52=20250626-11:23:53.352|10=093|
20250626 18:24:04.590 - 8=FIX.4.4|9=90|35=5|34=16|49=ConnectToGateway|56=EchoServer|52=20250626-11:24:04.590|58=Shutting down...|10=201|
20250626 18:24:08.696 - 8=FIX.4.4|9=82|35=A|34=17|49=ConnectToGateway|56=EchoServer|52=20250626-11:24:08.694|98=0|108=30|10=150|
20250626 18:24:08.758 - 8=FIX.4.4|9=77|35=D|34=18|49=ConnectToGateway|56=EchoServer|52=20250626-11:24:08.758|11=100|10=183|
20250626 18:24:08.758 - 8=FIX.4.4|9=77|35=D|34=19|49=ConnectToGateway|56=EchoServer|52=20250626-11:24:08.758|11=100|10=184|
20250626 18:24:08.759 - 8=FIX.4.4|9=77|35=D|34=20|49=ConnectToGateway|56=EchoServer|52=20250626-11:24:08.759|11=100|10=177|
20250626 18:24:26.751 - 8=FIX.4.4|9=90|35=5|34=21|49=ConnectToGateway|56=EchoServer|52=20250626-11:24:26.751|58=Shutting down...|10=200|
20250626 18:24:58.296 - 8=FIX.4.4|9=82|35=A|34=22|49=ConnectToGateway|56=EchoServer|52=20250626-11:24:58.294|98=0|108=30|10=147|
20250626 18:24:58.359 - 8=FIX.4.4|9=77|35=D|34=23|49=ConnectToGateway|56=EchoServer|52=20250626-11:24:58.359|11=100|10=181|
20250626 18:24:58.359 - 8=FIX.4.4|9=77|35=D|34=24|49=ConnectToGateway|56=EchoServer|52=20250626-11:24:58.359|11=100|10=182|
20250626 18:24:58.359 - 8=FIX.4.4|9=77|35=D|34=25|49=ConnectToGateway|56=EchoServer|52=20250626-11:24:58.359|11=100|10=183|
20250626 18:24:58.359 - 8=FIX.4.4|9=77|35=D|34=26|49=ConnectToGateway|56=EchoServer|52=20250626-11:24:58.359|11=100|10=184|
20250626 18:24:58.359 - 8=FIX.4.4|9=77|35=D|34=27|49=ConnectToGateway|56=EchoServer|52=20250626-11:24:58.359|11=100|10=185|
20250626 18:25:01.649 - 8=FIX.4.4|9=90|35=5|34=28|49=ConnectToGateway|56=EchoServer|52=20250626-11:25:01.649|58=Shutting down...|10=207|
20250626 18:26:21.336 - 8=FIX.4.4|9=82|35=A|34=29|49=ConnectToGateway|56=EchoServer|52=20250626-11:26:21.334|98=0|108=30|10=141|
20250626 18:26:21.604 - 8=FIX.4.4|9=77|35=D|34=30|49=ConnectToGateway|56=EchoServer|52=20250626-11:26:21.604|11=100|10=164|
20250626 18:26:21.604 - 8=FIX.4.4|9=77|35=D|34=31|49=ConnectToGateway|56=EchoServer|52=20250626-11:26:21.604|11=100|10=165|
20250626 18:26:21.604 - 8=FIX.4.4|9=77|35=D|34=32|49=ConnectToGateway|56=EchoServer|52=20250626-11:26:21.604|11=100|10=166|
20250626 18:26:21.604 - 8=FIX.4.4|9=77|35=D|34=33|49=ConnectToGateway|56=EchoServer|52=20250626-11:26:21.604|11=100|10=167|
20250626 18:26:21.604 - 8=FIX.4.4|9=77|35=D|34=34|49=ConnectToGateway|56=EchoServer|52=20250626-11:26:21.604|11=100|10=168|
20250626 18:26:25.985 - 8=FIX.4.4|9=90|35=5|34=35|49=ConnectToGateway|56=EchoServer|52=20250626-11:26:25.985|58=Shutting down...|10=215|
20250626 18:28:25.041 - 8=FIX.4.4|9=82|35=A|34=36|49=ConnectToGateway|56=EchoServer|52=20250626-11:28:25.039|98=0|108=30|10=147|
20250626 18:28:25.114 - 8=FIX.4.4|9=77|35=D|34=37|49=ConnectToGateway|56=EchoServer|52=20250626-11:28:25.114|11=100|10=173|
20250626 18:28:25.114 - 8=FIX.4.4|9=77|35=D|34=38|49=ConnectToGateway|56=EchoServer|52=20250626-11:28:25.114|11=100|10=174|
20250626 18:28:25.114 - 8=FIX.4.4|9=77|35=D|34=39|49=ConnectToGateway|56=EchoServer|52=20250626-11:28:25.114|11=100|10=175|
20250626 18:28:25.114 - 8=FIX.4.4|9=77|35=D|34=40|49=ConnectToGateway|56=EchoServer|52=20250626-11:28:25.114|11=100|10=167|
20250626 18:28:25.114 - 8=FIX.4.4|9=77|35=D|34=41|49=ConnectToGateway|56=EchoServer|52=20250626-11:28:25.114|11=100|10=168|
20250626 18:28:55.114 - 8=FIX.4.4|9=70|35=0|34=42|49=ConnectToGateway|56=EchoServer|52=20250626-11:28:55.114|10=096|
20250626 18:29:25.115 - 8=FIX.4.4|9=70|35=0|34=43|49=ConnectToGateway|56=EchoServer|52=20250626-11:29:25.115|10=096|
20250626 18:29:55.115 - 8=FIX.4.4|9=70|35=0|34=44|49=ConnectToGateway|56=EchoServer|52=20250626-11:29:55.115|10=100|
20250626 18:30:10.549 - 8=FIX.4.4|9=91|35=5|34=45|49=ConnectToGateway|56=EchoServer|52=20250626-11:30:10.549|58=Confirming logout|10=216|
20250626 18:30:23.563 - 8=FIX.4.4|9=82|35=A|34=46|49=ConnectToGateway|56=EchoServer|52=20250626-11:30:23.562|98=0|108=30|10=140|
20250626 18:30:23.790 - 8=FIX.4.4|9=113|35=4|34=45|49=ConnectToGateway|56=EchoServer|52=20250626-11:30:23.790|43=Y|122=20250626-11:30:23.562|123=Y|36=47|10=208|
20250626 18:30:23.791 - 8=FIX.4.4|9=77|35=D|34=47|49=ConnectToGateway|56=EchoServer|52=20250626-11:30:23.791|11=100|10=176|
20250626 18:30:23.791 - 8=FIX.4.4|9=77|35=D|34=48|49=ConnectToGateway|56=EchoServer|52=20250626-11:30:23.791|11=100|10=177|
20250626 18:30:23.791 - 8=FIX.4.4|9=77|35=D|34=49|49=ConnectToGateway|56=EchoServer|52=20250626-11:30:23.791|11=100|10=178|
20250626 18:30:23.791 - 8=FIX.4.4|9=77|35=D|34=50|49=ConnectToGateway|56=EchoServer|52=20250626-11:30:23.791|11=100|10=170|
20250626 18:30:49.393 - 8=FIX.4.4|9=90|35=5|34=51|49=ConnectToGateway|56=EchoServer|52=20250626-11:30:49.393|58=Shutting down...|10=207|
20250627 09:48:16.566 - 8=FIX.4.4|9=82|35=A|34=52|49=ConnectToGateway|56=EchoServer|52=20250627-02:48:16.563|98=0|108=30|10=150|
20250627 09:48:16.842 - 8=FIX.4.4|9=77|35=D|34=53|49=ConnectToGateway|56=EchoServer|52=20250627-02:48:16.842|11=100|10=182|
20250627 09:48:16.842 - 8=FIX.4.4|9=77|35=D|34=54|49=ConnectToGateway|56=EchoServer|52=20250627-02:48:16.842|11=100|10=183|
20250627 09:48:16.842 - 8=FIX.4.4|9=77|35=D|34=55|49=ConnectToGateway|56=EchoServer|52=20250627-02:48:16.842|11=100|10=184|
20250627 09:48:16.842 - 8=FIX.4.4|9=77|35=D|34=56|49=ConnectToGateway|56=EchoServer|52=20250627-02:48:16.842|11=100|10=185|
20250627 09:48:16.842 - 8=FIX.4.4|9=77|35=D|34=57|49=ConnectToGateway|56=EchoServer|52=20250627-02:48:16.842|11=100|10=186|
20250627 09:48:16.842 - 8=FIX.4.4|9=77|35=D|34=58|49=ConnectToGateway|56=EchoServer|52=20250627-02:48:16.842|11=100|10=187|
20250627 09:48:16.842 - 8=FIX.4.4|9=77|35=D|34=59|49=ConnectToGateway|56=EchoServer|52=20250627-02:48:16.842|11=100|10=188|
20250627 09:48:16.842 - 8=FIX.4.4|9=77|35=D|34=60|49=ConnectToGateway|56=EchoServer|52=20250627-02:48:16.842|11=100|10=180|
20250627 09:48:16.842 - 8=FIX.4.4|9=77|35=D|34=61|49=ConnectToGateway|56=EchoServer|52=20250627-02:48:16.842|11=100|10=181|
20250627 09:48:16.842 - 8=FIX.4.4|9=77|35=D|34=62|49=ConnectToGateway|56=EchoServer|52=20250627-02:48:16.842|11=100|10=182|
20250627 09:48:16.843 - 8=FIX.4.4|9=77|35=D|34=63|49=ConnectToGateway|56=EchoServer|52=20250627-02:48:16.843|11=100|10=184|
20250627 09:48:46.843 - 8=FIX.4.4|9=70|35=0|34=64|49=ConnectToGateway|56=EchoServer|52=20250627-02:48:46.843|10=112|
20250627 09:49:16.843 - 8=FIX.4.4|9=70|35=0|34=65|49=ConnectToGateway|56=EchoServer|52=20250627-02:49:16.843|10=111|
20250627 09:49:32.977 - 8=FIX.4.4|9=91|35=5|34=66|49=ConnectToGateway|56=EchoServer|52=20250627-02:49:32.977|58=Confirming logout|10=239|
20250627 09:50:44.970 - 8=FIX.4.4|9=82|35=A|34=67|49=ConnectToGateway|56=EchoServer|52=20250627-02:50:44.969|98=0|108=30|10=160|
20250627 09:50:45.229 - 8=FIX.4.4|9=77|35=D|34=68|49=ConnectToGateway|56=EchoServer|52=20250627-02:50:45.229|11=100|10=182|
20250627 09:50:45.229 - 8=FIX.4.4|9=77|35=D|34=69|49=ConnectToGateway|56=EchoServer|52=20250627-02:50:45.229|11=100|10=183|
20250627 09:50:45.229 - 8=FIX.4.4|9=77|35=D|34=70|49=ConnectToGateway|56=EchoServer|52=20250627-02:50:45.229|11=100|10=175|
20250627 09:50:45.229 - 8=FIX.4.4|9=77|35=D|34=71|49=ConnectToGateway|56=EchoServer|52=20250627-02:50:45.229|11=100|10=176|
20250627 09:50:45.229 - 8=FIX.4.4|9=77|35=D|34=72|49=ConnectToGateway|56=EchoServer|52=20250627-02:50:45.229|11=100|10=177|
20250627 09:50:45.230 - 8=FIX.4.4|9=77|35=D|34=73|49=ConnectToGateway|56=EchoServer|52=20250627-02:50:45.230|11=100|10=170|
20250627 09:51:15.230 - 8=FIX.4.4|9=70|35=0|34=74|49=ConnectToGateway|56=EchoServer|52=20250627-02:51:15.230|10=093|
20250627 09:51:45.231 - 8=FIX.4.4|9=70|35=0|34=75|49=ConnectToGateway|56=EchoServer|52=20250627-02:51:45.231|10=098|
20250627 09:52:15.231 - 8=FIX.4.4|9=70|35=0|34=76|49=ConnectToGateway|56=EchoServer|52=20250627-02:52:15.231|10=097|
20250627 09:52:43.026 - 8=FIX.4.4|9=91|35=5|34=77|49=ConnectToGateway|56=EchoServer|52=20250627-02:52:43.026|58=Confirming logout|10=222|
20250627 09:52:50.124 - 8=FIX.4.4|9=82|35=A|34=78|49=ConnectToGateway|56=EchoServer|52=20250627-02:52:50.123|98=0|108=30|10=143|
20250627 09:52:50.381 - 8=FIX.4.4|9=77|35=D|34=79|49=ConnectToGateway|56=EchoServer|52=20250627-02:52:50.381|11=100|10=181|
20250627 09:52:50.381 - 8=FIX.4.4|9=77|35=D|34=80|49=ConnectToGateway|56=EchoServer|52=20250627-02:52:50.381|11=100|10=173|
20250627 09:52:50.381 - 8=FIX.4.4|9=77|35=D|34=81|49=ConnectToGateway|56=EchoServer|52=20250627-02:52:50.381|11=100|10=174|
20250627 09:52:50.382 - 8=FIX.4.4|9=77|35=D|34=82|49=ConnectToGateway|56=EchoServer|52=20250627-02:52:50.382|11=100|10=176|
20250627 09:53:20.382 - 8=FIX.4.4|9=70|35=0|34=83|49=ConnectToGateway|56=EchoServer|52=20250627-02:53:20.382|10=099|
20250627 09:53:31.456 - 8=FIX.4.4|9=90|35=5|34=84|49=ConnectToGateway|56=EchoServer|52=20250627-02:53:31.456|58=Shutting down...|10=210|
20250627 09:56:27.145 - 8=FIX.4.4|9=82|35=A|34=85|49=ConnectToGateway|56=EchoServer|52=20250627-02:56:27.143|98=0|108=30|10=151|
20250627 09:56:32.140 - 8=FIX.4.4|9=119|35=5|34=86|49=ConnectToGateway|56=EchoServer|52=20250627-02:56:32.140|58=Logon response wasn't received during 5000 ms|10=063|
20250627 10:00:08.694 - 8=FIX.4.4|9=82|35=A|34=87|49=ConnectToGateway|56=EchoServer|52=20250627-03:00:08.692|98=0|108=30|10=151|
20250627 10:00:13.689 - 8=FIX.4.4|9=119|35=5|34=88|49=ConnectToGateway|56=EchoServer|52=20250627-03:00:13.688|58=Logon response wasn't received during 5000 ms|10=071|
20250627 10:04:22.531 - 8=FIX.4.4|9=82|35=A|34=89|49=ConnectToGateway|56=EchoServer|52=20250627-03:04:22.530|98=0|108=30|10=144|
20250627 10:04:27.527 - 8=FIX.4.4|9=119|35=5|34=90|49=ConnectToGateway|56=EchoServer|52=20250627-03:04:27.527|58=Logon response wasn't received during 5000 ms|10=065|
20250627 10:12:54.289 - 8=FIX.4.4|9=82|35=A|34=91|49=ConnectToGateway|56=EchoServer|52=20250627-03:12:54.288|98=0|108=30|10=151|
20250627 10:12:59.286 - 8=FIX.4.4|9=119|35=5|34=92|49=ConnectToGateway|56=EchoServer|52=20250627-03:12:59.285|58=Logon response wasn't received during 5000 ms|10=072|
20250627 10:13:16.859 - 8=FIX.4.4|9=82|35=A|34=93|49=ConnectToGateway|56=EchoServer|52=20250627-03:13:16.857|98=0|108=30|10=154|
20250627 10:13:17.092 - 8=FIX.4.4|9=113|35=4|34=85|49=ConnectToGateway|56=EchoServer|52=20250627-03:13:17.092|43=Y|122=20250627-03:13:16.857|123=Y|36=94|10=227|
20250627 10:13:17.093 - 8=FIX.4.4|9=77|35=D|34=94|49=ConnectToGateway|56=EchoServer|52=20250627-03:13:17.093|11=100|10=179|
20250627 10:13:17.093 - 8=FIX.4.4|9=77|35=D|34=95|49=ConnectToGateway|56=EchoServer|52=20250627-03:13:17.093|11=100|10=180|
20250627 10:13:17.093 - 8=FIX.4.4|9=128|35=D|34=96|49=ConnectToGateway|56=EchoServer|52=20250627-03:13:17.093|11=100|21=1|55=BTCUSD|54=1|60=20250627-03:13:17|38=1|40=1|10=178|
20250627 10:34:28.807 - 8=FIX.4.4|9=82|35=A|34=97|49=ConnectToGateway|56=EchoServer|52=20250627-03:34:28.806|98=0|108=30|10=158|
20250627 10:34:29.031 - 8=FIX.4.4|9=108|35=D|34=95|49=ConnectToGateway|56=EchoServer|43=Y|122=20250627-03:13:17.093|52=20250627-03:34:29.030|11=100|10=223|
20250627 10:34:29.031 - 8=FIX.4.4|9=159|35=D|34=96|49=ConnectToGateway|56=EchoServer|43=Y|122=20250627-03:13:17.093|52=20250627-03:34:29.031|11=100|21=1|55=BTCUSD|54=1|60=20250627-03:13:17|38=1|40=1|10=183|
20250627 10:34:29.031 - 8=FIX.4.4|9=113|35=4|34=97|49=ConnectToGateway|56=EchoServer|52=20250627-03:34:29.031|43=Y|122=20250627-03:34:28.806|123=Y|36=98|10=233|
20250627 10:34:29.032 - 8=FIX.4.4|9=128|35=D|34=98|49=ConnectToGateway|56=EchoServer|52=20250627-03:34:29.032|11=100|21=1|55=BTCUSD|54=1|60=20250627-03:34:29|38=1|40=1|10=185|
20250627 10:34:48.586 - 8=FIX.4.4|9=82|35=A|34=99|49=ConnectToGateway|56=EchoServer|52=20250627-03:34:48.584|98=0|108=30|10=165|
20250627 10:45:41.738 - 8=FIX.4.4|9=83|35=A|34=100|49=ConnectToGateway|56=EchoServer|52=20250627-03:45:41.737|98=0|108=30|10=192|
20250627 10:48:36.081 - 8=FIX.4.4|9=83|35=A|34=101|49=ConnectToGateway|56=EchoServer|52=20250627-03:48:36.079|98=0|108=30|10=199|
20250627 10:48:58.063 - 8=FIX.4.4|9=83|35=A|34=102|49=ConnectToGateway|56=EchoServer|52=20250627-03:48:58.061|98=0|108=30|10=195|
20250627 10:49:27.076 - 8=FIX.4.4|9=83|35=A|34=103|49=ConnectToGateway|56=EchoServer|52=20250627-03:49:27.074|98=0|108=30|10=197|
20250627 10:50:20.970 - 8=FIX.4.4|9=83|35=A|34=104|49=ConnectToGateway|56=EchoServer|52=20250627-03:50:20.969|98=0|108=30|10=196|
20250627 11:49:40.961 - 8=FIX.4.4|9=83|35=A|34=105|49=ConnectToGateway|56=EchoServer|52=20250627-04:49:40.959|98=0|108=30|10=207|
20250627 11:49:40.967 - 8=FIX.4.4|9=91|35=5|34=106|49=ConnectToGateway|56=EchoServer|52=20250627-04:49:40.967|58=Shutting down...|10=012|
20250627 11:49:56.391 - 8=FIX.4.4|9=83|35=A|34=107|49=ConnectToGateway|56=EchoServer|52=20250627-04:49:56.390|98=0|108=30|10=205|
20250627 11:49:56.396 - 8=FIX.4.4|9=91|35=5|34=108|49=ConnectToGateway|56=EchoServer|52=20250627-04:49:56.396|58=Shutting down...|10=017|
20250627 11:50:13.363 - 8=FIX.4.4|9=83|35=A|34=109|49=ConnectToGateway|56=EchoServer|52=20250627-04:50:13.360|98=0|108=30|10=189|
20250627 11:50:29.256 - 8=FIX.4.4|9=83|35=A|34=110|49=ConnectToGateway|56=EchoServer|52=20250627-04:50:29.253|98=0|108=30|10=189|
20250627 11:51:27.846 - 8=FIX.4.4|9=83|35=A|34=111|49=ConnectToGateway|56=EchoServer|52=20250627-04:51:27.844|98=0|108=30|10=195|
20250627 11:54:55.211 - 8=FIX.4.4|9=83|35=A|34=112|49=ConnectToGateway|56=EchoServer|52=20250627-04:54:55.210|98=0|108=30|10=187|
20250627 12:01:21.457 - 8=FIX.4.4|9=83|35=A|34=113|49=ConnectToGateway|56=EchoServer|52=20250627-05:01:21.455|98=0|108=30|10=185|
20250627 12:01:30.204 - 8=FIX.4.4|9=83|35=A|34=114|49=ConnectToGateway|56=EchoServer|52=20250627-05:01:30.202|98=0|108=30|10=176|
20250627 12:01:30.216 - 8=FIX.4.4|9=122|35=5|34=115|49=ConnectToGateway|56=EchoServer|52=20250627-05:01:30.216|58=Incoming seq number 10 is less then expected 90|10=202|
20250627 12:01:37.666 - 8=FIX.4.4|9=83|35=A|34=116|49=ConnectToGateway|56=EchoServer|52=20250627-05:01:37.664|98=0|108=30|10=197|
20250627 12:01:37.679 - 8=FIX.4.4|9=122|35=5|34=117|49=ConnectToGateway|56=EchoServer|52=20250627-05:01:37.679|58=Incoming seq number 13 is less then expected 90|10=227|
20250627 12:01:55.282 - 8=FIX.4.4|9=83|35=A|34=118|49=ConnectToGateway|56=EchoServer|52=20250627-05:01:55.281|98=0|108=30|10=194|
20250627 12:01:55.388 - 8=FIX.4.4|9=122|35=5|34=119|49=ConnectToGateway|56=EchoServer|52=20250627-05:01:55.388|58=Incoming seq number 16 is less then expected 90|10=229|
20250627 12:04:33.279 - 8=FIX.4.4|9=83|35=A|34=120|49=ConnectToGateway|56=EchoServer|52=20250627-05:04:33.277|98=0|108=30|10=191|
20250627 12:04:33.381 - 8=FIX.4.4|9=122|35=5|34=121|49=ConnectToGateway|56=EchoServer|52=20250627-05:04:33.381|58=Incoming seq number 23 is less then expected 90|10=212|
20250627 12:04:45.664 - 8=FIX.4.4|9=83|35=A|34=122|49=ConnectToGateway|56=EchoServer|52=20250627-05:04:45.661|98=0|108=30|10=193|
20250627 12:04:57.378 - 8=FIX.4.4|9=83|35=A|34=123|49=ConnectToGateway|56=EchoServer|52=20250627-05:04:57.376|98=0|108=30|10=200|
20250627 12:04:57.484 - 8=FIX.4.4|9=122|35=5|34=124|49=ConnectToGateway|56=EchoServer|52=20250627-05:04:57.483|58=Incoming seq number 26 is less then expected 90|10=227|
20250627 12:06:43.133 - 8=FIX.4.4|9=83|35=A|34=125|49=ConnectToGateway|56=EchoServer|52=20250627-05:06:43.131|98=0|108=30|10=188|
20250627 12:06:50.751 - 8=FIX.4.4|9=83|35=A|34=126|49=ConnectToGateway|56=EchoServer|52=20250627-05:06:50.748|98=0|108=30|10=201|
20250627 12:07:01.097 - 8=FIX.4.4|9=83|35=A|34=127|49=ConnectToGateway|56=EchoServer|52=20250627-05:07:01.096|98=0|108=30|10=195|
20250627 12:07:01.202 - 8=FIX.4.4|9=122|35=5|34=128|49=ConnectToGateway|56=EchoServer|52=20250627-05:07:01.202|58=Incoming seq number 36 is less then expected 90|10=213|
20250627 12:08:50.389 - 8=FIX.4.4|9=83|35=A|34=129|49=ConnectToGateway|56=EchoServer|52=20250627-05:08:50.387|98=0|108=30|10=205|
20250627 12:08:50.497 - 8=FIX.4.4|9=122|35=5|34=130|49=ConnectToGateway|56=EchoServer|52=20250627-05:08:50.497|58=Incoming seq number 43 is less then expected 90|10=225|
20250627 12:59:37.397 - 8=FIX.4.4|9=84|35=A|34=131|49=ConnectToGateway1|56=EchoServer|52=20250627-05:59:37.395|98=0|108=30|10=002|
20250627 12:59:37.512 - 8=FIX.4.4|9=122|35=5|34=132|49=ConnectToGateway1|56=EchoServer|52=20250627-05:59:37.512|58=Incoming seq number 1 is less then expected 90|10=221|
20250627 12:59:45.072 - 8=FIX.4.4|9=84|35=A|34=133|49=ConnectToGateway1|56=EchoServer|52=20250627-05:59:45.071|98=0|108=30|10=250|
20250627 12:59:45.093 - 8=FIX.4.4|9=122|35=5|34=134|49=ConnectToGateway1|56=EchoServer|52=20250627-05:59:45.093|58=Incoming seq number 4 is less then expected 90|10=229|
20250627 13:14:44.241 - 8=FIX.4.4|9=84|35=A|34=135|49=ConnectToGateway1|56=EchoServer|52=20250627-06:14:44.239|98=0|108=30|10=249|
20250627 13:14:44.356 - 8=FIX.4.4|9=82|35=2|34=136|49=ConnectToGateway1|56=EchoServer|52=20250627-06:14:44.356|7=90|16=0|10=131|
20250627 13:14:44.362 - 8=FIX.4.4|9=116|35=4|34=105|49=ConnectToGateway1|56=EchoServer|52=20250627-06:14:44.362|43=Y|122=20250627-06:14:44.356|123=Y|36=137|10=113|
20250627 13:14:44.362 - 8=FIX.4.4|9=130|35=D|34=137|49=ConnectToGateway1|56=EchoServer|52=20250627-06:14:44.362|11=100|21=1|55=BTCUSD|54=1|60=20250627-03:34:48|38=1|40=1|10=018|
20250627 13:14:44.362 - 8=FIX.4.4|9=130|35=D|34=138|49=ConnectToGateway1|56=EchoServer|52=20250627-06:14:44.362|11=100|21=1|55=BTCUSD|54=1|60=20250627-03:45:41|38=1|40=1|10=014|
20250627 13:14:44.362 - 8=FIX.4.4|9=130|35=D|34=139|49=ConnectToGateway1|56=EchoServer|52=20250627-06:14:44.362|11=100|21=1|55=BTCUSD|54=1|60=20250627-03:48:36|38=1|40=1|10=022|
20250627 13:14:44.362 - 8=FIX.4.4|9=130|35=D|34=140|49=ConnectToGateway1|56=EchoServer|52=20250627-06:14:44.362|11=100|21=1|55=BTCUSD|54=1|60=20250627-03:48:58|38=1|40=1|10=018|
20250627 13:14:44.362 - 8=FIX.4.4|9=130|35=D|34=141|49=ConnectToGateway1|56=EchoServer|52=20250627-06:14:44.362|11=100|21=1|55=BTCUSD|54=1|60=20250627-03:49:27|38=1|40=1|10=016|
20250627 13:14:44.362 - 8=FIX.4.4|9=130|35=D|34=142|49=ConnectToGateway1|56=EchoServer|52=20250627-06:14:44.362|11=100|21=1|55=BTCUSD|54=1|60=20250627-03:50:21|38=1|40=1|10=003|
20250627 13:14:44.362 - 8=FIX.4.4|9=120|35=B|34=143|49=ConnectToGateway1|56=EchoServer|52=20250627-06:14:44.362|148=Hello there|33=3|58=line1|58=line2|58=line3|10=113|
20250627 13:14:44.362 - 8=FIX.4.4|9=114|35=B|34=144|49=ConnectToGateway1|56=EchoServer|52=20250627-06:14:44.362|148=Hello there|33=3|58=line1|line2|line3|10=023|
20250627 13:14:44.362 - 8=FIX.4.4|9=114|35=B|34=145|49=ConnectToGateway1|56=EchoServer|52=20250627-06:14:44.362|148=Hello there|33=3|58=line1|line2|line3|10=024|
20250627 13:14:44.362 - 8=FIX.4.4|9=114|35=B|34=146|49=ConnectToGateway1|56=EchoServer|52=20250627-06:14:44.362|148=Hello there|33=3|58=line1|line2|line3|10=025|
20250627 13:14:44.362 - 8=FIX.4.4|9=82|35=2|34=147|49=ConnectToGateway1|56=EchoServer|52=20250627-06:14:44.362|7=90|16=0|10=130|
20250627 13:14:44.362 - 8=FIX.4.4|9=114|35=B|34=148|49=ConnectToGateway1|56=EchoServer|52=20250627-06:14:44.362|148=Hello there|33=3|58=line1|line2|line3|10=027|
20250627 13:14:44.362 - 8=FIX.4.4|9=120|35=B|34=149|49=ConnectToGateway1|56=EchoServer|52=20250627-06:14:44.362|148=Hello there|33=3|58=line1|58=line2|58=line3|10=119|
20250627 13:14:44.362 - 8=FIX.4.4|9=120|35=B|34=150|49=ConnectToGateway1|56=EchoServer|52=20250627-06:14:44.362|148=Hello there|33=3|58=line1|58=line2|58=line3|10=111|
20250627 13:14:44.362 - 8=FIX.4.4|9=120|35=B|34=151|49=ConnectToGateway1|56=EchoServer|52=20250627-06:14:44.362|148=Hello there|33=3|58=line1|58=line2|58=line3|10=112|
20250627 13:14:44.362 - 8=FIX.4.4|9=120|35=B|34=152|49=ConnectToGateway1|56=EchoServer|52=20250627-06:14:44.362|148=Hello there|33=3|58=line1|58=line2|58=line3|10=113|
20250627 13:14:44.362 - 8=FIX.4.4|9=120|35=B|34=153|49=ConnectToGateway1|56=EchoServer|52=20250627-06:14:44.362|148=Hello there|33=3|58=line1|58=line2|58=line3|10=114|
20250627 13:14:44.362 - 8=FIX.4.4|9=120|35=B|34=154|49=ConnectToGateway1|56=EchoServer|52=20250627-06:14:44.362|148=Hello there|33=3|58=line1|58=line2|58=line3|10=115|
20250627 13:14:44.362 - 8=FIX.4.4|9=120|35=B|34=155|49=ConnectToGateway1|56=EchoServer|52=20250627-06:14:44.362|148=Hello there|33=3|58=line1|58=line2|58=line3|10=116|
20250627 13:14:44.362 - 8=FIX.4.4|9=120|35=B|34=156|49=ConnectToGateway1|56=EchoServer|52=20250627-06:14:44.362|148=Hello there|33=3|58=line1|58=line2|58=line3|10=117|
20250627 13:14:44.362 - 8=FIX.4.4|9=120|35=B|34=157|49=ConnectToGateway1|56=EchoServer|52=20250627-06:14:44.362|148=Hello there|33=3|58=line1|58=line2|58=line3|10=118|
20250627 13:14:44.362 - 8=FIX.4.4|9=120|35=B|34=158|49=ConnectToGateway1|56=EchoServer|52=20250627-06:14:44.362|148=Hello there|33=3|58=line1|58=line2|58=line3|10=119|
20250627 13:14:44.362 - 8=FIX.4.4|9=120|35=B|34=159|49=ConnectToGateway1|56=EchoServer|52=20250627-06:14:44.362|148=Hello there|33=3|58=line1|58=line2|58=line3|10=120|
20250627 13:14:44.362 - 8=FIX.4.4|9=120|35=B|34=160|49=ConnectToGateway1|56=EchoServer|52=20250627-06:14:44.362|148=Hello there|33=3|58=line1|58=line2|58=line3|10=112|
20250627 13:14:44.362 - 8=FIX.4.4|9=120|35=B|34=161|49=ConnectToGateway1|56=EchoServer|52=20250627-06:14:44.362|148=Hello there|33=3|58=line1|58=line2|58=line3|10=113|
20250627 13:14:44.362 - 8=FIX.4.4|9=120|35=B|34=162|49=ConnectToGateway1|56=EchoServer|52=20250627-06:14:44.362|148=Hello there|33=3|58=line1|58=line2|58=line3|10=114|
20250627 13:14:44.362 - 8=FIX.4.4|9=120|35=B|34=163|49=ConnectToGateway1|56=EchoServer|52=20250627-06:14:44.362|148=Hello there|33=3|58=line1|58=line2|58=line3|10=115|
20250627 13:14:44.362 - 8=FIX.4.4|9=120|35=B|34=164|49=ConnectToGateway1|56=EchoServer|52=20250627-06:14:44.362|148=Hello there|33=3|58=line1|58=line2|58=line3|10=116|
20250627 13:14:51.798 - 8=FIX.4.4|9=84|35=A|34=165|49=ConnectToGateway1|56=EchoServer|52=20250627-06:14:51.796|98=0|108=30|10=002|
20250627 13:14:51.818 - 8=FIX.4.4|9=82|35=2|34=166|49=ConnectToGateway1|56=EchoServer|52=20250627-06:14:51.818|7=91|16=0|10=136|
20250627 13:14:51.825 - 8=FIX.4.4|9=161|35=D|34=137|49=ConnectToGateway1|56=EchoServer|43=Y|122=20250627-06:14:44.362|52=20250627-06:14:51.824|11=100|21=1|55=BTCUSD|54=1|60=20250627-03:34:48|38=1|40=1|10=029|
20250627 13:14:51.825 - 8=FIX.4.4|9=161|35=D|34=138|49=ConnectToGateway1|56=EchoServer|43=Y|122=20250627-06:14:44.362|52=20250627-06:14:51.825|11=100|21=1|55=BTCUSD|54=1|60=20250627-03:45:41|38=1|40=1|10=026|
20250627 13:14:51.825 - 8=FIX.4.4|9=161|35=D|34=139|49=ConnectToGateway1|56=EchoServer|43=Y|122=20250627-06:14:44.362|52=20250627-06:14:51.825|11=100|21=1|55=BTCUSD|54=1|60=20250627-03:48:36|38=1|40=1|10=034|
20250627 13:15:06.280 - 8=FIX.4.4|9=84|35=A|34=140|49=ConnectToGateway1|56=EchoServer|52=20250627-06:15:06.278|98=0|108=30|10=247|
20250627 13:15:06.389 - 8=FIX.4.4|9=122|35=5|34=141|49=ConnectToGateway1|56=EchoServer|52=20250627-06:15:06.389|58=Incoming seq number 7 is less then expected 92|10=230|
20250627 13:15:25.749 - 8=FIX.4.4|9=83|35=A|34=142|49=ConnectToGateway|56=EchoServer|52=20250627-06:15:25.748|98=0|108=30|10=202|
20250627 13:15:25.767 - 8=FIX.4.4|9=122|35=5|34=143|49=ConnectToGateway|56=EchoServer|52=20250627-06:15:25.766|58=Incoming seq number 47 is less then expected 92|10=235|
20250627 13:15:34.715 - 8=FIX.4.4|9=83|35=A|34=144|49=ConnectToGateway|56=EchoServer|52=20250627-06:15:34.713|98=0|108=30|10=196|
20250627 13:15:34.724 - 8=FIX.4.4|9=122|35=5|34=145|49=ConnectToGateway|56=EchoServer|52=20250627-06:15:34.724|58=Incoming seq number 50 is less then expected 92|10=225|
20250627 13:15:48.192 - 8=FIX.4.4|9=83|35=A|34=146|49=ConnectToGateway|56=EchoServer|52=20250627-06:15:48.190|98=0|108=30|10=202|
20250627 13:15:48.298 - 8=FIX.4.4|9=122|35=5|34=147|49=ConnectToGateway|56=EchoServer|52=20250627-06:15:48.298|58=Incoming seq number 53 is less then expected 92|10=241|
20250627 13:20:31.233 - 8=FIX.4.4|9=83|35=A|34=148|49=ConnectToGateway|56=EchoServer|52=20250627-06:20:31.231|98=0|108=30|10=188|
20250627 13:20:31.334 - 8=FIX.4.4|9=122|35=5|34=149|49=ConnectToGateway|56=EchoServer|52=20250627-06:20:31.334|58=Incoming seq number 75 is less then expected 92|10=226|
20250627 13:21:58.052 - 8=FIX.4.4|9=83|35=A|34=150|49=ConnectToGateway|56=EchoServer|52=20250627-06:21:58.051|98=0|108=30|10=191|
20250627 13:21:58.160 - 8=FIX.4.4|9=122|35=5|34=151|49=ConnectToGateway|56=EchoServer|52=20250627-06:21:58.160|58=Incoming seq number 79 is less then expected 92|10=230|
20250627 13:23:37.719 - 8=FIX.4.4|9=83|35=A|34=152|49=ConnectToGateway|56=EchoServer|52=20250627-06:23:37.717|98=0|108=30|10=201|
20250627 13:23:37.822 - 8=FIX.4.4|9=122|35=5|34=153|49=ConnectToGateway|56=EchoServer|52=20250627-06:23:37.821|58=Incoming seq number 84 is less then expected 92|10=231|
20250627 13:26:38.564 - 8=FIX.4.4|9=83|35=A|34=154|49=ConnectToGateway|56=EchoServer|52=20250627-06:26:38.563|98=0|108=30|10=206|
20250627 13:26:38.678 - 8=FIX.4.4|9=122|35=5|34=155|49=ConnectToGateway|56=EchoServer|52=20250627-06:26:38.678|58=Incoming seq number 91 is less then expected 92|10=245|
20250627 13:26:49.967 - 8=FIX.4.4|9=83|35=A|34=156|49=ConnectToGateway|56=EchoServer|52=20250627-06:26:49.965|98=0|108=30|10=216|
20250627 13:26:49.988 - 8=FIX.4.4|9=81|35=2|34=157|49=ConnectToGateway|56=EchoServer|52=20250627-06:26:49.988|7=92|16=0|10=105|
20250627 13:26:49.994 - 8=FIX.4.4|9=108|35=D|34=95|49=ConnectToGateway|56=EchoServer|43=Y|122=20250627-03:13:17.093|52=20250627-06:26:49.994|11=100|10=248|
20250627 13:29:20.091 - 8=FIX.4.4|9=82|35=A|34=96|49=ConnectToGateway|56=EchoServer|52=20250627-06:29:20.089|98=0|108=30|10=159|
20250627 13:29:25.084 - 8=FIX.4.4|9=119|35=5|34=97|49=ConnectToGateway|56=EchoServer|52=20250627-06:29:25.084|58=Logon response wasn't received during 5000 ms|10=078|
20250627 13:29:47.897 - 8=FIX.4.4|9=82|35=A|34=98|49=ConnectToGateway|56=EchoServer|52=20250627-06:29:47.895|98=0|108=30|10=175|
20250627 13:29:52.891 - 8=FIX.4.4|9=119|35=5|34=99|49=ConnectToGateway|56=EchoServer|52=20250627-06:29:52.891|58=Logon response wasn't received during 5000 ms|10=086|
20250627 13:30:37.149 - 8=FIX.4.4|9=84|35=A|34=100|49=ConnectToGateway1|56=EchoServer|52=20250627-06:30:37.147|98=0|108=30|10=239|
20250627 13:30:37.162 - 8=FIX.4.4|9=102|35=5|34=101|49=ConnectToGateway1|56=EchoServer|52=20250627-06:30:37.162|58=First message is not logon|10=083|
20250627 13:31:13.860 - 8=FIX.4.4|9=84|35=A|34=102|49=ConnectToGateway1|56=EchoServer|52=20250627-06:31:13.858|98=0|108=30|10=245|
20250627 13:31:13.874 - 8=FIX.4.4|9=102|35=5|34=103|49=ConnectToGateway1|56=EchoServer|52=20250627-06:31:13.874|58=First message is not logon|10=090|
20250627 13:31:48.224 - 8=FIX.4.4|9=84|35=A|34=104|49=ConnectToGateway1|56=EchoServer|52=20250627-06:31:48.222|98=0|108=30|10=240|
20250627 13:31:48.331 - 8=FIX.4.4|9=102|35=5|34=105|49=ConnectToGateway1|56=EchoServer|52=20250627-06:31:48.331|58=First message is not logon|10=088|
20250627 13:31:57.995 - 8=FIX.4.4|9=84|35=A|34=106|49=ConnectToGateway1|56=EchoServer|52=20250627-06:31:57.993|98=0|108=30|10=001|
20250627 13:31:58.014 - 8=FIX.4.4|9=102|35=5|34=107|49=ConnectToGateway1|56=EchoServer|52=20250627-06:31:58.014|58=First message is not logon|10=089|
20250627 13:32:58.780 - 8=FIX.4.4|9=84|35=A|34=108|49=ConnectToGateway1|56=EchoServer|52=20250627-06:32:58.777|98=0|108=30|10=005|
20250627 13:32:58.880 - 8=FIX.4.4|9=102|35=5|34=109|49=ConnectToGateway1|56=EchoServer|52=20250627-06:32:58.879|58=First message is not logon|10=111|
20250627 13:33:37.175 - 8=FIX.4.2|9=84|35=A|34=110|49=ConnectToGateway1|56=EchoServer|52=20250627-06:33:37.172|98=0|108=30|10=239|
20250627 13:35:16.867 - 8=FIX.4.2|9=84|35=A|34=111|49=ConnectToGateway1|56=EchoServer|52=20250627-06:35:16.865|98=0|108=30|10=248|
20250627 13:35:16.972 - 8=FIX.4.2|9=102|35=5|34=112|49=ConnectToGateway1|56=EchoServer|52=20250627-06:35:16.971|58=First message is not logon|10=093|
20250627 13:35:32.029 - 8=FIX.4.2|9=84|35=A|34=113|49=ConnectToGateway1|56=EchoServer|52=20250627-06:35:32.027|98=0|108=30|10=238|
20250627 13:35:32.139 - 8=FIX.4.2|9=102|35=5|34=114|49=ConnectToGateway1|56=EchoServer|52=20250627-06:35:32.139|58=First message is not logon|10=089|
20250627 13:37:34.904 - 8=FIX.4.2|9=84|35=A|34=115|49=ConnectToGateway1|56=EchoServer|52=20250627-06:37:34.902|98=0|108=30|10=246|
20250627 13:37:39.897 - 8=FIX.4.2|9=121|35=5|34=116|49=ConnectToGateway1|56=EchoServer|52=20250627-06:37:39.897|58=Logon response wasn't received during 5000 ms|10=174|
20250627 13:50:28.795 - 8=FIX.4.2|9=84|35=A|34=117|49=ConnectToGateway1|56=EchoServer|52=20250627-06:50:28.793|98=0|108=30|10=254|
20250627 13:50:28.905 - 8=FIX.4.2|9=102|35=5|34=118|49=ConnectToGateway1|56=EchoServer|52=20250627-06:50:28.905|58=First message is not logon|10=096|
20250627 13:52:39.983 - 8=FIX.4.2|9=84|35=A|34=119|49=ConnectToGateway1|56=EchoServer|52=20250627-06:52:39.981|98=0|108=30|10=003|
20250627 13:52:40.088 - 8=FIX.4.2|9=102|35=5|34=120|49=ConnectToGateway1|56=EchoServer|52=20250627-06:52:40.088|58=First message is not logon|10=087|
20250627 13:54:01.659 - 8=FIX.4.2|9=84|35=A|34=121|49=ConnectToGateway1|56=EchoServer|52=20250627-06:54:01.657|98=0|108=30|10=243|
20250627 13:54:12.424 - 8=FIX.4.2|9=84|35=A|34=122|49=ConnectToGateway1|56=EchoServer|52=20250627-06:54:12.423|98=0|108=30|10=237|
20250627 13:54:12.443 - 8=FIX.4.2|9=83|35=2|34=123|49=ConnectToGateway1|56=EchoServer|52=20250627-06:54:12.443|7=101|16=0|10=163|
20250627 13:54:37.412 - 8=FIX.4.2|9=84|35=A|34=124|49=ConnectToGateway1|56=EchoServer|52=20250627-06:54:37.411|98=0|108=30|10=243|
20250627 13:54:37.424 - 8=FIX.4.2|9=83|35=2|34=125|49=ConnectToGateway1|56=EchoServer|52=20250627-06:54:37.424|7=101|16=0|10=171|
20250627 13:54:50.971 - 8=FIX.4.2|9=84|35=A|34=126|49=ConnectToGateway1|56=EchoServer|52=20250627-06:54:50.969|98=0|108=30|10=002|
20250627 13:54:51.068 - 8=FIX.4.2|9=83|35=2|34=127|49=ConnectToGateway1|56=EchoServer|52=20250627-06:54:51.068|7=101|16=0|10=173|
20250627 13:56:38.542 - 8=FIX.4.2|9=84|35=A|34=128|49=ConnectToGateway1|56=EchoServer|52=20250627-06:56:38.541|98=0|108=30|10=254|
20250627 13:56:43.537 - 8=FIX.4.2|9=121|35=5|34=129|49=ConnectToGateway1|56=EchoServer|52=20250627-06:56:43.537|58=Logon response wasn't received during 5000 ms|10=165|
20250627 13:57:04.673 - 8=FIX.4.2|9=84|35=A|34=130|49=ConnectToGateway1|56=EchoServer|52=20250627-06:57:04.672|98=0|108=30|10=246|
20250627 13:57:04.768 - 8=FIX.4.2|9=83|35=2|34=131|49=ConnectToGateway1|56=EchoServer|52=20250627-06:57:04.767|7=101|16=0|10=175|
20250627 14:01:26.318 - 8=FIX.4.2|9=84|35=A|34=132|49=ConnectToGateway1|56=EchoServer|52=20250627-07:01:26.316|98=0|108=30|10=237|
20250627 14:01:26.414 - 8=FIX.4.2|9=83|35=2|34=133|49=ConnectToGateway1|56=EchoServer|52=20250627-07:01:26.414|7=101|16=0|10=160|
20250627 14:03:05.430 - 8=FIX.4.2|9=84|35=A|34=134|49=ConnectToGateway1|56=EchoServer|52=20250627-07:03:05.429|98=0|108=30|10=243|
20250627 14:03:05.535 - 8=FIX.4.2|9=83|35=2|34=135|49=ConnectToGateway1|56=EchoServer|52=20250627-07:03:05.535|7=101|16=0|10=165|
20250627 14:05:58.177 - 8=FIX.4.2|9=84|35=A|34=136|49=ConnectToGateway1|56=EchoServer|52=20250627-07:05:58.176|98=0|108=30|10=254|
20250627 14:05:58.197 - 8=FIX.4.2|9=83|35=2|34=137|49=ConnectToGateway1|56=EchoServer|52=20250627-07:05:58.197|7=101|16=0|10=181|
20250627 14:09:26.917 - 8=FIX.4.2|9=84|35=A|34=138|49=ConnectToGateway1|56=EchoServer|52=20250627-07:09:26.916|98=0|108=30|10=001|
20250627 14:09:27.026 - 8=FIX.4.2|9=83|35=2|34=139|49=ConnectToGateway1|56=EchoServer|52=20250627-07:09:27.026|7=101|16=0|10=174|
20250627 14:09:27.031 - 8=FIX.4.2|9=116|35=4|34=137|49=ConnectToGateway1|56=EchoServer|52=20250627-07:09:27.031|43=Y|122=20250627-07:09:27.026|123=Y|36=140|10=109|
20250627 14:09:27.032 - 8=FIX.4.2|9=120|35=B|34=140|49=ConnectToGateway1|56=EchoServer|52=20250627-07:09:27.032|148=Hello there|33=3|58=line1|58=line2|58=line3|10=108|
20250627 14:09:27.032 - 8=FIX.4.2|9=120|35=B|34=141|49=ConnectToGateway1|56=EchoServer|52=20250627-07:09:27.032|148=Hello there|33=3|58=line1|58=line2|58=line3|10=109|
20250627 14:09:27.032 - 8=FIX.4.2|9=120|35=B|34=142|49=ConnectToGateway1|56=EchoServer|52=20250627-07:09:27.032|148=Hello there|33=3|58=line1|58=line2|58=line3|10=110|
20250627 14:09:27.032 - 8=FIX.4.2|9=120|35=B|34=143|49=ConnectToGateway1|56=EchoServer|52=20250627-07:09:27.032|148=Hello there|33=3|58=line1|58=line2|58=line3|10=111|
20250627 14:09:27.032 - 8=FIX.4.2|9=120|35=B|34=144|49=ConnectToGateway1|56=EchoServer|52=20250627-07:09:27.032|148=Hello there|33=3|58=line1|58=line2|58=line3|10=112|
20250627 14:09:27.032 - 8=FIX.4.2|9=120|35=B|34=145|49=ConnectToGateway1|56=EchoServer|52=20250627-07:09:27.032|148=Hello there|33=3|58=line1|58=line2|58=line3|10=113|
20250627 14:09:27.032 - 8=FIX.4.2|9=120|35=B|34=146|49=ConnectToGateway1|56=EchoServer|52=20250627-07:09:27.032|148=Hello there|33=3|58=line1|58=line2|58=line3|10=114|
20250627 14:09:27.032 - 8=FIX.4.2|9=120|35=B|34=147|49=ConnectToGateway1|56=EchoServer|52=20250627-07:09:27.032|148=Hello there|33=3|58=line1|58=line2|58=line3|10=115|
20250627 14:09:27.032 - 8=FIX.4.2|9=120|35=B|34=148|49=ConnectToGateway1|56=EchoServer|52=20250627-07:09:27.032|148=Hello there|33=3|58=line1|58=line2|58=line3|10=116|
20250627 14:09:27.032 - 8=FIX.4.2|9=120|35=B|34=149|49=ConnectToGateway1|56=EchoServer|52=20250627-07:09:27.032|148=Hello there|33=3|58=line1|58=line2|58=line3|10=117|
20250627 14:09:27.032 - 8=FIX.4.2|9=83|35=2|34=150|49=ConnectToGateway1|56=EchoServer|52=20250627-07:09:27.032|7=101|16=0|10=164|
20250627 14:09:27.032 - 8=FIX.4.2|9=120|35=B|34=151|49=ConnectToGateway1|56=EchoServer|52=20250627-07:09:27.032|148=Hello there|33=3|58=line1|58=line2|58=line3|10=110|
20250627 14:09:27.032 - 8=FIX.4.2|9=120|35=B|34=152|49=ConnectToGateway1|56=EchoServer|52=20250627-07:09:27.032|148=Hello there|33=3|58=line1|58=line2|58=line3|10=111|
20250627 14:09:27.032 - 8=FIX.4.2|9=120|35=B|34=153|49=ConnectToGateway1|56=EchoServer|52=20250627-07:09:27.032|148=Hello there|33=3|58=line1|58=line2|58=line3|10=112|
20250627 14:09:27.032 - 8=FIX.4.2|9=120|35=B|34=154|49=ConnectToGateway1|56=EchoServer|52=20250627-07:09:27.032|148=Hello there|33=3|58=line1|58=line2|58=line3|10=113|
20250627 14:09:27.032 - 8=FIX.4.2|9=120|35=B|34=155|49=ConnectToGateway1|56=EchoServer|52=20250627-07:09:27.032|148=Hello there|33=3|58=line1|58=line2|58=line3|10=114|
20250627 14:09:27.032 - 8=FIX.4.2|9=120|35=B|34=156|49=ConnectToGateway1|56=EchoServer|52=20250627-07:09:27.032|148=Hello there|33=3|58=line1|58=line2|58=line3|10=115|
20250627 14:09:27.032 - 8=FIX.4.2|9=120|35=B|34=157|49=ConnectToGateway1|56=EchoServer|52=20250627-07:09:27.032|148=Hello there|33=3|58=line1|58=line2|58=line3|10=116|
20250627 14:09:27.032 - 8=FIX.4.2|9=120|35=B|34=158|49=ConnectToGateway1|56=EchoServer|52=20250627-07:09:27.032|148=Hello there|33=3|58=line1|58=line2|58=line3|10=117|
20250627 14:09:27.032 - 8=FIX.4.2|9=120|35=B|34=159|49=ConnectToGateway1|56=EchoServer|52=20250627-07:09:27.032|148=Hello there|33=3|58=line1|58=line2|58=line3|10=118|
20250627 14:09:27.032 - 8=FIX.4.2|9=120|35=B|34=160|49=ConnectToGateway1|56=EchoServer|52=20250627-07:09:27.032|148=Hello there|33=3|58=line1|58=line2|58=line3|10=110|
20250627 14:09:27.032 - 8=FIX.4.2|9=120|35=B|34=161|49=ConnectToGateway1|56=EchoServer|52=20250627-07:09:27.032|148=Hello there|33=3|58=line1|58=line2|58=line3|10=111|
20250627 14:09:27.032 - 8=FIX.4.2|9=120|35=B|34=162|49=ConnectToGateway1|56=EchoServer|52=20250627-07:09:27.032|148=Hello there|33=3|58=line1|58=line2|58=line3|10=112|
20250627 14:09:27.032 - 8=FIX.4.2|9=120|35=B|34=163|49=ConnectToGateway1|56=EchoServer|52=20250627-07:09:27.032|148=Hello there|33=3|58=line1|58=line2|58=line3|10=113|
20250627 14:09:27.032 - 8=FIX.4.2|9=120|35=B|34=164|49=ConnectToGateway1|56=EchoServer|52=20250627-07:09:27.032|148=Hello there|33=3|58=line1|58=line2|58=line3|10=114|
20250627 14:09:27.032 - 8=FIX.4.2|9=120|35=B|34=165|49=ConnectToGateway1|56=EchoServer|52=20250627-07:09:27.032|148=Hello there|33=3|58=line1|58=line2|58=line3|10=115|
20250627 14:09:27.032 - 8=FIX.4.2|9=120|35=B|34=166|49=ConnectToGateway1|56=EchoServer|52=20250627-07:09:27.032|148=Hello there|33=3|58=line1|58=line2|58=line3|10=116|
20250627 14:09:27.032 - 8=FIX.4.2|9=120|35=B|34=167|49=ConnectToGateway1|56=EchoServer|52=20250627-07:09:27.032|148=Hello there|33=3|58=line1|58=line2|58=line3|10=117|
20250627 14:09:27.032 - 8=FIX.4.2|9=120|35=B|34=168|49=ConnectToGateway1|56=EchoServer|52=20250627-07:09:27.032|148=Hello there|33=3|58=line1|58=line2|58=line3|10=118|
20250627 14:09:27.032 - 8=FIX.4.2|9=120|35=B|34=169|49=ConnectToGateway1|56=EchoServer|52=20250627-07:09:27.032|148=Hello there|33=3|58=line1|58=line2|58=line3|10=119|
20250627 14:09:27.032 - 8=FIX.4.2|9=120|35=B|34=170|49=ConnectToGateway1|56=EchoServer|52=20250627-07:09:27.032|148=Hello there|33=3|58=line1|58=line2|58=line3|10=111|
20250627 14:09:27.032 - 8=FIX.4.2|9=120|35=B|34=171|49=ConnectToGateway1|56=EchoServer|52=20250627-07:09:27.032|148=Hello there|33=3|58=line1|58=line2|58=line3|10=112|
20250627 14:09:27.032 - 8=FIX.4.2|9=120|35=B|34=172|49=ConnectToGateway1|56=EchoServer|52=20250627-07:09:27.032|148=Hello there|33=3|58=line1|58=line2|58=line3|10=113|
20250627 14:09:27.034 - 8=FIX.4.2|9=116|35=4|34=137|49=ConnectToGateway1|56=EchoServer|52=20250627-07:09:27.034|43=Y|122=20250627-07:09:27.026|123=Y|36=140|10=112|
20250627 14:09:27.035 - 8=FIX.4.2|9=151|35=B|34=140|49=ConnectToGateway1|56=EchoServer|43=Y|122=20250627-07:09:27.032|52=20250627-07:09:27.035|148=Hello there|33=3|58=line1|58=line2|58=line3|10=121|
20250627 14:09:27.035 - 8=FIX.4.2|9=151|35=B|34=141|49=ConnectToGateway1|56=EchoServer|43=Y|122=20250627-07:09:27.032|52=20250627-07:09:27.035|148=Hello there|33=3|58=line1|58=line2|58=line3|10=122|
20250627 14:09:27.035 - 8=FIX.4.2|9=151|35=B|34=142|49=ConnectToGateway1|56=EchoServer|43=Y|122=20250627-07:09:27.032|52=20250627-07:09:27.035|148=Hello there|33=3|58=line1|58=line2|58=line3|10=123|
20250627 14:09:27.035 - 8=FIX.4.2|9=151|35=B|34=143|49=ConnectToGateway1|56=EchoServer|43=Y|122=20250627-07:09:27.032|52=20250627-07:09:27.035|148=Hello there|33=3|58=line1|58=line2|58=line3|10=124|
20250627 14:09:27.035 - 8=FIX.4.2|9=151|35=B|34=144|49=ConnectToGateway1|56=EchoServer|43=Y|122=20250627-07:09:27.032|52=20250627-07:09:27.035|148=Hello there|33=3|58=line1|58=line2|58=line3|10=125|
20250627 14:09:27.035 - 8=FIX.4.2|9=151|35=B|34=145|49=ConnectToGateway1|56=EchoServer|43=Y|122=20250627-07:09:27.032|52=20250627-07:09:27.035|148=Hello there|33=3|58=line1|58=line2|58=line3|10=126|
20250627 14:09:27.035 - 8=FIX.4.2|9=151|35=B|34=146|49=ConnectToGateway1|56=EchoServer|43=Y|122=20250627-07:09:27.032|52=20250627-07:09:27.035|148=Hello there|33=3|58=line1|58=line2|58=line3|10=127|
20250627 14:09:27.035 - 8=FIX.4.2|9=151|35=B|34=147|49=ConnectToGateway1|56=EchoServer|43=Y|122=20250627-07:09:27.032|52=20250627-07:09:27.035|148=Hello there|33=3|58=line1|58=line2|58=line3|10=128|
20250627 14:09:27.035 - 8=FIX.4.2|9=151|35=B|34=148|49=ConnectToGateway1|56=EchoServer|43=Y|122=20250627-07:09:27.032|52=20250627-07:09:27.035|148=Hello there|33=3|58=line1|58=line2|58=line3|10=129|
20250627 14:09:27.035 - 8=FIX.4.2|9=151|35=B|34=149|49=ConnectToGateway1|56=EchoServer|43=Y|122=20250627-07:09:27.032|52=20250627-07:09:27.035|148=Hello there|33=3|58=line1|58=line2|58=line3|10=130|
20250627 14:09:27.035 - 8=FIX.4.2|9=116|35=4|34=150|49=ConnectToGateway1|56=EchoServer|52=20250627-07:09:27.035|43=Y|122=20250627-07:09:27.032|123=Y|36=151|10=107|
20250627 14:09:27.035 - 8=FIX.4.2|9=151|35=B|34=151|49=ConnectToGateway1|56=EchoServer|43=Y|122=20250627-07:09:27.032|52=20250627-07:09:27.035|148=Hello there|33=3|58=line1|58=line2|58=line3|10=123|
20250627 14:09:27.035 - 8=FIX.4.2|9=151|35=B|34=152|49=ConnectToGateway1|56=EchoServer|43=Y|122=20250627-07:09:27.032|52=20250627-07:09:27.035|148=Hello there|33=3|58=line1|58=line2|58=line3|10=124|
20250627 14:09:27.035 - 8=FIX.4.2|9=151|35=B|34=153|49=ConnectToGateway1|56=EchoServer|43=Y|122=20250627-07:09:27.032|52=20250627-07:09:27.035|148=Hello there|33=3|58=line1|58=line2|58=line3|10=125|
20250627 14:09:27.035 - 8=FIX.4.2|9=151|35=B|34=154|49=ConnectToGateway1|56=EchoServer|43=Y|122=20250627-07:09:27.032|52=20250627-07:09:27.035|148=Hello there|33=3|58=line1|58=line2|58=line3|10=126|
20250627 14:09:27.035 - 8=FIX.4.2|9=151|35=B|34=155|49=ConnectToGateway1|56=EchoServer|43=Y|122=20250627-07:09:27.032|52=20250627-07:09:27.035|148=Hello there|33=3|58=line1|58=line2|58=line3|10=127|
20250627 14:09:27.035 - 8=FIX.4.2|9=151|35=B|34=156|49=ConnectToGateway1|56=EchoServer|43=Y|122=20250627-07:09:27.032|52=20250627-07:09:27.035|148=Hello there|33=3|58=line1|58=line2|58=line3|10=128|
20250627 14:09:27.035 - 8=FIX.4.2|9=151|35=B|34=157|49=ConnectToGateway1|56=EchoServer|43=Y|122=20250627-07:09:27.032|52=20250627-07:09:27.035|148=Hello there|33=3|58=line1|58=line2|58=line3|10=129|
20250627 14:09:27.035 - 8=FIX.4.2|9=151|35=B|34=158|49=ConnectToGateway1|56=EchoServer|43=Y|122=20250627-07:09:27.032|52=20250627-07:09:27.035|148=Hello there|33=3|58=line1|58=line2|58=line3|10=130|
20250627 14:09:27.035 - 8=FIX.4.2|9=151|35=B|34=159|49=ConnectToGateway1|56=EchoServer|43=Y|122=20250627-07:09:27.032|52=20250627-07:09:27.035|148=Hello there|33=3|58=line1|58=line2|58=line3|10=131|
20250627 14:09:27.035 - 8=FIX.4.2|9=151|35=B|34=160|49=ConnectToGateway1|56=EchoServer|43=Y|122=20250627-07:09:27.032|52=20250627-07:09:27.035|148=Hello there|33=3|58=line1|58=line2|58=line3|10=123|
20250627 14:09:27.035 - 8=FIX.4.2|9=151|35=B|34=161|49=ConnectToGateway1|56=EchoServer|43=Y|122=20250627-07:09:27.032|52=20250627-07:09:27.035|148=Hello there|33=3|58=line1|58=line2|58=line3|10=124|
20250627 14:09:27.035 - 8=FIX.4.2|9=151|35=B|34=162|49=ConnectToGateway1|56=EchoServer|43=Y|122=20250627-07:09:27.032|52=20250627-07:09:27.035|148=Hello there|33=3|58=line1|58=line2|58=line3|10=125|
20250627 14:09:27.035 - 8=FIX.4.2|9=151|35=B|34=163|49=ConnectToGateway1|56=EchoServer|43=Y|122=20250627-07:09:27.032|52=20250627-07:09:27.035|148=Hello there|33=3|58=line1|58=line2|58=line3|10=126|
20250627 14:09:27.035 - 8=FIX.4.2|9=151|35=B|34=164|49=ConnectToGateway1|56=EchoServer|43=Y|122=20250627-07:09:27.032|52=20250627-07:09:27.035|148=Hello there|33=3|58=line1|58=line2|58=line3|10=127|
20250627 14:09:27.035 - 8=FIX.4.2|9=151|35=B|34=165|49=ConnectToGateway1|56=EchoServer|43=Y|122=20250627-07:09:27.032|52=20250627-07:09:27.035|148=Hello there|33=3|58=line1|58=line2|58=line3|10=128|
20250627 14:09:27.035 - 8=FIX.4.2|9=151|35=B|34=166|49=ConnectToGateway1|56=EchoServer|43=Y|122=20250627-07:09:27.032|52=20250627-07:09:27.035|148=Hello there|33=3|58=line1|58=line2|58=line3|10=129|
20250627 14:09:27.035 - 8=FIX.4.2|9=151|35=B|34=167|49=ConnectToGateway1|56=EchoServer|43=Y|122=20250627-07:09:27.032|52=20250627-07:09:27.035|148=Hello there|33=3|58=line1|58=line2|58=line3|10=130|
20250627 14:09:27.035 - 8=FIX.4.2|9=151|35=B|34=168|49=ConnectToGateway1|56=EchoServer|43=Y|122=20250627-07:09:27.032|52=20250627-07:09:27.035|148=Hello there|33=3|58=line1|58=line2|58=line3|10=131|
20250627 14:09:27.035 - 8=FIX.4.2|9=151|35=B|34=169|49=ConnectToGateway1|56=EchoServer|43=Y|122=20250627-07:09:27.032|52=20250627-07:09:27.035|148=Hello there|33=3|58=line1|58=line2|58=line3|10=132|
20250627 14:09:27.035 - 8=FIX.4.2|9=151|35=B|34=170|49=ConnectToGateway1|56=EchoServer|43=Y|122=20250627-07:09:27.032|52=20250627-07:09:27.035|148=Hello there|33=3|58=line1|58=line2|58=line3|10=124|
20250627 14:09:27.036 - 8=FIX.4.2|9=151|35=B|34=171|49=ConnectToGateway1|56=EchoServer|43=Y|122=20250627-07:09:27.032|52=20250627-07:09:27.035|148=Hello there|33=3|58=line1|58=line2|58=line3|10=125|
20250627 14:09:27.036 - 8=FIX.4.2|9=151|35=B|34=172|49=ConnectToGateway1|56=EchoServer|43=Y|122=20250627-07:09:27.032|52=20250627-07:09:27.036|148=Hello there|33=3|58=line1|58=line2|58=line3|10=127|
20250627 14:09:32.567 - 8=FIX.4.2|9=92|35=5|34=173|49=ConnectToGateway1|56=EchoServer|52=20250627-07:09:32.567|58=Shutting down...|10=060|
20250627 14:09:41.322 - 8=FIX.4.2|9=84|35=A|34=174|49=ConnectToGateway1|56=EchoServer|52=20250627-07:09:41.321|98=0|108=30|10=244|
20250627 14:09:41.474 - 8=FIX.4.2|9=120|35=B|34=175|49=ConnectToGateway1|56=EchoServer|52=20250627-07:09:41.474|148=Hello there|33=3|58=line1|58=line2|58=line3|10=122|
20250627 14:10:07.961 - 8=FIX.4.2|9=92|35=5|34=176|49=ConnectToGateway1|56=EchoServer|52=20250627-07:10:07.961|58=Shutting down...|10=055|
20250627 14:10:10.150 - 8=FIX.4.2|9=84|35=A|34=177|49=ConnectToGateway1|56=EchoServer|52=20250627-07:10:10.147|98=0|108=30|10=241|
20250627 14:10:10.219 - 8=FIX.4.2|9=120|35=B|34=178|49=ConnectToGateway1|56=EchoServer|52=20250627-07:10:10.219|148=Hello there|33=3|58=line1|58=line2|58=line3|10=110|
20250627 14:10:19.679 - 8=FIX.4.2|9=92|35=5|34=179|49=ConnectToGateway1|56=EchoServer|52=20250627-07:10:19.679|58=Shutting down...|10=067|
20250627 14:10:27.606 - 8=FIX.4.2|9=84|35=A|34=180|49=ConnectToGateway1|56=EchoServer|52=20250627-07:10:27.604|98=0|108=30|10=241|
20250627 14:10:27.710 - 8=FIX.4.2|9=83|35=2|34=181|49=ConnectToGateway1|56=EchoServer|52=20250627-07:10:27.710|7=150|16=0|10=167|
20250627 14:10:27.716 - 8=FIX.4.2|9=120|35=B|34=182|49=ConnectToGateway1|56=EchoServer|52=20250627-07:10:27.716|148=Hello there|33=3|58=line1|58=line2|58=line3|10=115|
20250627 14:10:57.716 - 8=FIX.4.2|9=72|35=0|34=183|49=ConnectToGateway1|56=EchoServer|52=20250627-07:10:57.716|10=206|
20250627 14:11:27.716 - 8=FIX.4.2|9=72|35=0|34=184|49=ConnectToGateway1|56=EchoServer|52=20250627-07:11:27.716|10=205|
20250627 14:11:31.027 - 8=FIX.4.2|9=93|35=5|34=185|49=ConnectToGateway1|56=EchoServer|52=20250627-07:11:31.027|58=Confirming logout|10=061|
20250627 14:12:10.537 - 8=FIX.4.4|9=84|35=A|34=186|49=ConnectToGateway1|56=EchoServer|52=20250627-07:12:10.535|98=0|108=30|10=246|
20250627 14:12:10.649 - 8=FIX.4.4|9=116|35=4|34=185|49=ConnectToGateway1|56=EchoServer|52=20250627-07:12:10.648|43=Y|122=20250627-07:12:10.535|123=Y|36=187|10=116|
20250627 14:12:10.649 - 8=FIX.4.4|9=120|35=B|34=187|49=ConnectToGateway1|56=EchoServer|52=20250627-07:12:10.649|148=Hello there|33=3|58=line1|58=line2|58=line3|10=121|
20250627 14:12:40.649 - 8=FIX.4.4|9=72|35=0|34=188|49=ConnectToGateway1|56=EchoServer|52=20250627-07:12:40.649|10=212|
20250627 14:13:10.649 - 8=FIX.4.4|9=72|35=0|34=189|49=ConnectToGateway1|56=EchoServer|52=20250627-07:13:10.649|10=211|
20250627 14:13:12.320 - 8=FIX.4.4|9=93|35=5|34=190|49=ConnectToGateway1|56=EchoServer|52=20250627-07:13:12.320|58=Confirming logout|10=056|
20250627 14:14:12.905 - 8=FIX.4.4|9=84|35=A|34=191|49=ConnectToGateway1|56=EchoServer|52=20250627-07:14:12.903|98=0|108=30|10=245|
20250627 14:14:13.013 - 8=FIX.4.4|9=116|35=4|34=190|49=ConnectToGateway1|56=EchoServer|52=20250627-07:14:13.012|43=Y|122=20250627-07:14:12.903|123=Y|36=192|10=101|
20250627 14:14:13.013 - 8=FIX.4.4|9=120|35=B|34=192|49=ConnectToGateway1|56=EchoServer|52=20250627-07:14:13.013|148=Hello there|33=3|58=line1|58=line2|58=line3|10=107|
20250627 14:14:30.000 - 8=FIX.4.4|9=92|35=5|34=193|49=ConnectToGateway1|56=EchoServer|52=20250627-07:14:30.000|58=Shutting down...|10=040|
20250627 14:15:31.503 - 8=FIX.4.4|9=84|35=A|34=194|49=ConnectToGateway1|56=EchoServer|52=20250627-07:15:31.501|98=0|108=30|10=244|
20250627 14:15:31.613 - 8=FIX.4.4|9=83|35=2|34=195|49=ConnectToGateway1|56=EchoServer|52=20250627-07:15:31.612|7=165|16=0|10=181|
20250627 14:15:31.617 - 8=FIX.4.4|9=120|35=B|34=196|49=ConnectToGateway1|56=EchoServer|52=20250627-07:15:31.617|148=Hello there|33=3|58=line1|58=line2|58=line3|10=122|
20250627 14:16:01.618 - 8=FIX.4.4|9=72|35=0|34=197|49=ConnectToGateway1|56=EchoServer|52=20250627-07:16:01.618|10=209|
20250627 14:16:31.618 - 8=FIX.4.4|9=72|35=0|34=198|49=ConnectToGateway1|56=EchoServer|52=20250627-07:16:31.618|10=213|
20250627 14:17:01.618 - 8=FIX.4.4|9=72|35=0|34=199|49=ConnectToGateway1|56=EchoServer|52=20250627-07:17:01.618|10=212|
20250627 14:17:31.619 - 8=FIX.4.4|9=72|35=0|34=200|49=ConnectToGateway1|56=EchoServer|52=20250627-07:17:31.619|10=199|
20250627 14:18:01.620 - 8=FIX.4.4|9=72|35=0|34=201|49=ConnectToGateway1|56=EchoServer|52=20250627-07:18:01.619|10=198|
20250627 14:18:31.620 - 8=FIX.4.4|9=72|35=0|34=202|49=ConnectToGateway1|56=EchoServer|52=20250627-07:18:31.620|10=194|
20250627 14:19:01.620 - 8=FIX.4.4|9=72|35=0|34=203|49=ConnectToGateway1|56=EchoServer|52=20250627-07:19:01.620|10=193|
20250627 14:19:31.621 - 8=FIX.4.4|9=72|35=0|34=204|49=ConnectToGateway1|56=EchoServer|52=20250627-07:19:31.621|10=198|
20250627 14:20:01.621 - 8=FIX.4.4|9=72|35=0|34=205|49=ConnectToGateway1|56=EchoServer|52=20250627-07:20:01.621|10=188|
20250627 14:20:31.622 - 8=FIX.4.4|9=72|35=0|34=206|49=ConnectToGateway1|56=EchoServer|52=20250627-07:20:31.622|10=193|
20250627 14:21:01.622 - 8=FIX.4.4|9=72|35=0|34=207|49=ConnectToGateway1|56=EchoServer|52=20250627-07:21:01.622|10=192|
20250627 14:21:31.622 - 8=FIX.4.4|9=72|35=0|34=208|49=ConnectToGateway1|56=EchoServer|52=20250627-07:21:31.622|10=196|
20250627 14:22:01.623 - 8=FIX.4.4|9=72|35=0|34=209|49=ConnectToGateway1|56=EchoServer|52=20250627-07:22:01.623|10=196|
20250627 14:22:26.752 - 8=FIX.4.4|9=92|35=5|34=210|49=ConnectToGateway1|56=EchoServer|52=20250627-07:22:26.752|58=Shutting down...|10=048|
